:020000040000FA
:06000000020A340201B8FF
:03002B0002079237
:0300330002066260
:0300430002072C85
:030053000200F7B1
:03006B0002064842
:100083000201540101FF01010503010F10FEFFC42A
:1000930012C412C412C41280117A11C4125D250055
:1000A300000000BF25000000000C0000000C000150
:1000B30004FFFF414C442042726F616463617374B7
:1000C300000102006A05000000DD05640002020071
:1000D300080000050207051E02051E020A0A03B8EE
:1000E3000B02803E0102F1FF141F00E00796511836
:1000F30000020206C0E074F21203D1A2AFE433FEA1
:10010300D2AFE5A7FFE5A1F5085F54106006121A08
:100113009875A1EFE5085F54086008121A9E75A14F
:10012300F78024E508A2E092F0EFA2E082F05017F6
:10013300906198E0F8900ABBE0C398A2D265D033EF
:100143005002E8F075A1FEEEA2E092AF7F01020437
:1001530030C0E074F21203D1A2AFE433FED2AF9009
:1001630061A4E0F8759B00E5915854086008759107
:10017300F7121AE68023E59158541060087591EF41
:10018300121AEC8014E591A2E092F0E8A2E082F06A
:100193005007E0C2E0F0121C309061A3E0F8E5E9FB
:1001A300585404600E121C0675E9FB906193E0A29B
:1001B300E640F28092C0E074F21203D1A2AFE433BE
:1001C300FED2AF9061A5E0F8E5BF58540460067510
:1001D300BFFB121C4802014AC3E498F8E499F912E0
:1001E300021C8026C3E49AFAE49BFBE920E7E912A8
:1001F300021CE498F8E499F922C3E498F8E499F925
:1002030012021CE498F8E499F9C3E49AFAE49BFB1C
:1002130022EB20E7CFE920E7E0B90010BB0008E8B4
:100223008AF084F8AAF022E4FBC8FA22EB70227B5E
:1002330010C833C8C933C9335007C39AC3DBF2802C
:10024300069A50012ADBEAC833F4C8C933F4C9FA61
:100253002275F008E4C833C8C933C933C99AC99BA6
:100263005004C92AC93BD5F0ECFBC833F4C8E4C930
:10027300FA22080808EAC0E0EBC0E086F0E7A4FA37
:10028300180986F0E7A42AFA180986F0E7A42AFADF
:10029300180986F0E7A42AFA1986F0E7A4FBE5F02B
:1002A3002AFA190886F0E7A42BFBE5F03AFA1908B5
:1002B30086F0E7A42BFBE5F03AFA18180986F0E775
:1002C300A4C5F02BFBE43AFA1908E7C5F0C6A42647
:1002D300F6E5F03BFBE43AFA1886F0E7A4F6E5F01E
:1002E3000826F6E43B08F6E43A08F6D0E0FBD0E053
:1002F300FA22E4CFC0E0E4CEC0E0E4CDC0E0E4CC39
:10030300C0E075F020C3E633F608E633F608E633BB
:10031300F608E633F6181818EC33FCED33FDEE332C
:10032300FEEF33FFC3EC9709ED9709EE9709EF97BB
:10033300191919400FFFEC97FC09ED97FD09EE978A
:10034300FE191906D5F0BEECF709EDF709EEF7092A
:10035300EFF7191919D0E0FCD0E0FDD0E0FED0E0B2
:10036300FF222518C582C0E0E51934FFC583C0E02C
:10037300E518C3958224F810AF0885831985821880
:100383008008858319858218D2AFCEF0A3E520F0CB
:10039300A37808E608F0A3DEFAEFF0A3E58124FAD8
:1003A300F8E608F0A3E608F0A3E608F0A30808E6D9
:1003B30008F0A3E608F0A315811581D0E0FED0E094
:1003C300F8158115811581E8C0E0EEC0E022C0D0A8
:1003D3002518C582C0E0E51934FFC583C0E0E518E0
:1003E300C3958224F310AF0885831985821880088A
:1003F300858319858218D2AFC8F0A3E9F0A3EAF088
:10040300A3EBF0A37908E709F0A3D8FAECF0A3ED86
:10041300F0A3EEF0A3EFF0A3D0E0F0A3D0E0F0A3BD
:10042300D0E0F0A3E520F0A3E5F0F0A32285198343
:10043300851882E0C0E0A3E0F9A3E0FAA3E0FBA300
:100443007808E0F608A3DFFAE0FCA3E0FDA3E0FEF2
:10045300A3E0FFA3E0C0E0A3E0C0E0A3E0F5D0A3E6
:10046300E0F520A3E0A3F5F010AF0885831985829A
:10047300188008858319858218D2AFD082D083D0A3
:10048300E0F8D0E032120A96B900030204CAE490FD
:1004930003017882790E8002F0A3D8FCD9FA901078
:1004A30082AA82AB83900086787279018015E493E7
:1004B300A3AC82AD838A828B83F0A3AA82AB838CA5
:1004C300828D83D8E9D9E775825D7583E974031258
:1004D30008107582FA75831E740012081075F010E7
:1004E3008E1A8F1B85821F85831E8518828519832B
:1004F300E0CEA3E0CF851F82851E83EBC9EAC8ED5A
:10050300CBECCAC3E833C8E933C9EA33CAEB33CB0C
:10051300C3EA9EF51DEB9FF51CB35004AB1CAA1D4B
:10052300EC33CCED33CDD5F0DAAE1AAF1B22D0834A
:10053300D082ECC0E0EDC0E0E493A3FCE493A3FD20
:10054300ED4C600D120609EC24FFFCED34FFFD8039
:10055300EFE493A3FCE493A3FDED4C600D1206D7E7
:10056300EC24FFFCED34FFFD80EFD0E0FDD0E0FC98
:10057300E493A3C0E0E493C0E022D083D082E9C037
:10058300E0E493A3C386F0C5F095F0F908E493A3E0
:1005930086F0C5F095F0700BE493A3C3994005E989
:1005A300048002A3E475F002A42582F582E5F03508
:1005B30083F583D0E0F9E493A3C0E0E493C0E022A1
:1005C300851983851882E0A3FEE0A3F5207808E06F
:1005D300A3F608DFFAE0A3FFE0A3C0E0E0A3C0E0D6
:1005E300E0A3C0E0E0A3C0E0E0A3C0E010AF088553
:1005F30082188583198008858218858319D2AFD024
:1006030083D082020816C0E0C3E493960874019372
:100613009618400FE4936670080874019366187087
:10062300007019A3A3C3E49396087401939618A3C7
:10063300A3400DD0E0D0E0D0E002056DA3A3A3A3B7
:10064300A3A3D0E022C0E074F21203D1E589A2E1B2
:100653005003121948758900C2C57F01020430C0D6
:10066300E074F21203D1E58BA2E05003121948752E
:100673008B00C2E880E47404800474028000CCC060
:10068300E0EDC0E0E518C39CCCAD1950011D10AFDF
:10069300068C188D1980068C188D19D2AF1207712C
:1006A300D0E0FDD0E0FC2274028000CCC0E0EDC0BD
:1006B300E0E518C39CCCAD1950011D10AF068C1892
:1006C3008D1980068C188D19D2AF12074FD0E0FD1B
:1006D300D0E0FC22C0E0C0F088F0E4936670080824
:1006E30074019366187000A8F0A3A3700BD0F0D028
:1006F300E0D0E0D0E002056DA3A3D0F0D0E022D09B
:1007030083D082CCC0E0E493A360061207F1147097
:10071300FAE493A360061208C91470FAD0E0FCE46B
:1007230093A3C0E0E493C0E022C0E074F21203D1CB
:10073300A2AFE433FED2AFC2C0E5D1A2E4500312AC
:100743001A0EEEA2E092AF7F01020430CAC0E0E4C9
:1007530093A3C582CCC582C583CDC583F0A3C582CF
:10076300CCC582C583CDC583DAE5D0E0CA22CAC031
:10077300E0E0A3C582CCC582C583CDC583F0A3C504
:1007830082CCC582C583CDC583DAE6D0E0CA22C058
:10079300E0C0D0E8C0E0E9C0E0E5A8D2AFC2C7A29C
:1007A300E7A2E792AFD0E0F9D0E0F8D0D0D0E032C2
:1007B3007009080808226016181818C6C333C6083B
:1007C300C633C608C633C608C633C6D5E0EA22C058
:1007D30008C3E096F50808A3E096420808A3E0964C
:1007E300420808A3E09645087001D3D00822C0E070
:1007F300E493A3D39C5010E493A3C39C400AD0E09A
:10080300D0E0D0E002071FA3A3A3D0E022C09FF54E
:100813009FE473D09F22D083D082C09FE493C0E033
:10082300740193C0E0740293F59F222518F582109A
:10083300AF08F518400215198008F518400215197C
:10084300D2AF851983227404800A7403800674026C
:1008530080027401C0E0F40412082ED0E0120A7181
:1008630022C0D0251810AF08F518500205198008CA
:10087300F51850020519D2AFD0D022BB0102E722EE
:10088300C082C08389828A83BB0003E08002E49331
:10089300D083D082226016080808C6C313C618C6C0
:1008A30013C618C613C618C613C6D5E0EA22C3E09A
:1008B300C696F608A3E0C696F608A3E0C696F60821
:1008C300A3E0C696F622C0E0E493A36C7009D0E0DF
:1008D300D0E0D0E002071FA3A3D0E022251810AF79
:1008E30008F518400215198008F51840021519D2A9
:1008F300AF22E76670100809E766700A0809E76621
:1009030070040809E76622C3E09608A3E09608A3EB
:10091300E09608A3E096A2D265D03322E066701079
:1009230008A3E066700A08A3E066700408A3E06603
:1009330022C3E096F008A3E096F008A3E096F0083F
:10094300A3E096F022E026F008A3E036F008A3E047
:1009530036F008A3E036F022C0E0E8C0E0E58124E9
:10096300FCF8E6A2E7D0E0F8D0E022E647F6080973
:10097300E647F60809E647F60809E647F622E026C1
:10098300F608A3E036F608A3E036F608A3E036F649
:1009930022E627F60809E637F60809E637F60809D6
:1009A300E637F622E657F60809E657F60809E6574A
:1009B300F60809E657F622E056F608A3E056F608CD
:1009C300A3E056F608A3E056F622E056F008A3E0AB
:1009D30056F008A3E056F008A3E056F02270042274
:1009E300600D18C6C333C608C633C6D5E0F4182253
:1009F300E4C396F608E496F608E496F608E496F659
:100A030022C6F4C608C6F4C608C6F4C608C6F4C6A9
:100A130022C3E7960809E7960809E7960809E796C7
:100A230022C3E09608A3E09608A3E09608A3E09605
:100A33002275D000758140751801751903000204F1
:100A430088E0F608A3E0F608A3E0F608A3E0F622A0
:100A5300600C08C6C313C618C613C6D5E0F422E655
:100A6300F008A3E6F008A3E6F008A3E6F022CAC064
:100A7300E0E6F0A308DAFAD0E0FA22E0FAA3E0FB1A
:100A8300A3E0FCA3E0FD22EAF0A3EBF0A3ECF0A3C8
:100A9300EDF022E5C754F84401F5C7790122251882
:100AA300F582E43519F58322C2AF75D69F020000A3
:100AB30022120819D7DF02120819B9E00212081925
:100AC3000EE3021208195BE402120819FEE4021293
:100AD300081945E60212081963E60212081961288B
:100AE30000120819732800120819C52800120819E2
:100AF300262900120819B02900120819542A0012D5
:100B03000819A82A00120819C12A00120819E72A8D
:100B130000120819222B00120819662B001208195B
:100B23008D2B00120819DE2B001208198E2C0012CF
:100B33000819462D001208190E2E00120819CE2E80
:100B430000120819122F00120819372F0012081962
:100B53007A2F00120819C72F001208191F3100122B
:100B63000819A53100120819C33100120819ED3113
:100B73000012081907320012081916320012081958
:100B8300213200120819E132001208193A33001217
:100B93000819FC3300120819043400120819C83468
:100BA300001208193435001208195F3600120819AB
:100BB300843600120819FA36001208198C3700120D
:100BC30008194C38001208196B38001208197A39C1
:100BD300001208198C3900120819FC39001208197F
:100BE300263A00120819B43A00120819ED3A001215
:100BF3000819393B00120819553C001208199E3E8A
:100C030000120819A93E00120819B43E001208196F
:100C1300BF3E00120819C93E00120819D43E001243
:100C23000819EE3E00120819F83E00120819023F97
:100C3300001208190D3F00120819353F0012081958
:100C4300903F001208199A3F00120819BE3F001284
:100C53000819E23F001208194040001208198440A5
:100C630000120819A04000120819174100120819B0
:100C73004F41001208199B4100120819F841001254
:100C83000819B24200120819964400120819EF44D9
:100C9300001208191F4600120819454600120819C8
:100CA300CE47001208194A4B001208191C4D0012B6
:100CB3000819E54E00120819924F00120819FD5049
:100CC300001208199C5100120819E1510012081969
:100CD3004B52001208195A5200120819E15400121B
:100CE3000819935600120819005700120819DF5704
:100CF30000120819F85800120819755A0012081939
:100D0300945A00120819E95A00120819EE5B0012EE
:100D13000819165C001208196E5C001208194D5D63
:100D230000120819915D00120819DC5D0012081900
:100D3300475E00120819885F00120819EC5F001261
:100D430008193A61001208199A6300120819CB6353
:100D530000120819836500120819D86500120819D2
:100D6300DC6600120819796700120819D2670012AD
:100D73000819856800120819276900120819C7693C
:100D8300001208196C6A00120819818601120819E9
:100D9300C086011208190789011208195189011225
:100DA30008196C8A01120819D48A01120819098BCF
:100DB300011208197D8C01120819008F01120819FC
:100DC300299001120819BF9001120819C79901123D
:100DD30008195C9A01120819439D01120819369EDD
:100DE30001120819A49E01120819EA9F0112081999
:100DF300CCA001120819B1A201120819C2A4011250
:100E030008192CA501120819FEA5011208192CA610
:100E130001120819E9A601120819C0A7011208193D
:100E230087A8011208192BA90112081954A9011244
:100E3300081976A901120819CCAB01120819A4AC40
:100E430001120819E8AC0112081950AD0112081972
:100E530008AE011208193AAE011208197EAE01124A
:100E63000819B4AE0112081900AF0112081955AFE1
:100E7300011208195AAF01120819ADAF011208196E
:100E8300D2AF01120819E1B00112081945B10112DC
:100E93000819B5B10112081941B2011208190EB5AA
:100EA30001120819F2B50112081975B701120819D0
:100EB300ABB90112081959BA0112081909BB011279
:100EC30008194ABD01120819EDBD0112081934BEF3
:100ED30001120819E0BF01120819F4BF0112081921
:100EE300FEBF0112081926C00112081932C00112EF
:100EF300081951C00112081971C201120819C0C39F
:100F03000112081904C401120819ACC4011208190A
:100F13008FC5011208193AC60112081986C70112B2
:100F2300081984C8011208192AC901120819BAC973
:100F330001120819D1C90112081908CA01120819A6
:100F430012CA011208191DCA011208193BCA01125B
:100F530008197FCA01120819DCCA0112081901CB4A
:100F6300011208191BCB01120819A7CB011208198A
:100F7300C4CC0112081931CD0112081918CE01127F
:100F830008193FCE01120819B3CE011208192ECF4A
:100F93000112081932D00112081928D101120819B7
:100FA300D7D101120819EAD20112081986D3011206
:100FB300081913D401120819F1D40112081929D5FB
:100FC3000112081981D5011208194AD6011208190C
:100FD3006BD601120819F2D60112081916D701129D
:100FE300081938D70112081981D70112081997D99E
:100FF300011208197EDA011208192FDB01120819F0
:1010030065DD01120819B5DD01120819F5DD0112BC
:10101300081937DE0112081993DE01120819C1DE1F
:1010230001120819E5DE0112081938DF0112081947
:1010330066DF011208199FDF01120819F4DF01129C
:1010430008195AE001120819AEE101120819D1E397
:10105300011208193EE40112081967E40112081984
:10106300F2E40112081959E501120819A4E5011265
:101073000819C8E501120819ECE50112081947E639
:101083000112081962E6011208191BE70112081977
:10109300A89004120819E790041208197880021224
:1010A3000819BE80021208199E8102120819A08233
:1010B30002120819A383021208192F8502120819B4
:1010C3008D85021208194A860212081968870212CE
:1010D3000819D9870212081915880212081963889A
:1010E300021208196D8802120819B1880212081930
:1010F3000D8902120819A88902120819258A0212F9
:101103000819F48A021208198D8B02120819AD8B83
:1011130002120819E38B02120819148C021208191F
:10112300D58C02120819E58C02120819398D0212A6
:101133000819548D02120819668D021208196F8D51
:1011430002120819C98D02120819258E02120819F4
:10115300718E021208198C8E02120819BD8E0212AA
:101163000819DA8E02120819E68E021208195A902B
:1011730002120819739002120819DA900212081960
:10118300ED9002120819FB9002120819AF91021296
:1011930008199392021208199993021208192394B9
:1011A300021208192D94021208199A9402120819AE
:1011B300B19402120819E394021208191C95021241
:1011C3000819469502120819A79502120819C7951E
:1011D30002120819E595021208192B960212081932
:1011E3005197021208199E9702120819CD970212FD
:1011F30008194398021208196B9802120819A49847
:1012030002120819B298021208190A99021208194F
:10121300599902120819989902120819C8990212C9
:101223000819F49902120819FF99021208191D9A54
:1012330002120819DF9A02120819E99A0212081910
:101243002A9B021208197F9B02120819939B021210
:101253000819A19C02120819B49C02120819C99C0E
:10126300021208196B9D02120819EE9D0212081949
:10127300AC9E02120819B79E02120819E39F0212CC
:101283000819FF9F0212081951A00212081990A011
:1012930002120819A5A00212081907A102120819BF
:1012A30096A102120819E1A10212081932A402122E
:1012B3000819B0A40212081925A50212081947A794
:1012C300021208195FA70212081962A7021208196D
:1012D3006EA70212081982A7021208198AA702121E
:1012E3000819BDA7021208196DA802120819E3A86C
:1012F3000212081956A9021208190AAA0212081999
:10130300BFAA02120819DEAA0212081984AB02123C
:101313000819AFAB02120819B2AB021208191CACC0
:101323000212081944AD021208191CAE0212081960
:10133300A7AE02120819C0AF021208197DB002123B
:101343000819B6B002120819E7B002120819A5B1BC
:1013530002120819D5B102120819B0B20212081903
:1013630049B302120819D4B30212081985B4021240
:10137300081908B5021208193AB5021208197BB503
:10138300021208192DA7031208198EA703120819B0
:10139300CBA7031208191EA80312081947AA0312A0
:1013A300081917AC0312081984AF03120819BBAF4D
:1013B30003120819D9AF031208194FB00312081901
:1013C30077B003120819A8B003120819D8B0031292
:1013D300081934B1031208190DF4021208198BF419
:1013E30002120819C1F4021208192DF50212081984
:1013F300A0F602120819BCF60212081901F702122C
:1014030008198EF702120819E7F70212081913F9DF
:101413000212081921FA021208197EFA0212081997
:10142300EAFA0212081986D6021208198CFB021274
:10143300081939FC021208194BFD021208198EFD16
:1014430002120819DCFD0212081913FE0212081910
:10145300B6FE0212081971FF02120819138404124E
:101463000819438404120819A08404120819BCF350
:101473000312081937F40312081942F40312081966
:10148300BBDF02120819D3F501120819DDF50112A9
:10149300081929F60112081997F601120819B8F666
:1014A3000112081968F70112081925FA011208191F
:1014B3002EFA0112081981FA01120819AAFA011267
:1014C300081908FB0112081999FB01120819D5FB29
:1014D3000112081921FC0112081988FC01120819CC
:1014E300C1FC0112081947FD0112081986FD0112FA
:1014F3000819C7FD01120819FEFD0112081910FE93
:101503000112081922FE0112081941FE01120819DD
:101513004AFE0112081902FF0112081942FF0112C3
:101523000819658D04120819008004120819368001
:1015330004120819818004120819CF8104120819B2
:10154300B86A00120819036C001208193F6C0012E4
:101553000819F66D001208191F6E00120819B770EA
:1015630000120819F770001208199872001208196E
:101573003273001208199A730012081927740012A3
:1015830008195F74001208199F7400120819327643
:1015930000120819D17700120819207A00120819CD
:1015A3004E7A001208197A7A00120819837A001207
:1015B3000819017B001208192A7E001208192892C3
:1015C300041208193E92041208195D9004120819B6
:1015D3004DF00312081962F003120819FFF0031209
:1015E30008193BF10312081952F10312081979F192
:1015F30003120819BEF103120819EFF103120819B7
:1016030027F203120819AFF303120819DE88041234
:1016130008191489041208193089041208197289E7
:1016230004120819828904120819178A0412081966
:10163300218A04120819398A041208191ACC0312D0
:101643000819D5CC031208198ACD03120819C8CD7D
:10165300031208197FCF031208195BD0031208196C
:101663008AE602120819DFE602120819CBE7021212
:1016730008196DE802120819B7E80212081918E9E7
:10168300021208192CE9021208195EE9021208195C
:101693005CEA02120819EBEA0212081902EB0212C1
:1016A30008194DEB0212081963EB0212081970EBCB
:1016B30002120819A4EB02120819C4EB021208194A
:1016C3005FEC02120819B9EC021208190CED0212B0
:1016D30008193DED02120819ACEF02120819DDEFEB
:1016E3000212081978F002120819F6F0021208190A
:1016F300FBF00212081937F10212081990F10212D5
:10170300081954F2021208197EF20212081988F21B
:10171300021208198BF20212081913F302120819A4
:101723003CF3021208194FF3021208198AF302124A
:1017330008198DF30212081998F302120819D4F349
:10174300021208191090041208192890041208199B
:10175300D7BA0312081926BB03120819D5BC031202
:1017630008199CBE03120819E0BE0312081907C02A
:101773000312081938C1031208195AC103120819B0
:10178300B6C10312081938C20312081900800312E4
:101793000819218003120819A980031208192F813F
:1017A30003120819AB8103120819148203120819D2
:1017B3005C8203120819ED82031208198283031253
:1017C3000819138403120819548403120819DF88B3
:1017D300031208196D8A031208190B8B03120819D7
:1017E300348B03120819568D03120819F98F03124B
:1017F3000819C99003120819F79103120819639580
:1018030003120819739503120819B99603120819DC
:101813005F97031208198498031208197D9903121C
:101823000819009A0312081955E70112081911E85B
:10183300011208198EE80112081950E9011208195A
:10184300BCE90112081989EC011208192AED0112E9
:1018530008198EED0112081924EF01120819DCEFA3
:101863000112081960F001120819E7F101120819B1
:10187300F7F2011208199CF3011208196DF4011211
:101883000819EAEC031208193AED0312081996ED48
:1018930003120819E1ED031208193CEE03120819AB
:1018A300B7EE031208194CEF0312081990EF031255
:1018B3000819A6EF0312081901F0031208193EF0E4
:1018C30003120819328204120819638204120819D8
:1018D3001D8304120819838304120819E8E903120B
:1018E300081974EB03120819D59104120819E6912B
:1018F30004120819C48504120819D28504120819A0
:10190300E77F001208197A8F041208198A8F0412CC
:101913000819A58F04120819069004120819618C7E
:1019230004120819E68C041208194C8D04120819C4
:101933004F8B04120819718B04120819DB8B0412E4
:101943000819E68B041208192A8C04120819909AB4
:10195300031208199E9A03120819E19A031208192F
:10196300029B03120819889B03120819859C031212
:101973000819A79C03120819139D031208192E9D19
:1019830003120819499D03120819539D03120819DC
:101993005D9D03120819709D03120819899D031296
:1019A3000819349E031208196D9F031208193EA2E9
:1019B30003120819C4A20312081910A30312081969
:1019C300C6A303120819A1A4031208194CE20312B7
:1019D30008195AE203120819D4E203120819B8E3EA
:1019E3000312081971E503120819DCFF0312081921
:1019F30068C203120819D4C20312081993C303124D
:101A030008199FC403120819F8C50312081953C60D
:101A130003120819A8C603120819B1C6031208193C
:101A2300C3C6031208192DC70312081941C70312AD
:101A330008194BC7031208195FC703120819B4C763
:101A430003120819B0C903120819E2C903120819CD
:101A530004CA031208191DCA0312081936CA03124D
:101A6300081940CB03120819DBCB0312081973873B
:101A730004120819978704120819B0870412081969
:101A8300EF870412081922880412081952880412D5
:101A93000819BA8804120819BD8804120819C788DE
:101AA30004120819D488041208198FF603120819AE
:101AB300B7F603120819F8F6031208190AF7031206
:101AC300081925F7031208198DF70312081999F756
:101AD30003120819F8F7031208191CF8031208195E
:101AE300DDF803120819EAF803120819FBF80312C8
:101AF300081937910412081954910412081914D1C2
:101B03000312081974D2031208197AD2031208199E
:101B130091D203120819B2D203120819C8D20312C0
:101B23000819DCD2031208195BD303120819C0D3B6
:101B33000312081956D4031208192FD503120819D2
:101B43003FD5031208194ED503120819E18E04126A
:101B53000819058F041208192D8F04120819558FBF
:101B63000412081929F90312081950F90312081964
:101B730071F903120819E3F90312081995FB03120B
:101B83000819AEFB03120819C5FB03120819CEFB93
:101B930003120819ECFB03120819F6FB03120819C8
:101BA30000FC0312081913FC0312081968FC031242
:101BB3000819A1FC03120819CFFC0312081920FD10
:101BC300031208196CFD0312081987FD0312081983
:101BD30091FD03120819A2FD03120819E8FD03126F
:101BE30008196BFF0112081980B103120819ACB16F
:101BF30003120819CAB103120819DDB10312081937
:101C0300F8B10312081957B20312081985B2031267
:101C1300081994B603120819D9B7031208190BB897
:101C23000312081977B803120819C0B90312081967
:101C3300E8B903120819FDB9031208190DBA031202
:101C430008194DBA0312081999BA03120819A9BA47
:101C530003120819AF7E00120819BF7E001208197B
:101C6300DD7E00120819F87E001208191F7F00128A
:101C73000819407F001208195A7F00120819927F31
:101C830000120819B57F00120819BCFF01120819C8
:101C9300D6E503120819DDE503120819FAE6031263
:101CA30008192AE70312081950E70312081983E7F2
:101CB3000312081995E703120819D1E7031208194B
:101CC30037E80312081973E803120819BAE8031274
:101CD3000819E7E80312081908E9031208196692BC
:101CE30004120819F3FD031208190BFE0312081955
:101CF300F9FE03120819D9FF031208193C8A0412CA
:101D03000819AE8A04120819EC8A041208192D8BDB
:101D13000412081999DE03120819B8DE0312081910
:101D230007DF0312081923DF0312081954DF031214
:101D3300081961DF031208196EDF0312081956E050
:101D43000312081994E003120819A7E103120819F2
:101D5300B2E103120819C4E103120819CDE1031219
:101D63000819D7E1031208197FD503120819A6D958
:101D730003120819B4D903120819F19004120819AF
:101D8300A991041208193A8E04120819648E0412D8
:101D93000819739104120819009204120819489241
:101DA300041208191EDA03120819DAD502120819E7
:101DB30020D402120819D0D10212081957D10212E5
:101DC3000819FED0021208198ED00212081965D024
:101DD3000212081945CE0212081911CE021208196F
:101DE300DECD02120819C2CD02120819DBCC021291
:101DF300081993CC02120819DECA021208195ECA26
:101E0300021208195BCA0212081958C902120819EA
:101E130026C90212081963C8021208198EC60212D3
:101E230008191FC602120819F1C5021208193FDF6B
:101E330002120819F6DE02120819AEDE02120819A0
:101E4300FCDD021208196EDD02120819EEC502123A
:101E53000819DBC50212081986C50212081961DDCB
:101E63000212081975C50212081967C4021208196B
:101E730031C402120819DFC3021208195BDA021215
:101E8300081963F40312081980C3021208194FC317
:101E93000212081917C002120819D7BF0212081933
:101EA300CBBF021208192BBF021208196BBE021214
:101EB3000819EDBB021208197EB9021208193CB9C0
:101EC3000212081910B802120819C5B7021208192C
:101ED30004B702120819D7B6021208191AB6021269
:101EE3000819B0B502120819EAB502120819BDD7CC
:101EF300021208194BFB0200000080FBE473000090
:101F030000000000000000000000000000001010AE
:101F13001010101000003030000000142850000092
:101F230000000000000000000000002828FC2848F2
:101F330050FC505000000000103854543018145412
:101F43005438100000000044A8A8B0541A2A2A44A8
:101F5300000000000020505060ACA898927C000064
:101F630000606020C00000000000000000000004CA
:101F7300080810101010101008080400000040207A
:101F8300100804081020400000000000001010D6C4
:101F93003838D61010000000000000101010FE109A
:101FA300101000000000000000000000000000000E
:101FB300606020C0000000000000FC000000000082
:101FC300000000000000000000000000606000004E
:101FD3000002040404080810102020204000000020
:101FE300003048848484848448300000000000105A
:101FF300701010101010107C0000000000384444D2
:1020030004081020447C00000000003844441804F5
:102013000444443800000000080818284848887C15
:10202300081C00000000007C40407844044444380D
:1020330000000000003C4480B8C48484847800001D
:102043000000007C4448081010101010000000002D
:1020530000788484487884848478000000000078C1
:102063008484848C740488F0000000000000003035
:1020730030000000303000000000000000001000BD
:102083000000001010200000040810204020100859
:10209300040000000000000000FC0000FC00000041
:1020A3000000000040201008040810204000000039
:1020B3000000788484840810100030300000000091
:1020C3000038449AAAAAAAB4423C000000000010B7
:1020D30010282828384444EE0000000000F8444447
:1020E3007844444444F800000000003C4484808069
:1020F300808044380000000000F0484444444444D5
:1021030048F00000000000FC44404878484044FC8C
:102113000000000000FC42404878484040E00000D6
:102123000000003C448480808E844438000000001A
:1021330000EE4444447C444444EE00000000007C30
:10214300101010101010107C00000000007C101004
:1021530010101010101090E0000000EE4448507072
:10216300484844EE0000000000E04040404040404A
:1021730044FC0000000000EE6C6C6C54545454D6C4
:102183000000000000EE64645454544C4CE400001E
:1021930000000030488484848484483000000000B8
:1021A30000F844444478404040E000000000003020
:1021B3004884848484B448380C00000000F8444404
:1021C3007850484844E600000000003C4440201892
:1021D300040444780000000000FE92101010101058
:1021E30010380000000000EE4444444444444438A2
:1021F3000000000000EE44442828282810100000A6
:10220300000000D6545454546C28282800000000C1
:1022130000EE44282810282844EE0000000000EEB9
:10222300442828101010103800000000007C880893
:102233001020204044FC0000001C1010101010104F
:10224300101010101C00007010101010101010103F
:1022530010107000007010101010101010101010DB
:1022630070000010280000000000000000000000C3
:1022730000000000000000000000000000FE0060FD
:102283006020C0000000000000000000000000000B
:10229300000038441C24443E0000000000C04040BD
:1022A30078444444447800000000000000003C44AB
:1022B3004040443800000000000C04043C44444403
:1022C300443E000000000000000038447C404438D5
:1022D30000000000001C2420F820202020780000AB
:1022E3000000000000003C484830407844380000BB
:1022F30000C040405864444444EE00000000001015
:10230300000070101010107C000000000008000096
:102313003808080808080870000000C040405C48FE
:10232300507048EC000000000070101010101010E6
:10233300107C0000000000000000F854545454D6F0
:102343000000000000000000D864444444EE000094
:1023530000000000000038444444443800000000FA
:1023630000000000F8444444447840E000000000CA
:1023730000003C444444443C040E000000000000C0
:10238300EC30202020F800000000000000003C4456
:102393003008447800000000000010107C1010107A
:1023A300100C0000000000000000CC444444443EF4
:1023B3000000000000000000EE4428282810000060
:1023C300000000000000D6545454282800000000E8
:1023D30000000000DC48303048EC00000000000042
:1023E3000000EE442828101020E000000000000048
:1023F3007C481010247C00001010101010101010D6
:1024030010101010101000013636010100010201F6
:102413000001030100010401060605020000070193
:1024230000340801000F090401010D0100FF0E082B
:10243300000017020000190100FF1A0100011B012F
:1024430000FE1C0100081D0200001F010001200105
:102453000001210200002301000F240200002601D5
:10246300000127010008280200FF2A0100072B01B1
:1024730002402C0100002D0100012E0100012F015B
:1024830000FF30010B1C310800003A0100083B013A
:10249300000F2F0100000101710101010101110170
:1024A30001013101010101018001100161013B00C2
:1024B30014006301730172016201430100011301FE
:1024C30006013D0135000401120100010001000174
:1024D300000104010401330133013C0144013201D1
:1024E3003600000100016501000135008101000192
:1024F30005018201830100010302710230016002C0
:102503001102700201020202020280021002610241
:102513003A00410063027302720262024302000244
:102523001302380000020002040212020002000239
:102533000002000204020402370037003C02440296
:102543000002390000020002650200023502810226
:1025530000020502820283020002030071003001BF
:10256300600011007000310220035004800010004D
:1025730061000000140063007300720062004300F6
:102583000000130006000000000004001200000019
:1025930000000000000004000400370037003C0284
:1025A300440000000000000000006500000035004A
:1025B3008100000005000000830000000103710397
:1025C30001030103010301030103220302030103C6
:1025D30010030003000300030003000300030003D0
:1025E300420300032403060300030003040312034E
:1025F3002503230325032303040304030003000328
:1026030000034403000300032303000365032100C5
:1026130035038103000305030003000300030304E0
:10262300710402046004110470040204020401042E
:1026330002041004610400041404630473047204A8
:1026430062044304000413040604000400040404A5
:102653001204000400040004000451046400000494
:10266300000400044404000400040004000465049E
:102673000004350481046400050400048304000499
:10268300C9EEDBDACAD0B0B2C1AAB5C2BFC6BCBC00
:10269300D3C3BBA7B5C7C2BCD5CABAC5C3DCC2EBDB
:1026A300C8B7B6A8C8A1CFFBD7A8D2B5D7A8D7A219
:1026B300CEDECFDFCDA8D1B6B3CFD0C5C1A2D7E38D
:1026C300B4B4D0C2D6C2D4B6C7BFB4F3D4ADA3BAE0
:1026D3000036000100060000000F000000000000AB
:1026E3000000000000000003FFFF00000403FFFFE1
:1026F3000000FFFF0FF4010005C4040320000100E4
:10270300030B000000000000000003010F00004065
:10271300181300E017010040180200AA170300B0C5
:10272300170400B6170500BC170600C817FFFF0003
:102733000001D20D06020E08FC0D0B0E0E104E0DFD
:1027430002D80D05F00D07DE0D0CB40D0DC60DFFFF
:10275300000003EAF5E5D5D5C5B5A595958585753D
:102763007565655555454535352525151505DA1125
:102773000A12E011E6110412F811F21110121612E6
:102783001C122812EC11D411CE1100160F00000BED
:10279300150B020002220F32000006C412D612DC0F
:1027A30012A411E2129E11AA111E133C1342132408
:1027B3001330132A13DE10D81014111A110E11C678
:1027C300100C0E020B040B0A0708000F00383C3EE6
:1027D300363B3B352B432C000119161816161523CF
:1027E300030000034948424D1817250502303017EE
:1027F300181921301B1D1F30303016181920231AC9
:102803001C1E301213E812EE12FA12F412FE1122F9
:102813001236132E123412020402010101010902BD
:10282300EA10F010E4102011000000000000F61080
:10283300081100BE040A15000E0004007F00E8031F
:102843000C00280000000000090308100C0A03080C
:102853000900040001FF1E1E0C050408100FC082AE
:10286300C0838A828B83E0D2E7F012170E0239D835
:10287300C082C0837900122D2D125A44C082C083B6
:102883009003341247CAD083D082C3E09CA3E09D57
:10289300500C126118FAA3E01228A460010902394E
:1028A300D8FBEA75F00BA4FAA8F075F00BEBA4289B
:1028B300FB900336E02AF8A3E03B8882F583E054DB
:1028C3000F2274F71203658908122D2D122DD3AC34
:1028D300F075F00BE9A42CF9900336E028FEA3E091
:1028E30039FF7401650860067402650870208A82E6
:1028F3008B83122DBF123AA674026508701B122C2B
:102903007E122E0670138E828F83E4F0800BEA24EE
:1029130003FCEB122DA1122DADEEFAEFFB120ADE32
:10292300023A1074F4120365126A3F79008E828FA3
:1029330083E06076890A890B8065E50A75F00BA44C
:10294300FAA8F075F00BE50B1228B17046E50A758D
:10295300F00BA4F8AAF075F00BE50B122DE58E82AF
:102963008F83E0850882850983122EC785088285B7
:102973000983A3123AA6EE2403FCEF122DAA1239FF
:10298300DF1254BEAA08AB09120ADE7901900334A0
:10299300124ED3E50A2401F50AE50B3400F50B12B8
:1029A3002C86E50A9AE50B9B4090023C5074F51285
:1029B3000365EAFEEBFF740B120AA11239E4750AF0
:1029C30001EC4D602BEC126A5BED125A44123A9EF5
:1029D3007901120AEAE5084509606F8508828509CD
:1029E30083A3126A497902AA08AB09120AEA805A38
:1029F300E5084509602B125A481241121239E012B8
:102A03002DF0700CEEFAEFFB120AF0E9F50A80CB19
:102A1300EE2403FA122D2870317903EEFAEFFB80CE
:102A2300CA8E828F83A3E064FE7003A3E0F4700B6D
:102A3300EE24030A0A0A122D28700CEEFAEFFB1299
:102A43000AF0E9F50A8003750A00A90A7F03020563
:102A5300C374F7120365900334123A20EA4B602FD4
:102A6300EA75F00BA4FAA8F075F00BEBA428FBEAC7
:102A7300FEEBFF121534900336123A209003361200
:102A83004D186012EEFCEFFD790012149880079048
:102A93000336E4F0A3F0023A10900334124482C3E5
:102AA300EE98EF9922C082C083EC4D6005121D0E93
:102AB30080097C087D0079001214980239D874F6D5
:102AC3001203657900EA4B601878008808125D8B61
:102AD300EB12611460047901780808E8C394084094
:102AE300EA023AAF74F712036574F31208DFECFEDF
:102AF300EDFF851882851983E4F004120AA1EAF038
:102B0300A3EB1252447403120AA1AC82AD83EEFA12
:102B1300EFFB120B02EEFAEFFB120B08023A0B74F7
:102B2300F712036574F31208DFECFEEDFF851882DC
:102B3300851983E4F0EAFCEBFD7403120AA1122E5B
:102B4300C07401120AA1123A9A8E828F83123AA696
:102B530074FE68700374FF69600479018002790070
:102B6300023A0B74F7120365EAFEEBFF122BC470F3
:102B730014122BCF8E828F83E0F4F88A828B83E04A
:102B830058F0120ADEA908023A1074F7120365EA34
:102B9300FEEBFF7508008E828F83E06022122BC448
:102BA300701D122BCF8A828B83E08F838E82F8E095
:102BB30058700CE0F88A828B83E048F0120ADE80BA
:102BC300C4120AE4E9F5087401650822126A541272
:102BD3002DD7122D19FAA3E039FB2274F4120365E1
:102BE3008A088B097C007D00122C7E122DAD122DDC
:102BF3003E126A467900850882850983A3E064FE54
:102C03007003A3E0F460717E007F008062EEFAEF50
:102C13001228A46057EEFAEFFBEA75F00BA4FAA8AA
:102C2300F075F00BEBA428FB900336E02AF50AA31A
:102C3300E03BF50B850882850983A3125192850A2F
:102C430082850B83A3E06A7003A3E06B701EE50A21
:102C53002403FAE50B122D29700AE50A2403FCE587
:102C63000B122DAA122D327901125A5A12361D1245
:102C73002C86EE9AEF9B4095023C50EA24030A0A05
:102C83000AEB22900334125631C32274F312036504
:102C93008A088B098A828B83A3126A49122D2D120B
:102CA3006A46750C00122C7E122D2970547E007F0B
:102CB300008049122D0BFAA3E0398A82F583E05490
:102CC3000F6036122D0BF50AA3E039F50BE50A2444
:102CD30003FCE50B122DB43400FB121D08E964015B
:102CE3007017850A82850B83A31256F2A3123AA6A4
:102CF300122D32750C01125A5A12361D122A9C409B
:102D0300B2A90C7F050205C3EEF8EFF9E875F00BE5
:102D1300A4F8122D1922AAF075F00BE9A42AF99050
:102D23000336E02822EF122E0022126A5AEB2212F7
:102D33002D3E125A55EEF0A3EFF022E508126A5B1E
:102D4300E5092274F5120365EAFEEBFF8E828F8399
:102D5300A3126A497C007D00EE24030A0A0AEF12DB
:102D63002DADEEFAEFFB120AE4E9F50A7401650AE8
:102D73007029126A54122DD3AAF075F00BE9122DA3
:102D8300E5850882F583122DBF122DF0700DE5083D
:102D93002403FCE509122DA1122DAD022A4D3400A6
:102DA300FDEE2403FAEF22122DB43400FB120B02C2
:102DB300223400FDE5082403FAE50922A3122DC4F9
:102DC30022122DC822E0F8A3E0F98E828F83A3227A
:102DD300122DD7223400F583124486E875F00BA434
:102DE300F822122D1FF508A3E039F50922E8F0A314
:102DF300E9F0E5082403FAE509122E0022122E0653
:102E03006401223400FB120B08E92274F3120365F8
:102E130074E61208DF126A3F750C01750800750924
:102E230000750A00750B00851882851983E4F0EE9E
:102E33002403FCEF3400FD7403120AA1122EC0E92F
:102E430064017023740B120AA1123A9E7401120AD0
:102E5300A11251967003A3E0696051851882851908
:102E630083858208858309740D120AA1E4122EC793
:102E7300740E120AA1123AA6740D120AA1AA82AB09
:102E830083120B26E96401700B740D120AA185826B
:102E93000A85830B780A120851AC08AD09EEFAEFE4
:102EA300FB120AF67402120864E9F50CEEFAEFFB62
:102EB300120B20A90C741A120864022D0612319306
:102EC300120B2C22123A1B12448222C082C0837836
:102ED3000079008003122FBE122C86E89AE99B50DA
:102EE30029E8FAE9FBEA75F00BA4FAACF075F00BEC
:102EF300EBA42CFB900336E02AFCA3E03B8C82F589
:102F030083E0540F70CF7900800279010239D8C071
:102F130082C0839028391244D8EC75F012A4FCA81F
:102F2300F075F012EDA428FD79FF7A2A7B0B1214B9
:102F3300980239D874F7120365E9FEEAFF7A007B39
:102F430000780079008028E8FCE9FDEC75F012A414
:102F5300FC85F00875F012EDA425081233D3C39E47
:102F6300400AE0FCEFC39C40031234F2122FBE125E
:102F730033C740D3023A10C082C0837800790080FF
:102F830003122FBE122FB2501F1233D7F470F2E880
:102F930075F012A4F8AAF075F012E9A42AF9742ABC
:102FA30028FA740B39FB80047A007B000239D8902D
:102FB3002839123488C3E89AE99B22E8240108E9F6
:102FC3003400F92274F012036574F31208DF8A0ADD
:102FD3008B0B8C0C8D0D8908EC450D6016AA0CAB80
:102FE3000D120B7A8A0E8B0FAE0EAF0FEE4F6003EE
:102FF300023085120B508A0E8B0FA80EA90FE8FE24
:10300300E9FFE849607C9028491230E760227403A5
:10301300650860067404650870167A047903120B58
:103023004A9028491230FE40077A007B000230E4C0
:103033009028471230E7601B74016508600674022C
:103043006508700F7A027901120B4A9028471230F3
:10305300FE50D68518828519837401F0120AA112D5
:1030630054BEAC0CAD0D7403120AA112318C740B57
:10307300120AA11239EC123E86E41254A612101E53
:103083008004EE4F604A780074FF2508C39404500F
:103093000278048E828F831254BE8E828F83A3A301
:1030A300A3A3E508F0E88E828F83A3A3A3A3A312AF
:1030B30054C612021412349F8E828F83A3A3A3A338
:1030C300A3A3A3F0123496120A7E125A3E120A8A5E
:1030D3001230EC4005901086E4F0120EF8EEFAEF91
:1030E300FB02448C1255E049227A047900120B4A00
:1030F3009028391260FAEA98EB99221231177583F6
:1031030028758239E493C398F8A3E49399F9C3EA41
:1031130098EB9922E493F8740193F92274F2120361
:103123006574F31208DF8A088B09ECFEEDFF750A5C
:1031330000EEFAEFFB120B7A8A0C8B0DA80CA90D8B
:10314300E849603E88828983E065087004A3E065EE
:1031530009602F88828983A3A3A3A3E0C3940550A6
:10316300211258EC8518828519837401F0120AA183
:103173001258F0EEFCEFFD7403120AA112318C75A4
:103183000A01A90A740D024F8A123193120B3822D5
:10319300AA82AB83120B02851882851983AA82AB9C
:1031A300832274F61203651231E1600FA3A3A3A374
:1031B300E014C394045004790180027900023AAF09
:1031C30074F61203651231E1600FA3A3A3A3E01405
:1031D300C394025004790180027900023AAF120BC2
:1031E300748A828B83E58245832274F61203651207
:1031F30031E1600BA3A3A3A3E070047901800279FA
:1032030000023AAFC082C083EAFCEBFD7A007B0088
:103213000239D5C082C0837C007D000239D574F4A5
:1032230012036574F31208DFEAFEEBFF8C0A8D0BC1
:10323300C3EC94F8ED94FF4007EE4F70030232DACB
:10324300750800750900802E85188285198374011D
:10325300F0123645120AA112365360137403120A90
:10326300A1AC82AD83EEFAEFFB121D08E97049E5CC
:10327300082401123473902839E41255E8E50898BC
:10328300E509995052E50875F012A4F8AAF075F013
:1032930012E509A42AF912612D60D4EE4F70A974C6
:1032A300FF650A700474FF650B60C4123635650A46
:1032B3007004A3E0650B70B7E50875F012A4F50878
:1032C300A8F075F012E509A428F509742A2508FA6F
:1032D300740B3509FB80047A007B00023C4B74F4C9
:1032E30012036574F31208DF750800120B7A8A0A59
:1032F3008B0BAE0AAF0BEE4F602A851882851983BC
:103303007401123A15F8A3E0F9740B120AA1123BE7
:1033130029120B1A7C127D0079FFEEFAEFFB1214CF
:10332300987508011230EC50099010867401F01260
:103333000EF8A908023C4B74F7120365E9FE74FE0C
:103343006A700374FF6B7800790070058052122F46
:10335300BE1233C7504AE8FCE9FDEC75F012A4FC39
:10336300AFF075F012EDA42F1233D3F460E0E8FC54
:10337300E9FDEC75F012A4FC75F012EDA42FFD74B9
:103383002A2CF582740B3DF583E06A7003A3E06B8E
:1033930070BC80091233D714C394044017122FBE94
:1033A300122FB25018EE70EC1233D764016005E0AF
:1033B300640370E9123626FAA3E0FB80047AFE7BED
:1033C300FF023A109028391244DCC3E89CE99D229D
:1033D30012352722E8FAE9FBEA75F012A4FAACF0F9
:1033E30075F012EBA42CFB742E2AF582740B3BF5BB
:1033F30083E022120B8C0239D8C082C0837901800A
:10340300F274F01203658A0A8B0B7A047901120BAA
:103413004A8A0C8B0DEA450D603EEAC333FAEB335F
:10342300FB1215348A088B09AE08AF09EE4F6023EF
:103433007AFE7BFF120B9274FE6A700374FF6B605B
:103443001B850882850983123A20E5082402123479
:103453007380E1750C0080047E007F00850A8285FD
:103463000B83E50CF0EEFAEFFB024491E508240729
:10347300F508E5093400F509229028391244DCC324
:10348300EA9CEB9D22E493FA740193FB2212148CC1
:10349300740322125A4FE4F090863F22E88E828F03
:1034A30083A3A3A3A3A3A3A3A31234C174011234BC
:1034B300C1A3F0EE2410125A52E4F0A3F022123EFC
:1034C30092A3A3A322C082C0837A007B0080041945
:1034D3001234F212347C5010123511C3940550F09B
:1034E300E970EC1234FB80047A007B000239D8EADD
:1034F30024010AEB3400FB22EA75F012A4FA75F0FA
:1035030012EBA428FB742A2AFA740B3BFB22EAFC75
:10351300EBFDEC75F012A4FCA8F075F012EDA428F5
:1035230012352722FD742E2CF582740B3DF583E0B2
:103533002274F712036574F31208DF7E007F000222
:1035430035D9E50875F017A4F8A9F012638EFAA32C
:10355300E0FBEEF8EFF9E875F012A4F8ACF075F0C3
:1035630012E9A42C1236346A7003A3E06B603FE5C2
:103573000875F017A4F8AAF0EA12638DF8A3E0F92E
:103583007401120AA1E0687003A3E0696020E508F2
:1035930075F017A4F8EAF974A628FC740C39FD74C5
:1035A30003120AA1AA82AB83121D08E96014E5087D
:1035B30075F017A4F8A9F074A428FA740C39FB1257
:1035C300102A050890284EE493F8E508C3985003A1
:1035D30002354512361D9028391266D45039EEF85B
:1035E300EFF9123626F47003A3E0F460E68518823F
:1035F3008519837401F0EEF8EFF9E875F012A4F879
:1036030075F012E9A42AF9123645120AA1123653AB
:1036130060C175080080AD023A0BEE24010EEF3451
:1036230000FF22E875F012A4F8AAF075F012E9A4DD
:103633002AF912363922742A28F582740B39F58354
:10364300E022742C28F582740B39124480740B2207
:10365300E8F0A3E9123B31120B32E922C082C083A6
:1036630090033D74EAF0A3740DF090033F74E4F00B
:10367300A3740DF09003437404F0A3740CF00239A7
:10368300D874F7120365EAFEEBFF900377E0640852
:10369300601BE0640460168E828F83E05403640130
:1036A30070481239DF123F87E06406703D8E828FC7
:1036B30083A3A3E064FE7003A3E0F4602D8E828FE6
:1036C30083A3A3123A9A900368E0687003A3E069A6
:1036D300700BEE2415F582EF1261146008120E9838
:1036E300E9F5088008120E9E80F67508C2EEFAEF1F
:1036F300FB12153A022B8874F41203658A088B09AE
:103703008A828B83E0F8A3E0FAE82AFAE43400FB28
:103713001215348A0A8B0BAE0AAF0BEE4F6063852A
:103723000882850983E0FC7D0079001214988E825B
:103733008F83A3A3126A49120EDA8E828F83A3A307
:10374300A3A3123A20850882850983E0F8EE28F8BE
:10375300EF3400123AA2850882850983A3E0C0E012
:10376300EE240D125A41D0E0F0120EECEE240E12AC
:103773005A41E91250F3E0C0E0EE2411125A41D04D
:10378300E0F0EEFAEFFB023C5074F612036574EBC3
:103793001208DFEAFEEBFF124D1560030238307AA0
:1037A300077B00121534900339123A20124D15602D
:1037B300788E828F83120A7E90033A123F8A120A0E
:1037C3008A12690DC0E012383CD0E0F0EE2405FA0D
:1037D300EF3400FB8A088B098A82F583E0C0E0128C
:1037E3003837D0E0123C47E0C0E0123837A3D0E0CE
:1037F300123A8C120A7E851882851983120A8A88E6
:10380300828983E0C0E07405120AA1D0E0F0850844
:1038130082850983E0C0E07404120AA1D0E0F07449
:1038230007120AA112397280067910800279017495
:1038330015023AAC12383CA322900339E0FAA3E014
:10384300F5838A82A3A3A3A322C082C083124D154A
:10385300600D90033912561F900339E4F0A3F01260
:103863000E08120FCA0239D874F012036574EB12F2
:1038730008DFECFEEDFF89087425120AA1780C120B
:103883000A447429120AA1E0F9742A120AA1E0FC7D
:10389300742B120AA1E0FD740F697005740F6C603C
:1038A300129010DAE06402700579C102396DE9C340
:1038B3009C40F6900378780C120A62E50890037E28
:1038C300F0E990037CF0ECA3F0ED90037FF074FF3C
:1038D3006A700374FF6B701D9010E5E0F47003A32E
:1038E300E0F470051214AA800C9010E51239F5E883
:1038F300F0A3E98007900375EAF0A3EBF0EE4F60C5
:1039030017EEFAEFFB12108AE96401700BEEFCEF7D
:10391300FD7A897B03121D0E900368E4F0A3F090F7
:10392300036BF0A3F0900388F09010DAE064027068
:103933000890037C740FF0A3F09003777405F014E0
:10394300120AA1E4F0900378120A7E851882851981
:1039530083120A8A90037EE0C0E07405120AA1D0A4
:10396300E0F07407120AA1123972741502448EE44E
:10397300123B31121D3822C082C083900338E0709D
:10398300031217DA120BD4804CC082C08390033821
:10399300E09010857004E4F0802D7401F0900338FA
:1039A300E0F460237C41E0C394415002E0FCECF876
:1039B300E0C398F0EC75F0E8A4CCA8F075F003A48C
:1039C30028FD7A801244E47A857B107941121D2602
:1039D3008003120B80D083D082020816EE125A5055
:1039E30022E0F508A3E0F509221239F022122DC8CE
:1039F300A3221244829003752274F7120365EB909D
:103A0300037FF0120DF68005740D1208647F010226
:103A130005C3123A1BA3E022123A8CA322EAF0A3B5
:103A2300EBF02274F712036574F81208DFEAFEEB79
:103A3300FF7900900377E064087044851882851944
:103A43008374FDF0A374FFF0120ED47402120AA162
:103A5300123A207405120AA1E4123A1BE0C0E07482
:103A630004120AA1D0E0123A87C0E07406120AA138
:103A7300D0E0F07407120AA1E4123B2D120F167462
:103A830008023A0D123A8CE022F08E828F8322F0E4
:103A93008518828519832212448222E0F8A3E0F973
:103AA300125A4FE8F0A3E9F0221208647F020205DC
:103AB300C3C082C0839003497494F0A3740CF09044
:103AC30003EF7470F0A3740FF090034D74CAF0A366
:103AD300740CF090034F7494F0A3740CF0900351A2
:103AE30074D0F0A3740CF00239D874F41203657423
:103AF300F91208DF8A088B098C0A8D0B85188285D9
:103B030019837808120A627404120AA1E9F0740591
:103B1300120AA1E4F07406120AA1E4123B2D120B5F
:103B2300BC7407023C4DE8F0A3E9123B3122123A80
:103B330092AA82AB832274F41203658A088B098AE2
:103B4300828B83125A5DEE4F7003023C4590031241
:103B5300124D1860158A828B83A3A3E0F9EEFAEF66
:103B6300FB900313123F8A121EFF8E828F83A3A33F
:103B7300A3A3A3A3A3A3A3E0640270748E828F8381
:103B8300A3A3A3A3A3A3E054027003023C178508D5
:103B930082850983A3A3E064E960798E828F83A37E
:103BA300A3A3A3A3A3A3A3A3A3E070149010DDE096
:103BB300048E828F83A3A3A3A3A3A3A3A3A3A3F08E
:103BC3008E828F83A3A3A3A3A3A3A3A3A3A3E0147E
:103BD300123C47A3A3A37404F09010DE125498E898
:103BE300F0A3E91265718B0BEA450B7003125F4F6B
:103BF3008E828F83A3A3A3A3A3A3A3A3A3E064029F
:103C030060128E828F83A3A3A3A3A3A3A3A3A3E082
:103C13006406702E8E828F83A3A3A3A3A3A3E0A223
:103C2300E0501F850882850983A3A3E0F9EEFAEF2C
:103C3300FB121DE08E828F83A3A3A3A3A3A3E0544F
:103C4300FEF08009123E8E22740D1208647F040276
:103C530005C374EC12036574DD1208DFEAFEEBFFA3
:103C63008C088D097437120AA1780C120A44750A5C
:103C7300007405120AA1AC82AD83120ABA7412123F
:103C83000AA1E070087415120AA1E06020740512FD
:103C93000AA1E0A2E6501E8E828F83A3A3A3A3A34F
:103CA300A3A3A3A3125192120F4CE9600879031244
:103CB3001CF6023E747405120AA1E0540C640470ED
:103CC30005750B018003750B00E0A2E55035750AFD
:103CD30001E50BA2E0402C120EDA8A108B11A8101A
:103CE300A9111239DFE0687003A3E0696015740558
:103CF300120AA1126A5012518E121DECE960047966
:103D03000480AC7405120AA1E0A2E65022740612E4
:103D13000AA1E0540370187405120AA1E0540C645C
:103D23000C600CE0540C6408600575100180037589
:103D330010007405120AA1E05403F8740268700CB1
:103D4300126A5012518E120ACC023E7474016870CA
:103D53003AE510A2E05003123E7C7405120AA1A8B2
:103D630082A9837403120AA1E8F0A3E912447685B9
:103D73001882851983123E86E0C0E07402120AA1FC
:103D8300D0E0123B2D121ED0023E74E86003023EC7
:103D93007490035FE0640170108E828F83A3A3A3EA
:103DA300A3A3A3E07003023D027422120AA17402CA
:103DB300124476741A120AA1123AA6E510A2E05030
:103DC300087405120AA1123E7CE50BA2E0506AEECC
:103DD300240FF582EF126114C0E07417120AA1D008
:103DE300E0F0900314124D187003023E74120EDAC1
:103DF3008A128B13A812A913741A120AA1E068700D
:103E030003A3E069706B780C120849780A1208550D
:103E13007808120851A910740C120AA1AC82AD8360
:103E23007421120AA1AA82AB83900314123F871252
:103E33001EFF74071208648038780C120849780A48
:103E4300120855780812085190037512067DEE2466
:103E530012F582EF125E427423120AA1AC82AD8383
:103E6300740E120AA1AA82AB83121DD4740912081C
:103E730064742312086402653C126A5012562D12B0
:103E83000AC022E8F0A3E9123E8E22123E9222F0EB
:103E93008E828F83A3A3A3A3A3A32274F712036524
:103EA3001216C6023A1074F71203651216CC023AC0
:103EB3001074F71203651216D8023A10C082C08339
:103EC3001216D20239D874F71203651216DE023ABB
:103ED3001074F71203657409120AA1E0F508780853
:103EE3001208551216EA7401023A0DC082C08312F9
:103EF30016F60239D8C082C0831216FC0239D87470
:103F0300F7120365121702023A1074F7120365EAF7
:103F1300FEEBFF89087401650870147900120D0C1B
:103F2300902859E493FC7900EEFAEFFB120C82021D
:103F33003A1074F412036574F91208DFE9FE8A0873
:103F43008B098C0A8D0B7413120AA11251929005DE
:103F53009D124D186027EE851882851983F0740130
:103F6300120AA17808120A62EAF8EBF97405120A38
:103F7300A1123B2990059D123F87121EFF023B248D
:103F8300FB90034BE0F8A3E0F583888222C082C054
:103F9300831217320239D874F7120365901088E040
:103FA300F97E00800B126100540D64017001190E3B
:103FB3001241945003E970ED023A1074F71203654D
:103FC300901089E0F97E00800B126100548D6481AA
:103FD3007001190E1241945003E970ED023A107406
:103FE300F2120365890BE975F006A4240CF508E5C4
:103FF300F01234778A0CE508250CFAE5093400FB46
:104003001215348A0C8B0DAE0CAF0DEE4F6027AC3E
:1040130008AD0979001214981239DFE50BF0EE258B
:1040230008F8EF3509F98E828F83A3A3A3A3A3A373
:10403300A3A3A3123AA6EEFAEFFB024F8D74F61276
:104043000365EAFEEBFF120C5E901087E0F8E9C30C
:10405300984009900345125192120C64EE2402F821
:10406300EF1257A290034712565C900347E004F007
:10407300EEFAEFFB120C6A850882850983E0025C85
:1040830058C082C083790090034580010912519280
:104093008A828B83E582458370F20239D874F712E2
:1040A3000365EAFEEBFFEE4F6056900345124D1891
:1040B300604E888289837A007B00EE65827003EF0D
:1040C3006583600FAA82AB83124106E58245836054
:1040D3002F80E7900345124112687002EF698E82C8
:1040E3008F837008123A9A900345800312654E122B
:1040F3003AA6EEFAEFFB121EA0EEFAEFFB12153A08
:10410300023A1012410A22124486888289832212BB
:104113004482EE22C082C083900345800488828952
:1041230083124D18600B888289831247CAEC4D7045
:10413300EC8A828B83E4F0A3F0E8496006888289E5
:10414300838003900345123A200239D874F712038F
:104153006590034580048A828B8312418F4B6025CF
:104163007E0080010E12419450ECEE75F006A4FC23
:10417300ADF0EA2CFCEB3DFDEC2410F582ED124191
:10418300E470E180047A007B00023A10125631EAAF
:10419300221241EDEEC3982274F71203657D00806D
:1041A300010D1241E9EDC3985034ED75F006A4FEFC
:1041B300A8F0E8FFEA2EFEEB3FFFEE2410F582EFB6
:1041C3001241E470DCED75F006A4FEE8FFEA2EFA76
:1041D300EB3FFBEA2411F582EB1261144CF0023A37
:1041E3001012612069221241ED22126A5AEB340047
:1041F300F583E0F82274F6120365120D847A007BCE
:10420300008025EAF8EBF9E875F006A4F8ACF07540
:10421300F006E9A42C12560612691BA3E41256FCFD
:10422300F0A3126921126A989028431230F640D302
:104233007A007B00801C8A088B09740378081209B2
:10424300E01250BAA374FEF0A3041254DCA3E412E8
:104253006A9890284D12429740DC7A007B00801DBB
:104263008A088B09740378081209E074CC125D8CF8
:10427300740F1265D374FEF0A304126A9890285346
:1042830012429740DB902857E493900353F0124275
:10429300A1023AAFE493F8C3EA98EB9400227CE8D6
:1042A3007D037A107B009003C2E0F91215EE2274AD
:1042B300F012036574F51208DF8A088B09890A8CEA
:1042C3000BE9A2E050147508FC7509FFA2E1500543
:1042D300D2E4024374D2E3024374124F797003A30E
:1042E300E06970057900024441AC0A7902AA08AB7F
:1042F30009120D60E960EDE50AF50C780C1208551A
:1043030079027CFE7DFFAA08AB09124CF412086403
:10431300E9600302443FE50AC2E5F50A9003B5E00C
:104323007051E50AA2E6404B7403120AA1AC82ADB8
:1043330083AA08AB09120B0EE970321246158A0CD8
:104343008B0DA80CA90DE8FEE9FFE8496025EE24D2
:10435300020A0AEF122E06601AEE2402FCEF340062
:10436300FD7403120AA1AA82AB83121D0EE50AD2C1
:10437300E5F50A900348E0F50C900368E0F50EA319
:10438300E0F50F780E1208517D017C00900348E0A0
:10439300F9AA0EAB0F120D187402120864E9F89013
:1043A3000348E004F0E8600302443FE50AA2E55055
:1043B30004740E80027406C0E07401120AA1D0E0F6
:1043C300125A6E8A0E8B0FAE0EAF0FEE4F6069124C
:1043D300445F124476888289837401F07478550AA5
:1043E300A3126A60E50C126A60A3E508F0E50912FE
:1043F300444EE4F0E50AA2E5500F7403120AA1AC9F
:1044030082AD83E824061244458E828F83A3A3746E
:10441300FDF0A374FFF0E50B601590285AE493F8C0
:10442300E50BC3985009EE2413125A41E50BF0EE45
:10443300FAEFFB120BB080067910800279C7740B78
:104443008049FAE93400FB121D0E2288828983A376
:10445300A3A3A312445A221257D5A322EE24171260
:104463005A527401F0120ED4EE241A125A52EAF080
:10447300A3EB22F0126A54340012448022F5831213
:10448300448622E0F8A3E0F922740D1208647F0841
:104493000205C374F61203657A007B10125F5C6039
:1044A300089003D47401F0802990063EE0640190E3
:1044B30010DB7006E0FC79018004E0FC79037A00EC
:1044C3007B00120C829028411244D87A007B101290
:1044D30044E6023AAF1244DC22E493FC740193FDF8
:1044E300227B009003C2E0F91215E82274EC120358
:1044F300658A088B098C0C8D0D890E7414120AA120
:10450300124ED37416120AA1E0F510A3E0F51112AE
:104513000F4CE960077AFF7BFF0246129010DAE046
:10452300640260030246057900AA08AB09120D660E
:10453300A90E120D5A8A128B13AE12AF13EE4F70DF
:10454300030245ED8E828F83A3A3A3A3A3E064019B
:104553008E828F83A3A370691251928E828F83A35D
:10456300A3A3A3A3A3E054186043902858E4938E15
:10457300828F83A3A3A3A3F0EA650C7003EB650DFD
:104583006014EA650A7003EB650B600AEA65107054
:1045930003EB6511701F7810120851AC0AAD0BAA1A
:1045A3000CAB0D1210487402120864800890036764
:1045B300125F46A3F074FE6A700374FF6B601D8084
:1045C3004EA3A3A3E0640360298E828F83A3A3A3D6
:1045D300A3A3E0640470057AFE02451A8E828F83DA
:1045E300A3A3A3A3A3E0640270089003B4E064024E
:1045F30070101246158B0BEA450B6006AA08AB092F
:10460300800DAA08AB09900349123F87121EFF02CF
:10461300653C900375124CFA12100C2274F71203C6
:1046230065EAFEEBFF120B62E9700AEEFAEFFB128A
:104633000B6EE96006EEFAEFFB80047AFE7BFF0265
:104643003A1074F01203658A0A8B0B8C0E8D0F8956
:1046530009750800120F4CE9790060030247BCAAF0
:104663000AAB0B120D66A909120D5A8A0C8B0DAEFB
:104673000CAF0DEE4F60198E828F83A3A3A3A3A368
:10468300E0640270559003B4E0640270030247BA19
:10469300AA0AAB0B90034F123F87121EFF120B7433
:1046A3008A0C8B0DA80CA90DE84970030247BA8840
:1046B300828983A3A3A3A3A3E0A2E040030247BA92
:1046C300750C01A2E150687901AC0AAD0BAA0EABDF
:1046D3000F120CB2E970640247BA8E828F83A3A3D0
:1046E300A3A3A3E064037005750C0280528E828F2E
:1046F30083A3A3A3A3A3E0640160030247BA9003C7
:10470300751247CA8E828F83124B1F8A0C8B0DA89A
:104713000CA90DE84960D1902851E493FA88828965
:1047230083E0C39A50C2A3E060030247BA80B9880A
:10473300828983A3A3A3A3A3D2E1F0EE4F603A8EB1
:10474300828F83A3A3A3A3A3A3E05418602B7508AC
:10475300018E828F83A3A312067D750CFE750DFF58
:10476300780C1208517900AC0AAD0BAA0EAB0F12EC
:104773000D787404120864803E900368E0650E703F
:1047830004A3E0650F7014902859E493FCA909AAC7
:104793000AAB0B120C82750801801CA90CAC0AAD84
:1047A3000BAA0EAB0F120CB2E9700C750801A90924
:1047B300AA0AAB0B120D0CA908024491E50C2415AF
:1047C300F582E50D125A551254B22274EA120365AA
:1047D30074F01208DF8A0C8B0D8C088D0974261275
:1047E3000AA1E0F514A3E0F5157512069003F5127E
:1047F3004D1860239003751247CAAA08AB0912101B
:10480300368A108B11EA4511600D8A828B83A3E0EF
:1048130070057900024B07E50C241DF50EE50D34F8
:1048230000F50F850E82124D04F51388828983A348
:10483300A3A3E0FA88828983A3A3A3A3E0F9EA24CC
:1048430000FEE439FFAA08AB09120D12850E82851A
:104853000F83124B42E029F50BE50AA2E5500375DD
:10486300120E7487550A70177418550A6418600F6E
:10487300E50C2417F582E50D1261146512600779C2
:1048830001121CF6808C530A78C3EE94F8EF94FF60
:10489300501D7900EEFAEFFB124B116012888289EA
:1048A30083A3A3A3A3A3A3E054186003024815782A
:1048B300081208517D00124B35120864E9F874039D
:1048C300687003024815E860030249807418550AAA
:1048D3007003024A35E50AD2E0F50AA2E45004D295
:1048E300E1F50AA90A12518B124B11605388828990
:1048F30083A3A3A3A3A3A3E054186044888289835A
:10490300A3A3A3A3A3E064017036E51045116030AF
:104913009003751247CA88828983124B1F8A0E8BB4
:104923000FA80EA90FE849601788828983A3E06066
:104933000F851082851183A3125C6350030248150F
:10494300E50AF50E780E120855124B28120864E991
:10495300702B7C007D0085148285158374FFF0A382
:10496300F0850C82850D83A3A3A3A3A3A3A3A3E034
:1049730060031247BFA90B12518B1216F0851482E4
:10498300851583E0F47003A3E0F460399003B4E089
:1049930064027003024815124EC4E0FAA3E0123F0A
:1049A30083121EFFEA65087003EB65096003024882
:1049B30015EEFAEF123F83121EFF851482851583CD
:1049C300EAF0A3EBF078081208517D01124B35127F
:1049D3000864A90AEEFAEFFB120D668A088B09A890
:1049E30008A909900368E0687003A3E06960030203
:1049F3004AF8EEFAEFFB120B748A088B09A808A990
:104A030009E849606E88828983A3A3A3A3E06401B4
:104A1300600D88828983A3A3A3A3E06402705485F5
:104A23001882851983AC82AD83EEFAEFFB120B0E6D
:104A33008055900361E0600FE50AF50E780E1208C9
:104A430055124B28120864E50AF50E780E12085524
:104A530079027CFE7DFFEEFAEFFB124CF412086440
:104A6300E9600302498085148285158374FFF0A3EE
:104A73000249C7120ED4EAFCEBFD8518828519831F
:104A8300AA82AB83121D0E850C82850D83A3A3A37B
:104A9300A3A3A3A3A3E06401700F1247BF7408127A
:104AA3000AA1AA82AB83121D0E124CCE1258DA440D
:104AB30030F50878081208557401120AA185820896
:104AC3008583097808120851740B120AA18582089C
:104AD3008583097808120851E513F5087808120848
:104AE300557900EEFCEFFD12518B120CAC740612DB
:104AF3000864024815124CCE125A44124B42E50B7D
:104B0300F0120EEC74101208647F0E0205C3120D2E
:104B13005A8A0E8B0FA80EA90FE84922A3A3125697
:104B230031121036227901AC08AD09125626124C07
:104B3300F422AC0BA913125626120D18740222127A
:104B430058E2A3A3A3A32274F012036574F012081E
:104B5300DF8A0C8B0DECFAEDFB750F089003F51251
:104B63004D186014125C5C8A828B83E582458360F6
:104B730007A3E07003024CC9124CCE3400124D045B
:104B8300F50B88828983124CD7E0FBEC2400FEE40A
:104B93003BFF88828983A3A3124CD7A3A3E0FBEC3A
:104BA300F508E43BF50988828983A3A3A3A3A3A300
:104BB300A3E0F50EE50AA2E45003750F10A2E55039
:104BC300067408250FF50F748F550A700FE50C2432
:104BD30017F582E50D126114650F60087901121C47
:104BE300F6024CC9530A707800E50AA2E450221277
:104BF3004CCE1261142408FCA3E03400FD740812A7
:104C03000AA1AA82AB83121D0E7808E50AC2E4F555
:104C13000AE50AA2E55028124CCE12611428F8A323
:104C2300E03400F9E82408FCE93400FD85188285A6
:104C33001983AA82AB83121D0EE50AC2E5F50AACFD
:104C43000EA90BEEFAEFFB120D1EE9F87403686070
:104C530075900368E06E7003A3E06F605EE87054C4
:104C6300E50AF50F780F120855124CE5120864E9AE
:104C73007054780A1208557401120AA185820C85B2
:104C8300830D780C120851740B120AA185820C85CE
:104C9300830D780C120851E50BF50A780A120855B2
:104CA300A90EAC08AD09EEFAEFFB120CAC740612B8
:104CB30008648012740468700D80B7780A1208556E
:104CC300124CE5120864741002448EE50C241DF5A1
:104CD30082E50D22A3A3A3E0FC88828983A3A3A377
:104CE300A3227901124ECB125A55124CFA124CF4EC
:104CF30022120CD6740122E0FCA3E0FDAA08AB0942
:104D030022F58312410AA3E0F50A88828983A3A3CB
:104D1300E02290033912568D2274E812036574F56C
:104D23001208DFEAFEEBFF8C088D09891474231245
:104D33000AA1E0F50F7424120AA1E0F512A3E0F52D
:104D4300137426120AA1E0F516A3E0F517742812CE
:104D53000AA1E0F50EA90F120D248A108B1174011C
:104D6300120AA17408F0E50EA2E450037410F0E5F2
:104D73000EA2E55004E02408F0851882851983AA61
:104D830082AB83120F348A0C8B0DEA450D7003023C
:104D93004EABEA2417F582EB124EBD120ED4E50C8E
:104DA300241AF582E50D125A44123A207403120AAA
:104DB300A1AC82AD83AA10AB11120B0EE9601D12D8
:104DC3004EB57403120AA1A882A983E50C2418F531
:104DD30082E50D125A44E8F0A3E98024E50EA2E42B
:104DE300501FE5106E7003E5116F7015124EB5E597
:104DF3000C2418F582E50D125A44E512F0A3E513CD
:104E0300F0124EC4124ED3850A82F5837402F0A3C6
:104E1300E50E124EDBE50FF0EE850A82850B83A3C8
:104E2300A3A3F0EF850A82850B83A3A3A3A3124E4A
:104E3300DBA3A3A3E508F0E509850A82850B83A319
:104E4300A3A3A3A3A3F0AA10AB11120D12E9251477
:104E5300850A82850B83A3A3A3A3A3A3A3F0750849
:104E630000E50EA2E45011AC12AD13E50A2408FAD2
:104E7300E50B124447750808E50EA2E55014AC167D
:104E8300AD17E50A2508F8E50B3400F9E824081204
:104E93004445850C82850D83A3A3E510F0A3E5119A
:104EA300F0AA0CAB0D120BB0740B1208647F100246
:104EB30005C3E50C2416F582E50D125A557401F06D
:104EC30022124ECB125A5522E50C126A5BE50D22D3
:104ED300E0F50AA3E0F50B22F0850A82850B83A394
:104EE300A32274F21203658A088B09ECFEEDFF8995
:104EF3000A7900124F797003A3E069700479018085
:104F030073750B01900368E065087004A3E06509FD
:104F1300601F750B00780B120855A90AEEFCEFFD14
:104F2300AA08AB09120F887401120864E9F50B8013
:104F3300417900EEFAEFFB120D5AEA4B602B8A829D
:104F43008B83A3A3A3A3A3A3E05418601C7508FE3B
:104F53007509FF78081208518A828B83A3A312066E
:104F63007D12687012086480097901EEFAEFFB1272
:104F73000C34A90B8014120D668A0C8B0DA80CA996
:104F83000D900368E068221208647F060205C3746B
:104F9300F412036575081475090E7A101265788B7F
:104FA3000BEA450B70031242A1900353E014F07017
:104FB3000C902857E493900353F0120D727E007FF8
:104FC30000806C850882850983A3A3A3A3E06059AD
:104FD300F46056E5082404F582E509125F40704940
:104FE300850882850983A3A3A3A3A3E0640370199F
:104FF30079028508828509831247CA850882850953
:1050030083A3A3125192120CB2850882850983A34C
:10501300A3A3A3A3E06401601085088285098374B8
:10502300FEF0A3041250ECE4F012361D12346F901C
:1050330028451266D4408C7E007F008039120E7A98
:105043008E088F09740378081209E0748C2508FC14
:10505300740F3509FD7ABE7B0C120E68EA4B70DDC6
:105063008E088F09740378081209E01250BA126986
:105073001BE4F012361D90284DE493F8C3EE98EF2D
:105083009400501B8E088F09740378081209E012EC
:1050930050C2E82407F582E9125F4070D680A17EF2
:1050A300007F00800A1250CD600214F012361D12E8
:1050B30066D140F1023C501250C288828983227427
:1050C3008C2508F8740F3509F922EEF8EFF9E87525
:1050D300F006A4F8AAF075F006E9A42AF9742C28BE
:1050E300F582740F39F583E0221250F3A3A3A322B0
:1050F300F0850882850983A3A32274F712036574DC
:10510300E11208DFECFEEDFF750800EE4F60728AD6
:10511300828B83E0241C125F71124D1860638A82B4
:105123008B83125192851882851983AC82AD83EAF1
:10513300241BF582EB125E42EA241CF582EB12512A
:105143008E120EBC740B120AA11251967003A3E0C7
:1051530069702E7402120AA1E064017024741D1296
:105163000AA1123F87E064017017741D120AA1128D
:105173003F89A3A3E0F88E828F83E06870037508EC
:1051830001A908741F023A0D124ECB3400F58312A5
:10519300563122122DC4E0682274F4120365E970BB
:1051A30024790090034D123F87121EFF8A0A8B0B4E
:1051B300AE0AAF0B74FE6E700374FF6F701A902803
:1051C30054E4936013790190034D123F87121EFF3D
:1051D3008A0A8B0BAE0AAF0B120EF802378574F6F0
:1051E30012036574F31208DF1214AA8A088B09AE3E
:1051F30008AF09900368E06E7003A3E06F60E912E3
:105203000EE0EA6E7002EB6F60DEEEFAEFFB120F58
:105213004CE970D4EE4F60D0851882851983E4F091
:1052230004120AA1EEF0A3EF125244E970BA74FE1D
:105233006E700374FF6F60B0EEFAEFFB740D023A09
:10524300AC123B31120B2622C082C083120EF8022D
:1052530039D87F0A0205C374F2120365EAFEEBFF35
:105263008C0A8D0B8908740E120AA1E0F50974FCEF
:105273006E700374FF6F70057900024F8D79001211
:105283000D668A0C8B0DAE0CAF0D900368E06E704B
:1052930003A3E06F7006E509A2E650DCA9091267D3
:1052A3005E706179007AFE7BFF12675E7056741838
:1052B30055097003025391780079008003122FBEC1
:1052C300902845122FB54003025391E8FAE9FBEA0F
:1052D30075F007A4FAACF075F007EBA42CFB741A75
:1052E3002AF582740E3BF583E0541870D0E875F00C
:1052F30007A4F8AAF075F007E9A42AF9741428F8AA
:10530300740E39F988828983A3A3A3A3A3A3E054CA
:1053130018600974185509700302527B88828983C7
:10532300EEF0A3EFF074FE650A700474FF650B6082
:10533300031254B888828983A3A3A3A3A3A3E50973
:10534300F0A2E0500D88828983A3A3A3A3A3A3D2D1
:10535300E2F07401650888828983A3A3A3A3A370E1
:105363003874011254DCE054186028902858E493F0
:1053730088828983A3A3A3A31254A61210368B0D8C
:10538300EA450D600302527B780079008039790287
:1053930002527D900367E080D7E0640170030252FC
:1053A3007B88828983A3A3A3A3A3A3E054186007E4
:1053B300902858E4938004900366E012444EE50875
:1053C300F002527B122FBE90284EE493FAC3E89A60
:1053D300E99400400302527B7A007B00804BEAFC95
:1053E300EBFDEC75F007A4FCAEF075F007EDA42E11
:1053F300FD74162CF582740E3DF583125A5DE8FC9C
:10540300E9FDEC75F017A4FC85F00975F017EDA420
:105413002509FD74A42CF582740C3DF583E06E70B0
:1054230003A3E06F609E1234F290284512347F404C
:10543300AD1244D8EC6A7002ED6B7088E875F01712
:10544300A4F8AAF075F017E9A42AF974A428FE7445
:105453000C39FF7C177D007900EEFAEFFB121498EC
:105463008E828F831254BE900375125498A3A3A304
:10547300A3A3A3E8F0A3E912549E7401F0EE240E53
:10548300125A4174011254C6120214EE240D125A18
:1054930041E80253C31239F0A3A322F0EE240F1202
:1054A3005A5222F01254AFAA0AAB0B22900375E0B2
:1054B300FCA3E0FD2288828983A3A3E50AF0A3E588
:1054C3000BF022F01254CB22902851E4932401F8DC
:1054D300E43400F97A027B002212445AA32274EDC9
:1054E3001203658A088B09890E12560F4005790548
:1054F3000255DD121738AA08AB091256E19028436A
:105503001255E0650A7003E9650B70077AFE7BFFAD
:105513001256E1902843E41255E8E50A98E50B9901
:1055230040030255DB1255EC6012E50A75F006A440
:10553300F875F006E50B12563712153AE50E6018AA
:10554300E50A75F006A4F8AAF075F006E50B125605
:1055530063701A79010255DDE50A75F006A4F8AA0D
:10556300F075F006E50B125644E4F0A3F0E50A7576
:10557300F006A4F8AAF075F006E50B125604A31280
:1055830058F088828983A3AA82AB831256528A82F7
:105593008B83E0603F1255EC603A8E108F117512C9
:1055A30000781012084DE50EC333FCE433FDE50A21
:1055B30075F006A4F50AA8F075F006E50BA428F526
:1055C3000B7430250AF582740F350B125190123487
:1055D3009012086479008002790702677412311708
:1055E300E8229028391260FB22E50A75F006A4F838
:1055F300AAF075F006E50B12563FF8A3E0F9E84967
:1056030022A42A12579888828983A322ECFEEDFFF5
:1056130090284FE493F8E9C39822F5831256311288
:10562300153A22E50C126A5BE50D3400F583E0FAC6
:10563300A3E0FB2212563FFAA3E0FB22125644E0FA
:1056430022A42AF9743028F582740F39F58322E5F0
:105653000EF09010DC12565C22E088828983F022DF
:105663001257BCF50CE93400F50DE50EC333FAE42B
:1056730033FB121534850C82850D83EAF0A3EBF01E
:10568300850C82850D8312568D22124486E84922A9
:1056930074F4120365ECFEEDFF740C120AA1123AC6
:1056A3009A880889091256E1AC0AAD0BECF8EDF9BA
:1056B3009028431256E95021E875F006A4F8AAF0A1
:1056C30075F006E9125604E08E828F831256FC129F
:1056D30056F2123AA6790080027904023C50120C69
:1056E300E88A0A8B0B22123488C3EC9AED9B2212B0
:1056F3004482850882850983221257D12274F612C7
:1057030003657E007F008028EEF8EFF9E875F00668
:10571300A4F8ACF075F006E9A42CF9742E28F582F0
:10572300740F12637F6A7003A3E06B605712361D18
:105733001266D140D31266CC7002E96F704674FED4
:105743006A700374FF6B703C7E007F008003123627
:105753001D1266D1502E1250CD70F3EEF8EFF9E81A
:1057630075F006A4F812578E1257C360171257AA82
:10577300F8E91257A2888212561D8508828509838B
:10578300E4F0A3F0EEFAEFFB023AAF75F006E9128C
:10579300579622A42AF9742C28F8740F39F9223465
:1057A30000F98808890922EEF8EFF9E875F006A4F4
:1057B300F875F006E91257BC22125796E824042222
:1057C300A3A374FE1257CE12568D22F0A3041257D0
:1057D300D522F088828983A3A3A3A32274F612039C
:1057E30065EA241DF582EB1258DAF9604BEA241DB1
:1057F300F582EB1261142402FCA3E03400FD12567F
:105803001340030258CD780080298C828D83E0F504
:1058130008A3E0FFE5082400E43FF509E833FEE4CC
:1058230033FF74742EF582740F3FF5831258F01210
:1058330058D008E8C39940D28A828B83A3A3A3A339
:10584300A3A3A3A3A31247CA900368E06C7003A3A6
:10585300E06D700F7C747D0F122D2D12518E120C82
:10586300DC8067EA2411F582EB126114605CFC743E
:10587300FF2CF0750801780812085575087475092E
:105883000F7808120851E9F5087808120855EA2438
:1058930012F582EB126114F5087808120855EA2410
:1058A30015F582EB125A4412067DECF9122D2D12D6
:1058B30047C78A828B83A3A3A3A3A3A3A3A3A312F0
:1058C3005192120CF47407120864023AAFEC2402EA
:1058D3000C0CED3400FD22125A551258E2E022E07E
:1058E300F8A3E0F5838882A32288828983E508F000
:1058F300A3E509F02274EA12036574FD1208DF8A36
:10590300148B158C0E8D0F890D7419120AA1125A5E
:105913005D741B120AA1E0F511741C120AA1E0F5D3
:105923000C741D120AA1124ED3741F120AA1E0F5C2
:10593300106008E50CC333240480027402C0E074D1
:1059430001120AA1D0E0125A6E8A088B09EA4509AE
:105953007003025A398A828B83A3A3E514F0A3E56B
:1059630015126567E50EF0A3E50FF0EA2413F5823F
:10597300EB125A44E50DF0EA2414F582EB125A4473
:10598300E511F0EA2417F582EB126114640170400B
:10599300120EDA8A0E8B0FA80EA90F8508828509CD
:1059A30083A3A3A3A3E0687003A3E0696022EE4F7F
:1059B3006011E508241AF582E509125A44EEF0A3B2
:1059C300EF800CE5082417F582E509125A44E4F048
:1059D300125A48125A5D8E828F837405F0A3E51024
:1059E3007004E50C80487401250C125A677A008014
:1059F30028850A82850B83E0125A63850A82850B08
:105A030083A3E08E828F83F0E50A2402F50AE50B77
:105A13003400F50BA30EAF830AEAC3950C40D212F0
:105A23000EDAEA125A63120EDAEB8E828F83F0AA31
:105A330008AB09120BB07403024B09EE240CF58278
:105A4300EF125A5522122D3E125A5522EE240BF50F
:105A530082EF3400F58322900334E0FEA3E0FF22BB
:105A63008E828F83F0A3AE82AF8322123B31120F5B
:105A73003422C082C083E9C333FCE433FDEA2CFA49
:105A8300EB3DFBEA24FEF582EB34FF125190023921
:105A9300D874F212036589098A0A12560F400479F1
:105AA30000804075080080020508E508C395095089
:105AB3002AE508C333F8E433F9EE28F582EF39F524
:105AC30083C082C083120EDA8A0C8B0DD083D082FE
:105AD300E0650C7004A3E0650D70CDE50A65087000
:105AE300BE7901024F8D74F012036574F31208DF5F
:105AF3008A088B098C0A8D0B890C750D00120F4CCB
:105B0300E979006003025BEBAA08AB09120D66A9F1
:105B13000C120D5A8A0E8B0FAE0EAF0FEE4F7003A1
:105B2300025BE98E828F83A3A3A3A3A3A3E0A2E2D4
