:020000040000FA
:06000000020A350201BAFC
:03002B0002079633
:030033000206665C
:0300430002073081
:030053000200F9AF
:03006B0002064C3E
:100083000201560101FF05030107100710071007BE
:1000930010C30EBD0E07107A1D000000003E1E00A7
:1000A3000000000C0000000C0001040000E7110038
:1000B3000000000000A1120000000000000000008A
:1000C30000FFFF0101010024050000007505E8039E
:1000D30064006400B801020200080000050207057D
:1000E3001E02051E0A03B80B020102F1FF0296511C
:1000F300180002020612C0E074F21203D3A2AFE4A6
:1001030033FED2AFE5A7FFE5A1F5085F5410600603
:1001130012188F75A1EFE5085F540860081218954F
:1001230075A1F78024E508A2E092F0EFA2E082F047
:100133005017906198E0F890084EE0C398A2D265FA
:10014300D0335002E8F075A1FEEEA2E092AF7F013A
:10015300020432C0E074F21203D3A2AFE433FED23E
:10016300AF9061A4E0F8759B00E5915854086008CE
:100173007591F71218DD8023E591585410600875C6
:1001830091EF1218E38014E591A2E092F0E8A2E067
:1001930082F05007E0C2E0F0121A279061A3E0F862
:1001A300E5E9585404600E1219FD75E9FB9061935B
:1001B300E0A2E640F28092C0E074F21203D3A2AF51
:1001C300E433FED2AF9061A5E0F8E5BF5854046074
:1001D3000675BFFB121A3F02014CC3E498F8E49979
:1001E300F912021E8026C3E49AFAE49BFBE920E796
:1001F300E912021EE498F8E499F922C3E498F8E4BA
:1002030099F912021EE498F8E499F9C3E49AFAE41E
:100213009BFB22EB20E7CFE920E7E0B90010BB000E
:1002230008E88AF084F8AAF022E4FBC8FA22EB700B
:10023300227B10C833C8C933C9335007C39AC3DB01
:10024300F280069A50012ADBEAC833F4C8C933F4B2
:10025300C9FA2275F008E4C833C8C933C933C99A47
:10026300C99B5004C92AC93BD5F0ECFBC833F4C879
:10027300E4C9FA22080808EAC0E0EBC0E086F0E728
:10028300A4FA180986F0E7A42AFA180986F0E7A465
:100293002AFA180986F0E7A42AFA1986F0E7A4FBDC
:1002A300E5F02AFA190886F0E7A42BFBE5F03AFA01
:1002B300190886F0E7A42BFBE5F03AFA181809862B
:1002C300F0E7A4C5F02BFBE43AFA1908E7C5F0C63A
:1002D300A426F6E5F03BFBE43AFA1886F0E7A4F629
:1002E300E5F00826F6E43B08F6E43A08F6D0E0FB2E
:1002F300D0E0FA22E4CFC0E0E4CEC0E0E4CDC0E039
:10030300E4CCC0E075F020C3E633F608E633F60824
:10031300E633F608E633F6181818EC33FCED33FD34
:10032300EE33FEEF33FFC3EC9709ED9709EE970920
:10033300EF97191919400FFFEC97FC09ED97FD0989
:10034300EE97FE191906D5F0BEECF709EDF709EEA5
:10035300F709EFF7191919D0E0FCD0E0FDD0E0FE62
:10036300D0E0FF222518C582C0E0E51934FFC5831C
:10037300C0E0E518C3958224F810AF08858319857A
:1003830082188008858319858218D2AFCEF0A3E541
:1003930020F0A37808E608F0A3DEFAEFF0A3E581E6
:1003A30024FAF8E608F0A3E608F0A3E608F0A308A9
:1003B30008E608F0A3E608F0A315811581D0E0FE56
:1003C300D0E0F8158115811581E8C0E0EEC0E02288
:1003D300C0D02518C582C0E0E51934FFC583C0E04D
:1003E300E518C3958224F310AF0885831985821815
:1003F3008008858319858218D2AFC8F0A3E9F0A3DA
:10040300EAF0A3EBF0A37908E709F0A3D8FAECF03C
:10041300A3EDF0A3EEF0A3EFF0A3D0E0F0A3D0E0C0
:10042300F0A3D0E0F0A3E520F0A3E5F0F0A322854C
:100433001983851882E0C0E0A3E0F9A3E0FAA3E002
:10044300FBA37808E0F608A3DFFAE0FCA3E0FDA332
:10045300E0FEA3E0FFA3E0C0E0A3E0C0E0A3E0F57B
:10046300D0A3E0F520A3E0A3F5F010AF088583192E
:100473008582188008858319858218D2AFD082D0EF
:1004830083D0E0F8D0E032120A97B900030204CC1B
:10049300E490030178A5790A8002F0A3D8FCD9FA85
:1004A300900CA5AA82AB839000867874790180159D
:1004B300E493A3AC82AD838A828B83F0A3AA82AB3D
:1004C300838C828D83D8E9D9E77582CD75839A743D
:1004D300031208147582E575831C7400120814E472
:1004E3007375F0108E1A8F1B85821F85831E8518E6
:1004F30082851983E0CEA3E0CF851F82851E83EB1F
:10050300C9EAC8EDCBECCAC3E833C8E933C9EA3357
:10051300CAEB33CBC3EA9EF51DEB9FF51CB3500426
:10052300AB1CAA1DEC33CCED33CDD5F0DAAE1AAF4C
:100533001B22D083D082ECC0E0EDC0E0E493A3FCA7
:10054300E493A3FDED4C600D12060DEC24FFFCEDCE
:1005530034FFFD80EFE493A3FCE493A3FDED4C6033
:100563000D1206DBEC24FFFCED34FFFD80EFD0E041
:10057300FDD0E0FCE493A3C0E0E493C0E022D08389
:10058300D082E9C0E0E493A3C386F0C5F095F0F907
:1005930008E493A386F0C5F095F0700BE493A3C32E
:1005A300994005E9048002A3E475F002A42582F5CD
:1005B30082E5F03583F583D0E0F9E493A3C0E0E46A
:1005C30093C0E022851983851882E0A3FEE0A3F59A
:1005D300207808E0A3F608DFFAE0A3FFE0A3C0E079
:1005E300E0A3C0E0E0A3C0E0E0A3C0E0E0A3C0E07C
:1005F30010AF088582188583198008858218858342
:1006030019D2AFD083D08202081AC0E0C3E4939614
:10061300087401939618400FE493667008087401F8
:1006230093661870007019A3A3C3E493960874012A
:10063300939618A3A3400DD0E0D0E0D0E00205715B
:10064300A3A3A3A3A3A3D0E022C0E074F21203D315
:10065300E589A2E150031217B7758900C2C57F016E
:10066300020432C0E074F21203D3E58BA2E050031C
:100673001217B7758B00C2E880E474048004740217
:100683008000CCC0E0EDC0E0E518C39CCCAD1950B0
:10069300011D10AF068C188D1980068C188D19D288
:1006A300AF120775D0E0FDD0E0FC2274028000CCCD
:1006B300C0E0EDC0E0E518C39CCCAD1950011D109E
:1006C300AF068C188D1980068C188D19D2AF1207BE
:1006D30053D0E0FDD0E0FC22C0E0C0F088F0E4930A
:1006E3006670080874019366187000A8F0A3A370DD
:1006F3000BD0F0D0E0D0E0D0E0020571A3A3D0F09E
:10070300D0E022D083D082CCC0E0E493A360061271
:1007130007F51470FAE493A360061208CD1470FA77
:10072300D0E0FCE493A3C0E0E493C0E022C0E07413
:10073300F21203D3A2AFE433FED2AFC2C0E5D1A21B
:10074300E45003121805EEA2E092AF7F01020432D7
:10075300CAC0E0E493A3C582CCC582C583CDC5835B
:10076300F0A3C582CCC582C583CDC583DAE5D0E0CD
:10077300CA22CAC0E0E0A3C582CCC582C583CDC569
:1007830083F0A3C582CCC582C583CDC583DAE6D009
:10079300E0CA22C0E0C0D0E8C0E0E9C0E0E5A8D2EA
:1007A300AFC2C7A2E7A2E792AFD0E0F9D0E0F8D09A
:1007B300D0D0E0327009080808226016181818C64D
:1007C300C333C608C633C608C633C608C633C6D540
:1007D300E0EA22C008C3E096F50808A3E0964208C1
:1007E30008A3E096420808A3E09645087001D3D019
:1007F3000822C0E0E493A3D39C5010E493A3C39CCA
:10080300400AD0E0D0E0D0E0020723A3A3A3D0E0C6
:1008130022C09FF59FE473D09F22D083D082C09FD4
:10082300E493C0E0740193C0E0740293F59F2274D3
:1008330004800A74038006740280027401C0E0F429
:100843000412084DD0E0120A72222518F58210AF67
:1008530008F518400215198008F51840021519D239
:10086300AF85198322C0D0251810AF08F5185002A0
:1008730005198008F51850020519D2AFD0D022BB54
:100883000102E722C082C08389828A83BB0003E01E
:100893008002E493D083D082226016080808C6C37E
:1008A30013C618C613C618C613C618C613C6D5E092
:1008B300EA22C3E0C696F608A3E0C696F608A3E0CC
:1008C300C696F608A3E0C696F622C0E0E493A36CAE
:1008D3007009D0E0D0E0D0E0020723A3A3D0E02248
:1008E300251810AF08F518400215198008F51840AF
:1008F300021519D2AF22E066701008A3E066700AF1
:1009030008A3E066700408A3E06622E76670100897
:1009130009E766700A0809E76670040809E76622B2
:10092300C3E09608A3E09608A3E09608A3E096A286
:10093300D265D03322C3E096F008A3E096F008A373
:10094300E096F008A3E096F022E026F008A3E03654
:10095300F008A3E036F008A3E036F022700422602A
:100963000D18C6C333C608C633C6D5E0F41822E64D
:1009730047F60809E647F60809E647F60809E64791
:10098300F622E026F608A3E036F608A3E036F608DA
:10099300A3E036F622E627F60809E637F60809E665
:1009A30037F60809E637F622E657F60809E657F65A
:1009B3000809E657F60809E657F622E056F608A3B3
:1009C300E056F608A3E056F608A3E056F622E056F2
:1009D300F008A3E056F008A3E056F008A3E056F0B1
:1009E30022E4C396F608E496F608E496F608E4963D
:1009F300F622C3E7960809E7960809E7960809E788
:100A03009622C6F4C608C6F4C608C6F4C608C6F4D9
:100A1300C622600D08C6A2E713C618C613C6D5E0E2
:100A2300F322C3E09608A3E09608A3E09608A3E0A8
:100A3300962275D00075814075180175190300025F
:100A4300048AE0F608A3E0F608A3E0F608A3E0F6BC
:100A530022600C08C6C313C618C613C6D5E0F42219
:100A6300E6F008A3E6F008A3E6F008A3E6F022CA3E
:100A7300C0E0E6F0A308DAFAD0E0FA22E0FAA3E055
:100A8300FBA3E0FCA3E0FD22EAF0A3EBF0A3ECF070
:100A9300A3EDF022E5C754F84401F5C779012225F7
:100AA30018F582E43519F58322C2AF75D69F02008B
:100AB300002212081D91B10112081D01B201120892
:100AC3001D1DB20112081D14B30112081D63B501E7
:100AD30012081DB6B60112081D59B70112081DA44C
:100AE300B80112081DC2B80112081D1558001208DA
:100AF3001D27580012081D79580012081DDA5800E6
:100B030012081D64590012081D085A0012081D5CC2
:100B13005A0012081D755A0012081D9B5A0012082C
:100B23001DD65A0012081D1A5B0012081D415B00F6
:100B330012081D925B0012081D425C0012081DFA88
:100B43005C0012081DC25D0012081D9F5E001208A2
:100B53001D255F0012081D345F0012081D3F5F0052
:100B630012081D48600012081D59600012081DCFAD
:100B7300600012081D61610012081DB961001208AE
:100B83001D7F620012081DB0620012081DF562008D
:100B930012081D02630012081D96640012081DF955
:100BA300650012081D15670012081D7F69001208F1
:100BB3001D8A690012081D94690012081D9F6900AF
:100BC30012081DA9690012081DB3690012081DBE91
:100BD300690012081DC9690012081DFA690012088C
:100BE3001D1E6A0012081D426A0012081DA76A0032
:100BF30012081DEB6A0012081D076B0012081D7E08
:100C03006B0012081DB66B0012081D026C0012085F
:100C13001D5F6C0012081D416E0012081DC76E0097
:100C230012081D986F0012081DA8720012081DFDFE
:100C3300720012081D29730012081D757400120832
:100C43001DC5740012081D1A750012081D1B7600BD
:100C530012081DB3760012081D35770012081DD542
:100C6300770012081D60200012081D992000120849
:100C73001D73220012081DB2220012081DFC22005F
:100C830012081DA1230012081D00240012081D34A0
:100C9300240012081DA1240012081DBE25001208FD
:100CA3001DC6260012081D5C270012081DA32A007A
:100CB30012081D4C2B0012081D282C0012081D8938
:100CC3002C0012081DA62D0012081DD02F0012089B
:100CD3001D87300012081D91300012081DC430001A
:100CE30012081D8B310012081D26320012081D8BBD
:100CF300320012081DB4320012081DD63200120849
:100D03001D05350012081DDC350012081D203600B4
:100D130012081D8D360012081D48370012081D7A6F
:100D2300370012081DBE370012081DF137001208E4
:100D33001D46380012081D9B380012081D2F39006C
:100D430012081D91390012081DF9390012081DA25D
:100D53003B0012081D8A3C0012081DCC3D001208FE
:100D63001DFA3F0012081DBA400012081DE9420097
:100D730012081D8C430012081DCA430012081D7679
:100D8300450012081D8A450012081D9445001208EB
:100D93001DBE450012081DCA450012081DE9450085
:100DA30012081DA0460012081DDF460012081DE9A7
:100DB300460012081D9D470012081D9C480012089A
:100DC3001D95490012081D324A0012081DD44A001D
:100DD30012081DEB4A0012081D224B0012081D4089
:100DE3004B0012081D844B0012081DA94B0012086A
:100DF3001D8F4C0012081DFB4C0012081D754D0081
:100E030012081D844E0012081DC34F0012081D2531
:100E1300500012081DDF500012081D025100120875
:100E23001DD6510012081D21520012081D635200E5
:100E330012081DBA520012081DF1520012081D1F9C
:100E4300530012081D58530012081D7D5300120849
:100E53001D05540012081D28560012081D87560050
:100E630012081D1B570012081D87570012081DDBAF
:100E7300570012081D95AF0312081DD4AF031208C3
:100E83001D07BA0112081D61BA0112081DBDBA017E
:100E930012081D09BB0112081D24BB0112081D55B0
:100EA300BB0112081D72BB0112081D7EBB01120893
:100EB3001DF2BC0112081D0BBD0112081D72BD01FC
:100EC30012081D85BD0112081D93BD0112081D479F
:100ED300BE0112081D2BBF0112081D31C0011208EB
:100EE3001DB7C00112081DC1C00112081D2EC1018A
:100EF30012081D45C10112081D77C10112081DB05A
:100F0300C10112081DDAC10112081D3BC2011208FA
:100F13001D5BC20112081D79C20112081DBFC20167
:100F230012081DE5C30112081D32C40112081D6118
:100F3300C40112081DD7C40112081DFFC401120801
:100F43001D38C50112081D46C50112081D9EC501A5
:100F530012081DEDC50112081D2CC60112081D5CE7
:100F6300C60112081D88C60112081D93C601120886
:100F73001DB1C60112081D73C70112081D7DC701EB
:100F830012081DB8C70112081DCEC70112081DD7CC
:100F9300C70112081D2CC80112081D40C801120800
:100FA3001D4EC90112081D61C90112081D76C90130
:100FB30012081D18CA0112081D9BCA0112081D59E7
:100FC300CB0112081D64CB0112081D8ACC01120843
:100FD3001DA6CC0112081DF8CC0112081D37CD0146
:100FE30012081D4CCD0112081D8ECD0112081DDB08
:100FF300CF0112081D59D00112081DCCD0011208CF
:101003001DEED20112081D06D30112081D09D301DA
:1010130012081D15D30112081D29D30112081D3111
:10102300D30112081D64D30112081D14D401120840
:101033001D8AD40112081DFDD40112081DB1D5016A
:1010430012081D66D60112081D85D60112081D253A
:10105300D70112081D31D70112081D5CD7011208F0
:101063001D5FD70112081DC9D70112081DF1D80150
:1010730012081DC9D90112081D54DA0112081D6D89
:10108300DB0112081D2ADC0112081D63DC011208B2
:101093001D94DC0112081D34DD0112081D64DD01FD
:1010A30012081D3FDE0112081DD8DE0112081D6360
:1010B300DF0112081D14E00112081D96E001120859
:1010C3001DC8E00112081D09E10112081D98D20292
:1010D30012081DF9D20212081D36D30212081D8907
:1010E300D30212081DB2D50212081D82D7021208BC
:1010F3001DEFDA0212081D26DB0212081D44DB0273
:1011030012081DBADB0212081DE2DB0212081D13CE
:10111300DC0212081D43DC0212081D9FDC021208C8
:101123001D6ABC0212081DE8BC0212081D1EBD0286
:1011330012081D8ABD0212081DFDBE0212081D19E8
:10114300BF0212081D5EBF0212081DEBBF02120888
:101153001D44C00212081D70C10212081D7EC20286
:1011630012081DDBC20212081D47C30212081DA884
:10117300C30212081DE9C30212081D96C402120815
:101183001DA8C50212081DEBC50212081D39C602AF
:1011930012081D70C60212081D13C70212081DCEC5
:1011A300C70212081DB09E0312081DE09E03120819
:1011B3001D3D9F0312081DB7A30312081DC8A303F7
:1011C30012081D19A40312081D5EA40312081D06AC
:1011D300A50312081DF2AB0312081D10A203120887
:1011E3001D68A30312081D45C80212081DF4C80296
:1011F30012081D14C90212081D34C90212081D4821
:10120300C90212081DA8C90212081DD8C902120872
:101213001D62CB0212081D0BCC0212081DEDCC027D
:1012230012081D40CD0212081D84CD0212081DC7ED
:10123300CD0212081D32CE0212081D53CE0212082F
:101243001DD6CE0212081D0BCF0212081D7BCF0242
:1012530012081D12D10212081DE8D10212081D2A1C
:10126300D20212081D84D20212081DD89C03120850
:101273001DF99C0312081D2F9E0312081D599E037E
:1012830012081D088A0312081D838A0312081D8E83
:101293008A0312081DAF8A0312081D55B0021208F3
:1012A3001D58B00212081D12B10212081D3DB102F1
:1012B30012081D83B10212081DA8B10212081DC92C
:1012C300B10212081DFDB10212081D35B202120847
:1012D3001D5EB30212081D8DB30212081DADB302C9
:1012E30012081D45B40212081D08B50212081D3D5F
:1012F300B50212081DA5B60212081D48B70212084E
:101303001D40B80212081D75B80212081DD5B80297
:1013130012081D95B90212081DC3B90212081D7DDA
:10132300A60112081DCBBB0212081DFEBB02120848
:101333001D88780012081DD4780012081D42790018
:1013430012081D63790012081D7A790012081D2AFC
:101353007A0012081D337A0012081D867A001208DB
:101363001DAF7A0012081D0D7B0012081D9E7B0025
:1013730012081DDA7B0012081D48B10112081D98DE
:101383007C0012081D1E7D0012081D5D7D001208E1
:101393001D9E7D0012081DD57D0012081DE77D00EE
:1013A30012081DF97D0012081D187E0012081D2168
:1013B3007E0012081DD97E0012081D197F00120835
:1013C3001D40F50212081D15F60212081D2FF60224
:1013D30012081D40F60212081D59F80212081D7862
:1013E300F80212081D7D960312081DB39603120816
:1013F3001DFE960312081D4C980312081D3EE101C1
:1014030012081D89E20112081DC5E20112081D7CA4
:10141300E40112081DA5E40112081D3DE7011208AD
:101423001D7DE70112081D1EE90112081DB8E9011F
:1014330012081D20EA0112081DADEA0112081DE57C
:10144300EA0112081D25EB0112081DB8EC01120870
:101453001D57EE0112081DA6F00112081DD4F0015C
:1014630012081D00F10112081D09F10112081D6483
:10147300F10112081DFAF10112081D23F5011208EA
:101483001DA8F50112081DF2B00312081D4AAF038F
:1014930012081D87830312081D9C830312081D393C
:1014A300840312081D75840312081D8C840312081B
:1014B3001DB3840312081DF8840312081D29850334
:1014C30012081D61850312081DE9860312081DB069
:1014D300AD0312081DE6AD0312081D02AE03120888
:1014E3001D44AE0312081D54AE0312081D5EAE0365
:1014F30012081D22E20212081DDFE20212081D94E7
:10150300E30212081DD4E30212081D8BE502120840
:101513001DC7E60212081DD6900212081D2E910265
:1015230012081DE0910212081D84920212081DDEAA
:10153300920212081D57930212081D6B93021208A0
:101543001D4E950212081DCF950212081D06960224
:1015530012081DB2970212081DC9970212081D1422
:10156300980212081D2A980212081D3798021208C1
:101573001D6B980212081D81980212081D0799021B
:1015830012081D12990212081D6B990212081DC53B
:10159300990212081D189A0212081D229B021208B2
:1015A3001D809D0212081D259E0212081D679E02C2
:1015B30012081DF09E0212081D129F0212081D152B
:1015C3009F0212081D189F0212081DAB9F021208EA
:1015D3001DD49F0212081D00A00212081D3BA00289
:1015E30012081D3EA00212081D51A00212081D7808
:1015F300A00212081D76AE0312081D82AE03120864
:101603001DBCAE0312081DA8A00212081DD3A00220
:1016130012081D94A10212081D1AA20212081D83AA
:10162300A20212081DCBA20212081D55A302120822
:101633001DEAA30212081D79A40212081DBAA4020E
:1016430012081D1EA90212081DACAA0212081DE5EC
:10165300AA0212081D7FAB0212081D40AC02120839
:101663001DD5AD0212081D83AE0212081D008002B3
:1016730012081DBC800212081D39810212081D4880
:10168300810212081DD1810212081D49820212082B
:101693001D58830212081D81830212081D2984022A
:1016A30012081D7C840212081DE8840212081D26FC
:1016B300860212081DC7860212081D2F8702120810
:1016C3001DC5880212081D79890212081D168A0297
:1016D30012081D778A0212081DF18A0212081DF6EC
:1016E3008B0212081D868D0212081D208E0212081D
:1016F3001D918E0212081D6B8F0212081DDE8C03D2
:1017030012081D2E8D0312081D8A8D0312081DD584
:101713008D0312081D308E0312081DD88E03120884
:101723001D418F0312081D4E8F0312081D279403BA
:1017330012081D58940312081D12950312081D78F0
:10174300950312081DE9950312081D4C9B0312080B
:101753001DE5AC0312081DF6AC0312081D96AD037C
:1017630012081D61A00312081D6FA00312081D08B3
:10177300B10312081D5CFF0112081D6CFF01120862
:101783001D87FF0112081DE8FF0112081DEBA903C5
:1017930012081D70AA0312081DD6AA0312081DD928
:1017A300A80312081DFBA80312081D65A90312084C
:1017B3001D70A90312081DB4A90312081DD1F90253
:1017C30012081DDFF90212081D59FA0212081D3D05
:1017D300FB0212081DF6FC0212081DD0B00312080A
:1017E3001DEBDC0212081D58DD0212081D19DE0272
:1017F30012081D89DE0212081D94DF0212081D0C57
:10180300E10212081D70E10212081DC5E10212086F
:101813001DCEE10212081DDDE10212081DF0E102F6
:1018230012081D06E20212081D0FE20212081D40F3
:10183300E70212081D95E70212081D91E90212083A
:101843001DC3E90212081DE5E90212081DFEE902A3
:1018530012081D17EA0212081D21EB0212081DBC13
:10186300EB0212081D23A50312081D47A503120846
:101873001D60A50312081D9FA50312081DD2A50311
:1018830012081D02A60312081D6AA60312081D6D85
:10189300A60312081D77A60312081D84A6031208C7
:1018A3001D65FD0212081D8DFD0212081DCEFD02ED
:1018B30012081DE0FD0212081DFBFD0212081D6344
:1018C300FE0212081D6FFE0212081DCEFE02120850
:1018D3001DF2FE0212081DB3FF0212081DC0FF0213
:1018E30012081DD1FF0212081D68B00312081D85DE
:1018F300B00312081D3FEC0212081D9FED021208EF
:101903001DA5ED0212081DBCED0212081DDDED023E
:1019130012081DF3ED0212081D07EE0212081D86C0
:10192300EE0212081DEBEE0212081D81EF021208EF
:101933001D5AF00212081D6AF00212081D79F00206
:1019430012081D497F0012081D6D7F0012081D95A6
:101953007F0012081DBD7F0012081D5D8F03120852
:101963001D848F0312081DA58F0312081D179003F2
:1019730012081DC9910312081DE2910312081DF9F3
:10198300910312081D02920312081D2092031208EC
:101993001D2A920312081D34920312081D47920355
:1019A30012081D9C920312081DD5920312081D03F1
:1019B300930312081D54930312081DA093031208E6
:1019C3001DBB930312081DC5930312081DD6930371
:1019D30012081D1C940312081DF9AE0312081D05FD
:1019E300F60112081D31F60112081D4FF601120807
:1019F3001D62F60112081D7DF60112081DDCF601B9
:101A030012081D0AF70112081D19FB0112081D5EB9
:101A1300FC0112081D90FC0112081DFCFC011208B8
:101A23001D45FE0112081D6DFE0112081D82FE01F7
:101A330012081D92FE0112081DD2FE0112081D1E7E
:101A4300FF0112081D2EFF0112081D8EA6031208A6
:101A53001D9EA60312081DBCA60312081DD7A603CC
:101A630012081DFEA60312081D1FA70312081D3925
:101A7300A70312081D71A70312081D94A7031208D8
:101A83001D24B00312081D00800312081D078003E4
:101A930012081D24810312081D54810312081D7AA4
:101AA300810312081DAD810312081DBF81031208B3
:101AB3001DFB810312081D61820312081D9D820311
:101AC30012081DE4820312081D11830312081D323C
:101AD300830312081DE27F0012081DEFAA031208F8
:101AE3001D01AB0312081DECAB0312081DEFAB0382
:101AF30012081DAF980312081DCC980312081DE9A4
:101B0300980312081D11990312081D439903120823
:101B13001D129A0312081DC6A70312081D38A80335
:101B230012081D76A80312081DB7A80312081DF694
:101B3300860312081D12870312081D61870312080A
:101B43001D7D870312081DAE870312081DBE870380
:101B530012081DA6880312081DB0880312081DBDB4
:101B6300880312081DD0890312081DE48903120893
:101B73001DED890312081DAAF00212081DD1F402FB
:101B830012081DD6F40212081DDEAF0312081DA4AD
:101B9300B00312081D38A40112081DBFA3011208C7
:101BA3001D66A30112081DFAA20112081DD1A2018C
:101BB30012081DC4A00112081D90A00112081D5D8A
:101BC300A00112081D41A00112081D679F01120800
:101BD3001D1F9F0112081D549D0112081DD49C0155
:101BE30012081DD19C0112081DD89B0112081DA6C5
:101BF3009B0112081DE39A0112081D0E9901120898
:101C03001D9F980112081D71980112081D6E9801FD
:101C130012081D5B980112081D00B10112081D3E38
:101C2300B00112081DB1AF0112081DA4AF011208C3
:101C33001DB2AC0112081DF3970112081DE29701B2
:101C430012081DC3960112081D8D960112081D046A
:101C5300AA0112081D50960112081DF195011208E0
:101C63001DC0950112081D7B920112081DD8A80101
:101C730012081D267C0012081D6C910112081DFB21
:101C8300900112081DC0900112081D8B90011208CB
:101C93001D7F900112081DDF8F0112081D268F0181
:101CA30012081DF98C0112081D858A0112081D43B3
:101CB3008A0112081D0E890112081DC3880112082A
:101CC3001DF5870112081D4C870112081DE88601C6
:101CD30012081D22870112081D2CA80112081D4A93
:101CE300BB0200000080FB00013636010100010247
:101CF30001000103010001040106060502000007BB
:101D03000100340801000F090401010D0100FF0E59
:101D130008000017020000190100FF1A0100011B4F
:101D23000100FE1C0100081D0200001F010001202C
:101D3300010001210200002301000F2402000026FC
:101D430001000127010008280200FF2A0100072BD8
:101D53000102402C0100002D0100012E0100012F82
:101D63000100FF30010B1C310800003A0100083B61
:101D730001000F2F0100000300710030016000110A
:101D83000070003102200350048000100061000045
:101D9300001400630073007200620043000000132C
:101DA3000006000000000004001200000000000014
:101DB30000000004000400370037003C0244000028
:101DC30000000000000000650000003500810000F5
:101DD300000500000083000000030271023001606F
:101DE3000211027002010202020202800210026169
:101DF300023A00410063027302720262024302006C
:101E03000213023800000200020402120200020060
:101E1300020002000204020402370037003C0244BD
:101E2300020002390000020002650200023502814D
:101E33000200020502820283020002010371030110
:101E4300030103010301030103220302030103103E
:101E53000300030003000300030003000300034225
:101E630003000324030603000300030403120325F2
:101E730003230325032303040304030003000300D4
:101E83000344030003000323030003650321003518
:101E93000381030003050300030003000301017131
:101EA3000101010101110101013101010101018060
:101EB30001100161013B00140063017301720162AF
:101EC3000143010001130106013D01350004011224
:101ED3000100010001000100010401040133013389
:101EE300013C01440132013600000100016501009B
:101EF30001350081010001050182018301000136E2
:101F0300000100060000000F0000000000000000B8
:101F1300000000000003FFFF00000403FFFF0000B8
:101F2300FFFF0FF4010005C4040320000100030BAD
:101F3300000000000000000003010F0100A91602C9
:101F4300001F160300251604002B16050031160684
:101F5300003D161100551614005B1615004F16FFB1
:101F6300FF000003EAF5E5D5D5C5B5A595958585AB
:101F73007575656555554545353525251515051D76
:101F83000F4D0F230F290F470F3B0F350F530F59DA
:101F93000F5F0F6B0F2F0F170F110F0AE90C02B30F
:101FA3000C05C50C07B90C0C950C0DA70CFF000014
:101FB30000160F00000B150B020002220F32000067
:101FC30006071019101F10E70E2510E10EED0E671E
:101FD3001085108B106D10791073100C0E020B040A
:101FE3000B0A0708000F303016181920231A1C1E7D
:101FF300300001191618161615230300000349486B
:10200300424D181725050200383C3E363B3B352B25
:10201300432C303017181921301B1D1F305B102B38
:102023001031103D103710410F650F7F10710F777E
:102033000F02040201010101090200000000000077
:1020430000BE040A0E00E80304001500280008047B
:102053000C05030908FF1E1E0A040F100C74F71267
:102063000367E99003B0F0900365E4F0121ADB9084
:1020730003B5E4F0A3F09003B1F0A3F0120E211224
:102083001AE1900334E4F0A3F090205D93FA79020F
:10209300121B65024CF674F2120367EAFEEBFF545F
:1020A3008060699003B0E0F91213678A088B09EA2C
:1020B3004509604F7C0080010CEC75F003A4F8A97E
:1020C300F0749E28F582741F39F583E493F4602C31
:1020D300E493F88508828B83E06870DCAA08EC75CA
:1020E300F003A4F8749F28F582741F39F583E493F1
:1020F300C0E0740193F583D0821204E2AA08AB090D
:1021030012135BEEFAEF6480FB022266EF54206049
:102113001D120D438A088B09EA4509600A120CA7B0
:10212300AA08AB0912135BEEFAEF642080DAEEA281
:10213300E0501A90036AE0640F700B7900120C717F
:10214300E96003122269EE6401FAEF80BB54207048
:1021530003022234750C0012373B8B09EA450970E0
:10216300107C027D007A207B009003B0E0F912140A
:10217300B17C0079047A007B00120D1F8A088B0959
:102183008018850882850983A3A3A3A3A3A3A3A37C
:10219300A37401F0850A08850B09E5084509606DFC
:1021A3007C007904AA08AB09120D1F8A0A8B0B75F0
:1021B3000C01E5082404F8E5091234DF24FFF0A339
:1021C300E034FF1257D270CC850882850983A3A31C
:1021D300A3A3A3A3A3A3A3A3E0640170A58508827B
:1021E300850983A3A3A3A3A3A3E054047094850840
:1021F30082850983A3A3A3A3A3A3A3A3A37406F024
:102203007AB78508828509831223958087120CEF9C
:102213007C0079017A007B00120D1F8B09EA4509C6
:102223007009E50C70057A20124695EE64200221B0
:102233004CEF5402600B120E1BEEFAEF6402022104
:102243000BEF5404601912482C12474C7901900388
:1022530063124AB0120BB7EEFAEF640402210B7A51
:10226300007B0002249C900CF0122B33120C892269
:10227300C082C08374EA1208E3851882851983AA91
:1022830082AB83794B121B3B7408120AA27402F0CF
:102293007409120AA2AA82AB837950121B3B7413EE
:1022A300120AA2E4124C7F121B597416023C597491
:1022B300F712036774E11208E3EAFEEBFFEE4F60E7
:1022C30033851882851983AC82AD83120D6774063A
:1022D300120AA2E0601E7417120AA2E0FD74011232
:1022E3000AA2E0FCEEFAEFFB7900120ADFE96004D0
:1022F30079A480027900024CF174F6120367EAFEB6
:10230300EBFF8E828F83A3A3A3A3A3A3E054406018
:102313001B12516E12246360067AFF7BFF801A8EB4
:10232300828F831238E5FAA3E0FB8003120D8B74CE
:10233300FE6A700374FF6B604112516E1246D9122C
:102343000DDFE98E828F83600612238EE4800512EF
:10235300238E7401F07C777D0C8E828F83124AB0BA
:10236300121B5FE9F5087015EE4F60097901EEFA6B
:10237300EFFB120CFBA90802470A7508CDAA088EC9
:10238300828F83122395E960DF80EAE0240D123DFA
:10239300B422E0240C123DB4E0F9120C832274F64B
:1023A300120367E9FEEAFF7A0F7B00121355EA4B2B
:1023B30060198A828B83740CF0EEA3A3F0EF8A82F8
:1023C3008B83A3F01247357900802FEEF9120D2588
:1023D3008A088B09A808A909E849601C88828983AF
:1023E300A3A3A3A3A3A3A3A3A374061253F9E0F97E
:1023F300120C3BEEF9120D01791002470AC082C09C
:102403008390036AE0640F7014EA4B6010900365D5
:10241300E064086005E064047003122423023C8333
:10242300EAFCEBFD7A017B009003B0E0F91214ABF8
:1024330022C082C0837900EA241DF582EB1238E2C0
:1024430024FD600B14600824FD600424FD70010961
:10245300023C838E828F83A3A3A3A3A3A3A3A3A3DB
:102463001224672212392AFB120DDFE9228E828F92
:1024730083A3A3A3A3A3A3A3A3A3122467640222F6
:102483008E828F83A3A3A3A3A3A3A3A3A3123C7AA4
:10249300900356E068221208687F060205C774F4A9
:1024A30012036774FD1208E38A088B098A828B83FF
:1024B300A3A3E0F9120D258A0A8B0BAE0AAF0BEE2C
:1024C3004F70030225A8850882850983A3E064F180
:1024D3006030850882850983A3E064CD6024850884
:1024E30082850983A3E0641A6018850882850983BD
:1024F300A3E064E9600C850882850983A3E064E1B5
:1025030070087900120CFBE9706C850882850983D9
:10251300A3E0C0E07402120AA2D0E0123C5EEEF027
:10252300A3EF122F89851882851983AA82AB837042
:1025330005120B9F8003120DC77402120AA2E064F6
:10254300E970338E828F831225B4750A01780A12DB
:10255300083E750AE9780A12083EE508240CF5825C
:10256300E509122A7B122F66FCA3E0FD8A828B8386
:10257300122F801208688E828F83A3A3A3A3A3A321
:10258300A3A3A3E0640270108E828F83A3A3A3A3EB
:10259300A3A3A3A3A37406F0850882850983A3A339
:1025A300E0F9120D01120CEF900CF412226C022BC5
:1025B30038E0F8A3E0F9E8FAE9FB2274F4120367C0
:1025C300EAFEEBFF7508008E828F83A3A3A3A3A368
:1025D300E060427508088E828F83A3A3A3A3A3A3FD
:1025E300A3A3123B8D8B0BEA450B601075082C8E51
:1025F300828F83A3A3A3A3A3E0D2E0F08E828F8371
:10260300A3A3A3A3A3E05403640160030226A74387
:1026130008110226A7EE2418122B456033EE241A64
:10262300122B45700F1224837003A3E06970757534
:1026330008228070EE241BF582EF1226AC241AF5D3
:1026430082EF122F91EE24191251A2120C298054F9
:1026530012247070037508011224837003A3E069C8
:102663007006E508D2E1F508E50860158E828F83D0
:10267300A3A3E07006E508D2E58004E508D2E6F5F9
:102683000812245664017006E508D2E0F5088E822C
:102693008F83A3A3E0600D1226BA64016006E508E8
:1026A300C2E0F508A908022B3D1238D01226B32246
:1026B300E0FCA3E0FDEE221238CA123902F9120D32
:1026C300CDE922C082C08379018A828B83A3A3E0F0
:1026D300C394024001198A828B83A3A3A3A3E0C3FB
:1026E3009402400279008A828B83A3A3A3A3A3A3AA
:1026F300A3A3A3E064F87003A3E0F460458A828B8C
:1027030083A3A3A3A3A3A3A3A3A3E064F97003A335
:10271300E0F4602E8A828B83A3A3A3A3A3A3A3A322
:10272300A3E064FA7003A3E0F460178A828B83A3A7
:10273300A3A3A3A3A3A3A3A3E064FB7003A3E0F455
:10274300700279008A828B83A3A3A3E0F8900353DA
:10275300E06860027900023C8374F012036774DE60
:102763001208E3EAFEEBFF8E828F83A3A3A3A3E009
:10277300600E900CF21247016006900CF212226C6C
:102783007403120AA2AC82AD838E828F83A3A3A3A8
:10279300124783124FBCE9600F7403120AA2AA8284
:1027A300AB83120CA1E970087901121AED022A70A9
:1027B300EE241B1238D57410120AA212474C740966
:1027C300120AA2E06021741A120AA2E0FD74041234
:1027D3000AA2E0FC8E828F83124AAE7901120ADFCD
:1027E300E96004790280C37403120AA2AA82AB834C
:1027F300120C9BE9F50A7409120AA2E0702A9003ED
:102803004DE060247422550A6422601C7442550A08
:10281300644270CF7420120AA2122A8E600A7420B6
:10282300120AA2122A8770BBE9A2E650417403126E
:102833000AA2AA82AB83120C8FE970030227AB743E
:1028430020120AA21238E56403700F7420120AA240
:10285300A31246F3A3E0640D60147403120AA2AA40
:1028630082AB83120DF1E964017003022A70EE2436
:102873002C122A78122D9C7003A3E069701C750832
:1028830000780812083E780812083EEE242E1251F2
:10289300A2122A94122F801208687409120AA2E065
:1028A300700302294D122A94124AB0120E458A0867
:1028B3008B09EA450970030229EA7404120AA2E0AB
:1028C300F88E828F83A3A3E028F8A3E03400F9E80D
:1028D300240D122A7F8A828B83A3A3A3E068601C42
:1028E300E88A828B83A3A3A3F09086CE120A7F8506
:1028F3000882850983A3A3A3A3120A8B7904E9128F
:102903000AA2124F992AF8A3E034008882F583A320
:10291300AA82AB831213498A0C8B0D8C0E8D0F8503
:102923000882850983A3A3A3A3780C1207D64003C7
:10293300022A709086CA780C120985850882850957
:1029430083A3A3A3A3780C120A63900365E0640432
:102953006008E064096003022A70E50AA2E5400307
:10296300022A28EE242E122B45851882851983F01E
:10297300EE242F122B45C0E07401120AA2D0E0F01E
:10298300EE2430122B45C0E07402120AA2D0E0F00C
:102993007414120AA2E064017027740E120AA212C0
:1029A30038DBEE2412122B45687003A3E069701123
:1029B300740C120AA212247D70077414120AA2E482
:1029C300F0EE2424122A7812067D7404120AA2ACB3
:1029D30082AD837407120AA2AA82AB83120BA57479
:1029E30004120868022A709003AAE06401600302DB
:1029F300294D7420120AA2122A8E7009E50AA2E652
:102A0300500302294D7410120AA2E0F47003A3E0EC
:102A1300F4605AEEFCEFFD7403120AA2AA82AB83A0
:102A2300120CAD8048A2E650447420120AA2124A46
:102A3300BF701A741A120AA2E0640270307403128F
:102A43000AA2AA82AB837900120DBB8020742012E4
:102A53000AA2122A877016741A120AA2E06404707A
:102A63000C7403120AA2AA82AB83120DB57422025C
:102A73004E6BEE240BF582EF1238D022F582E91269
:102A83004765F822125180E0640722123902640676
:102A930022EE242A1238CD1226B324121238CD2264
:102AA30074F4120367EAFEEBFF8C088D099005D2DC
:102AB300E0600F1224837003A3E0697005120C1702
:102AC300804F7900124AA3120C478A828B83E582D6
:102AD30045836035A3A3A3A3A3A3E05418602AE509
:102AE30008241BF582E509122A7B1206811231792B
:102AF300122A7B120681EE24181251A2122B1612EF
:102B03000C59740412086880087900122B16120CF1
:102B13001D80278E828F83A3A3A3A3A3A3A3A3A311
:102B23001226B3240BF582EF122B2F223400F583E8
:102B330012392AFB2274031208687F040205C7EEC8
:102B43002417F582EF1247652274F712036774F7AF
:102B53001208E3EAFEEBFF900365E06403600DE017
:102B630064016008E064096003022C168E828F837F
:102B7300A3E0707E7C007D007A027B00121AE7EEF0
:102B83002402FAEF1234E61238DB90035612474C54
:102B93007953121B417900122C1BE0640960031264
:102BA3002FAE85188285198374011247229003651D
:102BB3007404F07401120AA2AA82AB83794A121B2D
:102BC3003B7401120AA2AC82AD837A5B7B03121BB6
:102BD30029900356124FB27A03122FB8900350E094
:102BE300A2E35004D2F08002C2F012470F1222690E
:102BF300801E8E828F83A3AE82AF83FC7D007A0317
:102C03007B10121AE78E828F83E0F9122C1BE4F0FB
:102C1300120CD77409024CF3900363122B33120B7B
:102C2300B790036522C082C08390033412470170BA
:102C33001F900365E014600924FC600A14600C8093
:102C43000F90033C8032900338802D90033A802804
:102C5300E8496008900335122F60700C8A828B83D9
:102C6300A3E0F9120BAB801B9003351232157005EC
:102C7300120E0F800E9003D212470160061246F324
:102C83001204E2023C8374F412036774FB1208E338
:102C93008A088B097A0F7B001213558A0A8B0BAEB5
:102CA3000AAF0BEE4F7003022D908E828F83124C6E
:102CB3007D7950121B3B850882850983A3E060035D
:102CC300022D78900363E0F47003A3E0F460349082
:102CD3000363E064FE7003A3E0F460278518828534
:102CE3001983122D9C7003A3E06960178508828500
:102CF3000983A374EA122F967A637B037950121B1C
:102D030041807285188285198312516112474C7A6A
:102D1300567B037953121B3B90035612477D124790
:102D23004C7A597B03794B121B3B7A587B0379E12D
:102D3300121B3B90036AE0C3940F5021900358E0A9
:102D4300C0E07402120AA2D0E0F07404120AA27462
:102D530001F004120AA2AA82AB83121B53750A0064
:102D6300780A12083E780A12083E900D16E0F9120E
:102D73002F77120868850882850983122D95A3F0A1
:102D83009003657403F0EEFAEFFB12473574050206
:102D93002B3AA3E08E828F8322125165E0682212C0
:102DA3003DBB2274F512036774D81208E38A088BBB
:102DB300098A828B83A3A3A31239077415120AA26B
:102DC300AC82AD838A828B83A3A3A3A3A3A3A3A370
:102DD300122F66FAA3E0FB120CDD7415120AA2E0AF
:102DE300706B850882850983A3A3A3A3A3A3A3A3CD
:102DF300E0C3940B40578E828F83A3A3A3A3A3A303
:102E0300A3A3E064027046EE240B122B45F4703D3D
:102E1300900365E06402603AE06406603590033431
:102E23001247016005122F60604F900365E064084C
:102E33006005E0640470167417120AA2E0F9741CAA
:102E4300120AA2AC82AD83124AA3120CE3742802C5
:102E5300567F900334124701701F750800780812DB
:102E6300083E780812083EEE2410122A781251BA4E
:102E73001235CE122F801208688E828F83124A1F5A
:102E83001234F81238DB7402120AA212474CEE24F1
:102E93000D122B45C0E07404120AA2D0E0122F8950
:102EA300F508A3E0F509740F7808120A54740512A3
:102EB3000AA2E508F07419120AA2E0C0E07406122F
:102EC3000AA2D0E0F0741B120AA2E0C0E074071259
:102ED3000AA2D0E0F07416120AA2E0C0E07409124C
:102EE3000AA2D0E0F07417120AA2E0C0E07408123C
:102EF3000AA2D0E0F0EE2410122B45C0E0740A12AF
:102F03000AA2D0E0F0741A120AA2E0C0E0740B1215
:102F13000AA2D0E0F07427120AA2E0C0E0740C12F7
:102F23000AA2D0E0F0741C120AA2A982AA8389081B
:102F33008A09750A0078081208367C087D00741027
:102F4300120AA2AA82AB831242B0120868851882C1
:102F5300851983AA82AB83120BB1022E5012321B46
:102F6300640122E0F98A828B83A3A3A3A3A3A3A36F
:102F7300A3A3E022900363124FB6900359122B339D
:102F8300120D9D740222F0EE240B124762221247A7
:102F930065FA22F07A567B037953122FA122121B72
:102FA300417A597B03794B121B4122900363122B05
:102FB30033120E3F227B00121AE7900359124FB6C9
:102FC3007A047B00121AE722F01251C52274F2121E
:102FD300036774F81208E3EAFEEBFF8C0A8D0B8992
:102FE3000C851882851983AC82AD837583867582BF
:102FF3007A7408120775F50DEEFCEFFD85188285CE
:103003001983AA82AB831249807003750D01900363
:10301300B1803BEEFCEFFDE508240BFAE509340033
:1030230012497F601E850882850983A3A3E0650C8E
:103033007011850882850983E0650A7004A3E06541
:103043000B6038E5082414F582E509122A7B123453
:10305300F0E50845096024E50DA2E040B685088245
:10306300850983E0650A7004A3E0650B70D58508C4
:1030730082850983A3A3E0650C70C8AA08AB097411
:1030830008022499C082C0839003B1023C8074F784
:103093001203679003B112392A8012EA2414F582CD
:1030A300EB122A7B1239071213F7EEFAEFFBEA4B06
:1030B30070E99003B1E4F0A3F0024CF67F07020538
:1030C300C774F1120367EAFEEBFF890A8C088D09C6
:1030D3008E828F83E08C828D83123B97AE82AF8387
:1030E300E01243701242E1C4124370123182E05481
:1030F300038C828D831242DFA2E2E4338C828D83C0
:103103001242DE131313541F1243701242DDA2E75F
:10311300E4338C828D83A3A3A3A31231828E0C8FFD
:103123000D750E00780C1208367C087D00E5082426
:1031330007124F25120868124F908E0C8F0D780CD2
:103143001208367C037D00E508240F124F25120870
:1031530068E50AC3940F40148E828F83A3A3A3E070
:10316300C0E0123179122A7BD0E080061231791245
:1031730053EDF00230BFE5082412F582E50922A3DE
:10318300A3123B9B0EAF832274F412036774F912EC
:1031930008E3EAFEEBFF8908900334124701600E4F
:1031A3001232157009EEFAEFFB120E09805F9003DD
:1031B30063E06E7003A3E06F7053740165086009E8
:1031C3007A777B0312498070447A007B0212373F7F
:1031D3008B0BEA450B7036900366120A7F851882C3
:1031E300851983120A8B90036CE0C0E07404120A01
:1031F300A2D0E0F07405120AA27401F07406120A58
:10320300A2124C7D120B7BE9609B120B81740702A7
:103213002B3A12321B640222125181A3A3A3A3A34C
:10322300A3E02274F51203678A088B098A828B83D1
:10323300A3AE82AF83E0F9120BCF8E828F83E0645B
:10324300EB600C850882850983A3E064E17009853E
:103253000882850983A3E4F0122269750A01780ABA
:1032630012083E850882850983A3E0F508780812D1
:10327300083E7900122F77120868120CEF0256826B
:10328300EAF0A3EBF0023C8374F61203679003B4F5
:10329300E0701B7C0079017A007B00120D1FEA4B62
:1032A300600C8A828B831247016003120C7D0247F4
:1032B3000AC082C083123727401079FF120D19E923
:1032C300F890205FE493C398500479018002790059
:1032D300023C8374F01203678A088B09890B750C0F
:1032E300008A828B83A3A3A3A3A3A3A3A3E0F912BE
:1032F3000D258A0E8B0FAE0EAF0F750A01EE4F60D0
:10330300030233B4850882850983A3A3A3A3A3A3DC
:10331300124FB2850882850983A3A3A3A3A3A3A302
:103323001240B0124AB0120D0D8A0C8B0DAE0CAFC9
:103333000DEE4F70030234D78E828F83A3A3A3A312
:10334300E4F0A3F0E508240B1234E3E0C0E0122A12
:1033530075D0E0F0120DE5EE240CF582EF1246D5A0
:10336300E508240EF582E5091238D8EE240EF5821D
:10337300EF124749750C01EE2406F8EF1234DF54BF
:103383007FF0A3E054FC125217E0540460030234AC
:103393003A900CF81240A17407780812095F8E82E4
:1033A3008F83A3A3A3A3A3A3E04508F0A3E0450948
:1033B300F08E828F83A3A3A3A31234EE740778083D
:1033C300120A54E5085407F508E50B607A8E828FDC
:1033D30083A3A3A3A3A3A3A3A3A374021242E224DC
:1033E3000D123DB0E0A2E2500B90035112477DA3B2
:1033F300A312474CE50870030234ACEE2406F8EF41
:103403003400F9E8FAE9FB8A828B83E0547FFCA35A
:10341300E054FCFDE50824FFF508E434FFF50974E6
:1034230007780812095FEC4508F8ED4509F98A8227
:103433008B8312474C80728E828F83A3A3A3A3A393
:10344300A3E044800233B3E5087005750A00805990
:103453008E828F83A3A3A3A3A3A3E054206012129D
:10346300134FEA547F245F8E828F83A3A3A3A38089
:10347300238E828F83A3A3A3A3A3A3E05410600A84
:1034830012134FEA540F240A80DD8E828F83A3A385
:10349300A3A37401F0A3E41234F874041237368B37
:1034A30009EA450970031246C8E50CA2E050288ECC
:1034B300828F83A3A3A3A3124CE3F9EEFAEFFB12CB
:1034C3000D13E960121246F760031238C0EEFAEFEB
:1034D300FB1213F7750A00A90A024E6E1248402226
:1034E300FAE5093400FB8A828B8322A3A3E0F50863
:1034F300A3E0F509221234FC22124F41A3A3A3A394
:10350300A32274F412036774F71208E37E00120D0A
:1035130025EA4B70030235C78A828B83A3A3A3A337
:10352300A3A3A3A3A3E0640660030235C78A828B27
:1035330083A3A3A3A3A3A3A3E0FF8A828B83123D48
:10354300C3E0C0E07408120AA2D0E01238FB1249AB
:103553008612474C120D37EF540860668518828532
:103563001983124FB27A007B00120D078B0BEA45C9
:103573000B704F9003631239EB121B6B7C007D00C1
:103583007A007B0080288E828F831238E5F47003E3
:10359300A3E0F4602D9003631235CE124AB01218E3
:1035A30035E9641A601C7C007D00EEFAEFFB120D16
:1035B300078A0A8B0BAE0AAF0BEE4F70C979001264
:1035C3001B717E01EEF97409022B3A1235D222E007
:1035D300FCA3E0FD8E828F8322C082C083EA4B70FE
:1035E300059003B580068A828B83A3A31237EB6011
:1035F300258A828B83A3A3A3A3A3A3A3E054086078
:10360300E5EC4D60158A828B831238E56C7003A359
:10361300E06D70D280047A007B00023C8374F21266
:103623000367EAFEEBFF890A8C088D097A107B0099
:103633001213F1EA4B603F8A828B83A3A3A3A3A354
:10364300A3A3A3A3E41238E9A3E50A125187A312A3
:1036530036838A828B83A3A3A3A3E4F0A31238F552
:10366300A3F012501BEA240CF582EB123B871236AF
:103673007CA3A3F0A3F002249CA3F08A828B832271
:10368300A3A3E508F0A3E509F02274F4120367EAA3
:10369300FEEBFF89088C0A8D0BEE4F6055740165B4
:1036A3000870147901120D19E9F8902057E493C3B7
:1036B30098500F7911806A74046508702F123727A8
:1036C30040F18E828F83A3A3A3A3A3A3A3A3A3E504
:1036D30008123B97A312570C8E828F83A3A3E4F0A7
:1036E300A3F09003B51247016021800D74026508B1
:1036F30060D079C1802BE0F8A3124776A3A31237D9
:10370300EB88828983A3A370ED80039003B5EEF069
:10371300A3EF1237368B0BEA450B70031246C879B9
:1037230000022B3D7904120D19E9F8902054E4931B
:10373300C39822F012373B227A207B009003B0E03B
:10374300F91214BD22C082C083E9F879009003B551
:10375300801D8A828B83A3A3A3A3A3A3A3A3A3E014
:1037630068600574FF687001098A828B83A3A312C2
:1037730037EB70DE023C8374F7120367EA4B700584
:103783009003B580068A828B83A3A31237EB602450
:103793008A828B83A3A3A3A3A3A3A3A3A3E0697098
:1037A300E4EC60148A828B83E0240D124FA3A2E21F
:1037B30040D380047A007B00024CF6C082C0839021
:1037C30003B580068A828B83A3A31237EB60128A28
:1037D300828B83A3A3A3A3A3A3A3A3E06970E58020
:1037E300047A007B00023C83122B33EA4B2274F2EF
:1037F3001203678A0A8B0B8C0C8D0D7508007509F3
:1038030000EA450B602E9003B580068E828F83A35A
:10381300A312383E601EAC0CAD0DEEFAEFFB850A29
:1038230082850B831204E2E9640170DFEEF8EFF99D
:1038330088088909AA08AB0902249CE0FEA3E0FFDB
:10384300EE4F2274F71203679003B51238DB7C0046
:103853007D00800DE8FCE9FD88828983A3A31238EB
:10386300DBE8496030EA687002EB6970E79003B502
:10387300124AB0E86A7002E96B88828983A3A37055
:10388300081238DB9003B580091238DB8C828D83F4
:10389300A3A312474C024CF674F7120367EAFEEB3C
:1038A300FFEE4F6015120D3112390D1246F760030A
:1038B3001238C0EEFAEFFB1213F7024CF6EE240CAB
:1038C3001238CD12392222EE241DF582EF3400F591
:1038D3008322F582EF1238D0123C7A22F582EF125E
:1038E30038D0123902221238ED2212518FA3A3A32A
:1038F300A3221238EDA3A32212367D12390222121B
:10390300517AE022E0FEA3E0FF228E828F83E0243F
:103913001C123DB41239228E828F83123922221255
:10392300392AFB1213F722E0FAA3E022C082C083F4
:10393300EAFCEBFDEC4D700479058044EC24FBF5C7
:1039430082ED34FF1246FF7007123986E0F46005FA
:1039530012135B80E39003B0E0C0E0123986D0E03D
:10396300F090205BE493F97AB77B03121385E96443
:1039730001700B7A007B201246CC79008002790417
:10398300023C83EC24FFF582ED34FFF5832274F4CB
:10399300120367A2AFE433F508C2AF9003B712383E
:1039A3003E6038EE24FBF582EF34FF1246FF7A00C7
:1039B3007B209003B060051246CF8005E0F9121317
:1039C30091E4F50AF50B780A12083AEEFCEFFD7A5A
:1039D300B77B0312137F7402120868E508A2E09212
:1039E300AFEEFAEFFB022B3D124FB6851882851915
:1039F30083AA82AB832274F212036774FC1208E376
:103A0300EAFEEBFF750AFE750BFF120CF5E9600584
:103A13007911023B7CEE2415122B456037900D0C77
:103A2300E0C43354E0F8E0333354FC48C0E0EE2400
:103A330015122A78D0E0123B97123B8D8B09EA4589
:103A4300096011750AFFEE240F122B454404124737
:103A53005AD2E0F08E828F831224616006EE241224
:103A6300123B84EE2413122B45701090205AE493DA
:103A7300C0E0EE2413122A78D0E0F08E828F83E028
:103A8300A2E750045403801CEE2414122B45701536
:103A9300900342E0C0E0EE2414122A78D0E0F090C4
:103AA3000342E004F0EE2411122B456401701690DA
:103AB30005C9E0600D90034DE0700A8E828F83E0AC
:103AC3007003123B818E828F83E064017013EE24B6
:103AD3000B1238DF64027009EE240F122B454440A9
:103AE300F0851882851983AC82AD83EEFAEFFB1261
:103AF3000D5B8A088B0974FE650A700374FFF4700A
:103B0300098E828F83A3A3124F31EA450960668E23
:103B1300828F83E0C0E07401120AA2D0E0F0740245
:103B2300120AA212501F7401120AA285820C858305
:103B33000D780C12083AEE240F122A78120681EE41
:103B4300240E122B45F50C780C12083E90035612E6
:103B530006817407120AA2E0F9AC0AAD0B120D55E7
:103B63007407120868E9FE74106E700BAA08AB099B
:103B73001213F780027E10EEF97404022499EE24E6
:103B830011F582EF1238D0E4F022A3122B3379FF20
:103B9300121C1922123B9B22F08E828F83A322C018
:103BA30082C08374DE1208E38A828B83A3A3A3A358
:103BB3001238DB740E120AA2E8F0A3E9123C717406
:103BC3000C120AA2123C6A240DF582EB122B48C098
:103BD300E0741A120AA2D0E0F0124E7EEB1238D82B
:103BE3007420120AA2123C6A2415F582EB122B48A8
:103BF300C0E07408120AA2D0E0F0EA241CF582EBBC
:103C03001238D87412120AA2123C6A2411F582EBFC
:103C1300122B48C0E07409120AA2D0E0123C5E7471
:103C2300FFF07401120AA274FFF07402120AA27464
:103C3300FFF09086CE12067D7404120AA2AC82AD08
:103C4300837407120AA2AA82AB83120BA57404120F
:103C53000868790074221208688025123C6222F0F9
:103C630085188285198322E8F0A3E9F0EA22123647
:103C73007DA3123C7922A3E0F8A3E0F922124AB013
:103C8300D083D08202081A74EC12036774EE120810
:103C9300E38A128B13ECFEEDFF89097426120AA244
:103CA300124F317428120AA2E0F5107429120AA2E5
:103CB300123DA5742B120AA2E0F50EA3E0F50F75D1
:103CC30008107A1E7B001213F17402120AA2124624
:103CD300D97402120AA21247017003023D9E85188D
:103CE30082851983AA82AB8379501245B4124AB0F4
:103CF3007402120AA2123DC3A31246D97410120A07
:103D0300A212570E7402120AA2E0240B123DB074E1
:103D130002F0120AA2123DC37402F0120AA2125157
:103D23007212501F7402120AA2124AC5E509F074F6
:103D330002120AA2E0240C123DB0E510F074021244
:103D43000AA2123DADE512F0A3E513F07408120ABE
:103D5300A2E50CF0A3E50DF0740A120AA2E510F037
:103D6300850E82850F83C082C083740D120AA2ACB4
:103D730082AD83D083D0827403120775F974021263
:103D83000AA2AA82AB83120CFBE9640170057508D1
:103D93000080087402120AA21238C6A9087412021B
:103DA3004F48E0F50CA3E0F50D22E0241C123DB4CE
:103DB30022F8A3E0123DBB223400F98882898322D2
:103DC300124AB8A3A3A3A3A32274EE120367EAFEC5
:103DD300EBFF8C088D098E828F83A374081247959D
:103DE300E060088E828F83A37410F0122B42600967
:103DF3008E828F83A3E02408F0EE2415122B4560F6
:103E0300088E828F83A3E004F08E828F83A3A3A303
:103E1300A3A3A3E060198E828F83A3A3A3A3A3A369
:103E2300A3E0C3332402F88E828F83A3E028F0EE4D
:103E33002411122B456005750B0E8003750B008E44
:103E4300828F83A3C082C083EE240D122B45D083BF
:103E5300D082F8E028250B8C828D83F0EE2411129A
:103E63002B4560051242C028F0850882850983E04E
:103E7300C394754009750800750900023FAEE0FA66
:103E83007B001250CD7003023FAEEEFAEFFB120D32
:103E930061EA8508828509831246DAEE2402F8EF87
:103EA300122DA21240A8123FEAF0EE24040808EFF4
:103EB300122DA21244EAA3123FEAA3A3F0EE2413A5
:103EC300123FD0F0EE2414123FD0A3F0750A08EE8F
:103ED3002416122B456010EE2418124FAFE5082468
:103EE300081251B0750A10122B426016EE241A12F2
:103EF3004FAF850A0CE508250C1251B07408250A4A
:103F0300F50A8E828F83A3A3A3A3A3A3E06059EE34
:103F13002407F510EF3400F511851082F583E0C016
:103F2300E0123FB7122A7BD0E0123FDAE0C0E01282
:103F33003FB7122A7BD0E0123FDAA3123FC3120825
:103F430036851082851183E0C333FCE433FD850A93
:103F53000CE508250C124F2512086885108285117F
:103F630083E0C333250AF50AEE2415122B45600BB3
:103F7300C0E0123FB7122A7BD0E0F0122A75123F3D
:103F8300C3120836EE240D122B45FC7D00850B0A67
:103F93008E828F83A3E0F8E50828F8E5093400F959
:103FA300E8250AFAE9124F28120868AA08AB097F24
:103FB3000A0205C7850A0CE508250CF582E50922E6
:103FC300E0F50CA3E0F50D750E00780C221238CD48
:103FD300123FF4A3A3A322F0050A8E828F83A3A327
:103FE300A3A3A3A3A3A322A3A312521BA3123FF42D
:103FF300221244EEA3A32274F61203678A828B83F0
:10400300E0FC9003531240A17402780812095FEC9C
:104013004508FCAD09EA241212409B740678081285
:10402300095FEC4508FCED4509FDEA2415F582EB33
:10403300122B486004780180027800E4C8F9ED4946
:10404300FDEA2411F582EB122B48F508880974095F
:10405300780812095FED4509FDEA241612409B74A6
:104063000B780812095FED4509FDEA241712409BFE
:10407300740C780812095FED4509FD8A828B83A3CE
:10408300A3A3A3A3A31240A1740A780812095FECA7
:10409300FAED4509FB02470AF582EB1238D0E0F549
:1040A3000875090022E085088285098322A3E0F9C7
:1040B3008508828509832274EE1203678A0A8B0BB3
:1040C300ECFEEDFF750F01E9C3940850057900027A
:1040D30042AD8E828F83E9F0124513E96003750FB9
:1040E300001244F78E828F83124541EE124E7FEF0A
:1040F300124536C0E0EE2411122A78D0E012452E84
:10410300C0E0EE2412122A78D0E0123B9774081212
:104113004F39A3A3A3E060151244DFEE2413F58205
:10412300EF1247498E828F83A3E02408F08E828F9B
:1041330083A3A3A3A3A3A3A3A3E060218E828F835E
:10414300A3858208858309124522EE2415F582EFA3
:10415300124749850882850983E02408F08E828FFF
:1041630083A3A3A3A3A3E0601A8E828F83A3858274
:10417300088583091245068E828F83A3A3A3A3A375
:104183001242D2EE2419123B84EE241B123B84A369
:1041930012478DE07003024241EE2419F8EF340018
:1041A300F98E828F83A3858208858309E0FAE50A65
:1041B3002AF582E50B122B48888289831242D2FAB0
:1041C300E50A2AF582E50B122B48C0E0EE241A1209
:1041D3002A78D0E01242D288828983E06059F8902D
:1041E3002053E493C398500575110C8008EE2419ED
:1041F300122B45F5118E828F83A3E0F8E50A28F58B
:104203000CE50B1242B6120836E511C333FCE43356
:10421300FD7AA97B0B1242B0120868EE241B122A06
:104223007874A9F0A3740BF0E511C333F885088201
:10423300850983E0288006EE24181253EAF08E8263
:104243008F83A3E0F88E828F83E0C39850030240EC
:10425300D0A3E0FA8A08E50A2508F8E50B3400F94B
:10426300EE241DF582EF1248551242E2C39AC0E0D4
:10427300EE2417122A78D0E0124752602BEE24174F
:10428300F8EF3400F9880889098882F583E024F27D
:10429300124836240EFAA3E03400FB888289831285
:1042A30046D91242C0C398F0A90F023FB21213318C
:1042B3007403223400F50D750E00780C2290034E22
:1042C300E0F9120AE5E9F8850882850983E022F01E
:1042D300850882850983E004F022A3A3A3A3A3F0A6
:1042E3008E828F83E02274F41203678A088B09EAB3
:1042F300124377F0EA1313543F124370A3A3A3F0BE
:10430300EAC41313124377A3A3F0EB1243691243D6
:10431300817409780A120A54124367124380740A9B
:10432300780A120A54E50A5401C0E0EC2418F58215
:10433300ED122A7BD0E0124386740B780A120A54DA
:10434300124367A3124380740C780A120A5412436F
:1043530067A3A3A3A3A3A3A3A3F0740D7808120ACE
:10436300540226A7E50A54018C828D8322540F8CB4
:10437300828D832254038C828D83A3A322A3A3A3C0
:10438300A3A3A3F08A0A8B0B22C082C08379008A7D
:10439300828B83A3A3A3A3A3A3E090034D600FE0A9
:1043A30070228A828B83A3A3E07019098016E060D0
:1043B300138A828B83124AA7900356E06A7003A381
:1043C300E06B70E7023C8374F01203678A0A8B0B7D
:1043D300890C8C088D091245131244F785088285D0
:1043E3000983124541E508124E7FE509124536C09F
:1043F300E0E5082411F582E509122A7BD0E0124595
:104403002EC0E0123179122A7BD0E012485D740885
:1044130012487660111244DFE50824131248511242
:10442300485DE02408F0850882850983A3A3A3A33C
:10443300A3A3A3A3E06017850882850983A312457C
:104443001EE50824151248511242E22408F085089B
:1044530082850983A3A3A3A3A3E0601985088285AA
:104463000983A3AE82AF831245068508828509833B
:104473001242DD04F0AA08AB09120D73E9F50D70C1
:1044830056850882850983A3A3A3A3A3A31244EAA1
:104493007014E0FA8A0EE50A250EF8E50B12473E82
:1044A300E50CC39A802112451EE8240EF8E9124751
:1044B3003E90034EE0F9120AE58E828F83E0F8E521
:1044C3000CC39824F2C399C0E0E5082417F582E5EC
:1044D30009122A7BD0E0F0A90D024E6EE50A2408EA
:1044E300F8E50B3400F9221244EE22E085088285B8
:1044F3000983A322850A82850B83A3A3124557E070
:10450300F9EA22E0F8E50A28F582E50B124765226D
:104513008A828B83124E73120D6D22AE82AF83E0BB
:10452300F8E50A28F8E50B3400F92212456AA3A33B
:10453300A3E0221238D0E8124563A3A3E022A3A389
:10454300A3A3A3A3A3A3A3124563124557A3A3E065
:10455300F9EAF822E0FA850A82850B83A3A3A32252
:10456300F0A3E912456A22F0850A82850B83A3A38F
:10457300A3A322C082C0837AC57B0379E2121B3BCB
:104583007AC57B03023C83C082C083900356023CFE
:1045930080C082C08374FE1208E385188285198364
:1045A300AA82AB83794B1245B4124AB07402023C1F
:1045B30059121B3B85188285198322C082C08379D7
:1045C3004A121B3B023C8374F61203679003CDE04F
:1045D300FE04F0EEF9120D258B09EA450970EDEEA4
:1045E30060EAF902470A74F0120367EAFEEBFF8CF4
:1045F300088D09890A7410120AA2E0F50B741112CE
:104603000AA2E0F50C120E45EA4B7013E50C70425A
:10461300A90AAC08AD09EEFAEFFB120E5D806EE558
:104623000A6021EA2402F582EB122B48850A082549
:1046330008F8E4340013E813F070098A828B83A32B
:10464300A37401F0E50C6045E50B70068A828B8349
:10465300E4F07401650C7035E50B9003D47004E449
:10466300F0802AE004F0900CF9E0F89003D4E0C362
:1046730098401AE4F0900359E06E7003A3E06F7062
:104683000CEEFAEFFB7901120BC9124693024E6E40
:104693007A017B009003B0E0F91214B722C082C004
:1046A3008374016A7001EB70077A011246CA8012A3
:1046B300900CF01246D9EA4B6005122423800312B2
:1046C3004693023C837A207B009003B0E0F91213F7
:1046D3008B223400F583EAF0A3EBF022C082C0837F
:1046E300900CF2023283C082C083900CF4023283B6
:1046F30012518122EE240CF582EF3400F583123C33
:104703007AE849221208687F020205C7A2F0E4335F
:1047130085188285198312472B7952121B41221265
:10472300472B7942121B4122F0AA82AB8322AA08AB
:10473300AB099003B0E0F9121361223400F9E508E4
:10474300241DF582E5091238D0E8F0A3E9F022121E
:104753004F3DA3A3E022A3F0EE241512476222F5F6
:1047630082EF3400F583E02212476F223400F58391
:10477300E0F8A3E0F98882898322E0F812478322D4
:10478300A3E0F98E828F83A3A322F0EE24181238BC
:10479300CD22F0EE24161238CD2274F4120367EA08
:1047A300FEEBFF7A007B0412469712482C12474C0B
:1047B3009003657409F0120D7F8A088B09AC08AD6C
:1047C30009EE2413122A78124AB012498064017048
:1047D300487A0F12481F60418A828B837402124801
:1047E30036FAA3E0FB8A828B83A3E0FC8A828B8365
:1047F300A3A3E0FBEC850882850983A3A31246DA11
:1048030088828983124AB41240A8124759FAA3E056
:10481300FB794A121B41124731022B3D7B001213D5
:10482300558A088B09EA450922900336123C7A908F
:104833000CF422F0EE241DF8EF12484022123DBB87
:10484300E022124849223400F5837401F022F582F4
:10485300E5091238D0E8F0A3E92212486122124890
:104863006522F0850882850983A322124865A3A3E4
:10487300A3A32212486EA3A3E022124C87120DD3E6
:1048830022EE2417F582EF124849120D7FEE241A07
:104893001238CDEAF0A3EBF02274F412036774F339
:1048A3001208E38908EAFEEBFF7C0D7D00790085A1
:1048B3001882851983AA82AB8312133DEE241D123D
:1048C3002A78125172A3E0F8741F58600A79011212
:1048D3001AED7900024977E8A2E55008740C120A30
:1048E300A27401F0E8A2E75008740B120AA2740143
:1048F300F0E8A2E6740A5008120AA27401F08008D4
:10490300120AA2E064017005EE24138003EE24155D
:10491300124FAF7402120AA2AA82AB83121B29128E
:104923002A7512498512474C740A120AA2E06401DF
:104933007033122456703B120D8B8A0A8B0BA80A14
:10494300A90BEE240B122B45687003A3E0697022B8
:10495300120D7FEAFCEBFD7402120AA2AA82AB835A
:10496300124980600D851882851983AA82AB831250
:104973000BC3A908740D022B3AEEFAEFFB121B23AB
:10498300E922E012498A22F8A3E0F9851882851901
:10499300832274F612036774F31208E38A088B09FF
:1049A300ECFEEDFF7C0D7D0079008518828519836F
:1049B300AA82AB83125317A3A3A3A3A3A3A3A3A363
:1049C300124A1F124A28F8A2E55008740B120AA2D1
:1049D3007401F0E8A2E75008740A120AA27401F005
:1049E300E8A2E6EE5004241380022415124FAF749C
:1049F30002120AA2124A11A3A3E0C0E0740C120A25
:104A0300A2D0E0124C7F120BBD740D024707AA829D
:104A1300AB83121B2985088285098322E012498A08
:104A2300E8F0A3E922F01238CA125176A3E0227407
:104A3300F712036774E11208E3EAFEEBFF8E828F3D
:104A430083124AB4A3A3A3E0A2E050518E828F83C2
:104A53001225B68A828B83A3A3A3A3A3A3E054FE48
:104A6300124ACC8A828B83124AC5E0F98A828B83ED
:104A7300E0241CFAA3E01234E6124AB0120D79E9DD
:104A8300701B741D120AA2124ABF70118518828509
:104A93001983AC82AD83EEFAEFFB120DC1024CF128
:104AA3008E828F83A3A3A3A3A3A3A3A3A3122B33B6
:104AB30022124AB82212517AA3A3A3221239026402
:104AC3000422E0241B123DB422123C62AC82AD836B
:104AD30022E9F87900740468600A740A686005744E
:104AE300036870010902081A74F61203678A828B3D
:104AF300837420F0A3A37401F0120B6F8A088B094F
:104B0300AE08AF09EE4F60108E828F837401F09070
:104B130003A3E07003124884EEFAEFFB02470AC0D6
:104B230082C0839003B97401F0E9A2E350037403D4
:104B3300F0E9A2E15004E0D2E2F0023C8374F61201
:104B4300036779007C008A088B097808120581F8CD
:104B5300FF07734B714B714B714B714B6A4B6E4B30
:104B6300734B674B0C80097C0480050C80F67C0832
:104B73009003B9E05C6003098003EC60010902471C
:104B83000A74F61203678A828B83E07012A31247BA
:104B930001600C8A828B83124AAF121C4380047A11
:104BA300007B0002470A74F512036774F31208E3EB
:104BB3008A088B09ECFEEDFF750A12EA45097005B8
:104BC3007900024C78900356E065087004A3E06511
:104BD300097014120D7FEAFCEBFD12497C70057518
:104BE3000A018003750A00851882851983E4F0049D
:104BF300120AA2E508F0A3E509124C7F120B33E970
:104C030060277403120AA2AA82AB83120B15E9640C
:104C1300017016750A017403120AA2AC82AD8312E5
:104C2300497C6021750A00801C7412650A70169015
:104C330003A2E06402700EEEFCEFFDAA08AB0912BA
:104C43000B4BE970DFEEFCEFFDAA08AB09120E4B2C
:104C5300E9F8740A687005750A01801774A0687012
:104C630012EEFCEFFDAA08AB09120E57AA08AB0916
:104C7300120E69A90A740D02567F7402124C832224
:104C8300124C8722123C62AA82AB832274F712036E
:104C930067EAFEEBFF8E828F83A3A3A3A3A3A3A341
:104CA300A3E06015EE2415122A78122B23120DEBC4
:104CB300E964017004790180258E828F83A3A3A305
:104CC300A3A3A3A3E06015EE2413122A78124CE3E6
:104CD300FAA3E0FB120DEBE9640160D979008013BC
:104CE3001235D2A3A3A3A3A3A3A3A3A3E022741F58
:104CF3001208687F010205C774F012036774FD127E
:104D030008E38A088B09ECFEEDFF890B7413120A82
:104D1300A2E0F50C750A017401120AA2740412517F
:104D2300AA6048E50C601DEA2417F582EB1253EDE7
:104D33001251988A828B83E0D2E7F0EA2414F58239
:104D4300EB123B87124E7EEB12476B740312571024
:104D5300EE88828983A3A3F0EF88828983A3A312B9
:104D6300367C123683120B69E9F50AA90A74030229
:104D73004E6B74EC12036774F51208E38A0A8B0B0B
:104D8300890C8C0E8D0F741F120AA2E0F50D74208E
:104D9300120AA2E0F510A3E0F5117E01EE120AA2B9
:104DA300740AF0E97007E50DC333240AF0124F507B
:104DB3007003024E52124F657409F0A3E50CC4331D
:104DC30054E0450D124F77E50C702D7C008023ECE9
:104DD300C333F8E433F9E51028F8E51139F988828B
:104DE3008983124E5F88828983122D95F0A30EAFBB
:104DF300830CECC3950D40D7E5082417F582E5092C
:104E0300124845120D7FE508241AF582E50912467A
:104E1300D57403120AA2AC82AD83AA0AAB0B120BA0
:104E23001BE96019E5082416F582E509124E5912AB
:104E33000AA2A882A983E508241812474585088297
:104E430085098312570CAA08AB09120B69E9FEEE18
:104E5300F9740B024F48124849740322E08E828F83
:104E630083F0A3AE82AF83221208687F080205C7CE
:104E730012392AF9EA2400E439FB22EA240BF582E9
:104E83002274EE1203678A0C8B0D890E8C088D0930
:104E93007412120AA2E0F50F7413120AA2124F3110
:104EA3009005381247016077E50FC333F8E433F90F
:104EB300E8240EFAE93400FB1213558A108B11AE65
:104EC30010AF11EE4F60588E828F8374D4F0A3A37A
:104ED300E50CF0A3E50D124F39E50EF0AC08AD0972
:104EE300EE2405FAEF1251B3EE240D122A78E50FE2
:104EF300F0850A08850B09750A007808120836E55B
:104F03000FC333FCE433FDEE240EFAEF124F2812E5
:104F13000868EEFAEFFB9005381251721204E202B0
:104F23003FB2FAE5093400FB121331740322E0F5B2
:104F33000AA3E0F50B22124F3D22124F4122123BEE
:104F43009BA3A3A3221208687F0C0205C7851882BE
:104F5300851983AA82AB83120DD38A088B09EA458C
:104F63000922EA240BF582EB124765FEA3E0FF8ECC
:104F7300828F8322F0A3AE82AF83AC0EAD0FEEFA25
:104F8300EFFB124F8922121B29124F9022EE2408A5
:104F9300FEEF3400FF22E0FA8E828F83A3A3E02288
:104FA300FEA3E03400FF8E828F83E0221238CD12FD
:104FB3004FB622E0FCA3E0FD22122B33120D672231
:104FC30074F6120367EAFEEBFF9003BA801388823C
:104FD3008983E06E7003A3E06F603A88828983A3BC
:104FE300A312470170E87A047B001213F18A088B3D
:104FF30009A808A909E849601C8882898312501FFF
:105003009003BA124AB088828983A3A31246D99027
:1050130003BA12474C02470A8A828B83EEF0A3EF4E
:10502300F02274F41203677E009003BA80070E889F
:10503300828983A3A312470170F4EEC333FAE433E6
:10504300FB1250CD607E7F009003BA802488828952
:1050530083124FB2EFC333FAE433FBE5082AF58238
:10506300E5093BF583ECF0A3EDF00F88828983A378
:10507300A312470170D79003AB1224907003A3E0EF
:10508300697808701912083AEEF50A780A12083E90
:105093007C777D0379009003AB1250D8801A1208F5
:1050A3003AEEF50A780A12083E7C777D0379009080
:1050B30003AB124AB0120DFD7403120868AA08ABC1
:1050C300091213F7120B81022B3D1213F18A088B7D
:1050D30009EA450922122B33120E0322C082C08330
:1050E30080128A828B83A3A31238DB9003BA124700
:1050F3004C1213F79003BA1237EB70E6023C837439
:10510300F61203679003631239079003CE125161BD
:1051130012474C7ACE7B037950121B419003CE1277
:1051230026AFFAEFFB120E639003CE1239079005F8
:105133003A12470160257A067B00121355EA4B6049
:105143001A8A828B8374D5F0A3A3E41251870412C5
:10515300519890053A1251721204E202470A125111
:105163006522E0F8A3E0F9900363228E828F831215
:1051730051762212517A22E0F812518022A3E0F5EF
:105183008388822212518B2212518F22F08A828BC2
:1051930083A3A3A32212518BA3EEF0A3EFF022F576
:1051A30082EF124765F92212487DEA4B22FAE5099C
:1051B3003400FB121B2922124784A3A3A3A3A3A396
:1051C300A322902055E4932401F8E43400F97A02F1
:1051D3007B002274F71203677E0080041257C30E0C
:1051E3001252E740F77E00EE12520274FEF0A3045F
:1051F300125217E4F00EEEC3940340EB024CF67523
:10520300F003A4F8A9F074BC28F8740339F9888270
:105213008983A32212521B22F0888289832274F786
:105223001203677F0080010F902052E493F8EFC3CD
:10523300985026EF1253D36A7003A3E06B70E81201
:1052430057706C7003A3E06D600A74FF6C70037495
:10525300FF6D70D31252DE80047A007B00024CF69D
:1052630074F61203677CFF7DFF7AFE7BFF120E2725
:10527300EA4B70407508008036E50875F017A4F80E
:10528300A9F0744428F582740A1253E5600C744340
:1052930028F582740A1253E57013743528FE740AD4
:1052A30039FF8E828F831253F2EEFAEFFB05081259
:1052B300534D40C502470A74F41203678A088B09E9
:1052C300ECFEEDFF800B120E39EEFCEFFDAA08ABEE
:1052D30009120E27EA4B70EE022B3D743528FA743F
:1052E3000A39FB22902052E493F8EEC3982274F714
:1052F300120367EAFEEBFFEE4F601012531174FEC8
:10530300F0A30412571614F0A304F0024CF67C1712
:105313007D00790012133D8E828F832274F712036E
:1053230067EAFEEBFF7508008018E50875F017A41F
:10533300F8A9F012577B7003A3E06F60031257CBF9
:10534300050812534D40E3024CF6902052E493F8C3
:10535300E508C3982274F6120367120E278A088B96
:1053630009A808A909E849600AE8240DFAE9340004
:10537300FB80047A007B0002470A74F41203678AF5
:105383000A8B0BECFEEDFF750800750900802EE516
:105393000975F017A4F8A9F01257B6601EE50912B3
:1053A30053D3650A7004A3E0650B700375080AEE16
:1053B300FCEFFD12567260034308A00509902052CA
:1053C300E493F8E509C3985004E50860C20226A7F0
:1053D30075F017A4F8A9F01253DE22743528F5826C
:1053E300740A39F583E022F582EF1238D0E42212F1
:1053F3002B33120C5F2212521BA3A3A3A3A3A3A3B9
:10540300A32274F21203678A088B09ECFEEDFF7482
:105413000E120AA2124F31750C007C007D01801020
:1054230012134FE50CF5F0EA84ACF0750C007D0027
:105433007800790080031255AF12560B40030254D3
:10544300D1E8FAE9FBEA75F017A4FA85F00D75F0D7
:1054530017EBA4250D1255E77003A3E0F460D712F0
:1054630055C565087004A3E0650960CA1255C56E89
:105473007003A3E06F60BF1255C5650A7004A3E013
:10548300650B60B2E8FAE9FBEA75F017A4FA75F068
:1054930017EBA4250DFB74432AF582740A1255A653
:1054A300509474016D050C608DE50CC39C4087E836
:1054B30075F017A4F8AAF075F017E9A42AF9743562
:1054C30028F582740A39F583124AB00255A378008D
:1054D300790080031255AF125618400302558AE82B
:1054E300FAE9FBEA75F012A4FA85F00D1255F76498
:1054F300FE7003A3E0F460DC1255ED65087004A3AD
:10550300E0650960CF1255ED6E7003A3E06F60C4D0
:105513001255ED650A7004A3E0650B60B7E8FAE97C
:10552300FBEA75F012A4FA75F012EBA4250DFB74D7
:10553300C42AF58274081255A65099E8FAE9FBEAE1
:1055430075F012A4FA75F012EBA4250D1255B86488
:10555300016081E0640270030254D774016D050C8D
:1055630070030254D7E50CC39C50030254D7E8756B
:10557300F012A4F8AAF075F012E9A42AF974BB2872
:10558300F58274080254C8E50C6011EC700E7401C6
:10559300650C60030254237C0102542E7AFE7BFFC8
:1055A30002249C3BF583E014C3940622E8240108FB
:1055B300E93400F922FB74BF2AF58274083BF583B2
:1055C300E022E8FAE9FBEA75F017A4FA75F017EBA5
:1055D300A4250D1255DA22FB74352AF582740A3B91
:1055E300F583E0221255DA64FE22E8FAE9FBEA7554
:1055F300F012A4FA75F012EBA4250DFB74BB2AF587
:105603008274083BF583E022902052E493FAC3E8C6
:105613009AE994002290204DE493FA740193FBC31A
:10562300E89AE99B2274F51203678A088B09ECFE5A
:10563300EDFF750A008002050A902052E493F8E515
:105643000AC3985028EEFCEFFDE50A75F017A4F89D
:10565300A9F012567260E0E50A75F017A4F8A9F0F4
:10566300743528F582740A39F583123685801074EF
:105673003728FA740A39FB121B23E9221208687FC0
:10568300030205C774F01203678A088B098C0A8D1D
:105693000B890C120E2D8A0E8B0FAE0EAF0FEE4F31
:1056A3006055125311E508F0A3E509125716125776
:1056B3000EE50C600AEE240F122A78E50C8006EE44
:1056C300240F125706F09003D0124701601A90037B
:1056D300AAE064017008EE240E1253EA8010EE244F
:1056E3000E122A7874078006EE240E125706122F24
:1056F300CB1202161256FD024E6EEE240D1238CD59
:10570300E8F0221238CD740122A3A3E50AF0A3E541
:105713000BF0221234FCA32274F51203678A088B60
:1057230009ECFEEDFF750A00800F12577B7003A38F
:10573300E06F60031257CB050A902052E493F8E51B
:105743000AC3985025E50A75F017A4F8A9F0125773
:105753007065087004A3E0650970CF743F28F58273
:10576300740A39F58312501F80CD025682743F2884
:10577300F582740A1253E522743F28F582740A12E3
:1057830053E56E2274F7120367EAFEEBFF75080018
:105793008019E5081253D36E7003A3E06F700A12E9
:1057A30057B67005E5081257C4050812534D40E279
:1057B300024CF6743728FA740A39FB120B15E922E6
:1057C300EE75F017A4F8A9F01252DE120E39221268
:1057D300521B123C7AE84922C082C08374F8120833
:1057E300E3851882851983AC82AD837583867582C0
:1057F300627408120775851882851983AC82AD839C
:1058030012498064017004790080027901740802EE
:105813003C59C082C0838A828B83E0D2E7F01215A1
:10582300BF0262A9C082C0837900125CE112728256
:10583300C082C083900330126EA4D083D082C3E0B1
:105843009CA3E09D500C127451FAA3E012585860C7
:1058530001090262A9FBEA75F00BA4FAA8F075F03E
:105863000BEBA428FB900332E02AF8A3E03B8882E9
:10587300F583E0540F2274F71203678908125CE181
:10588300125D87ACF075F00BE9A42CF9900332E0BC
:1058930028FEA3E039FF74016508600674026508F9
:1058A30070208A828B83125D7312695774026508B4
:1058B300701B125C32125DBA70138E828F83E4F018
:1058C300800BEA2403FCEB125D55125D61EEFAEFE7
:1058D300FB120AEB0265DC74F41203671278457954
:1058E300008E828F83E06076890A890B8065E50AE2
:1058F30075F00BA4FAA8F075F00BE50B1258657060
:1059030046E50A75F00BA4F8AAF075F00BE50B1247
:105913005D998E828F83E0850882850983125E7B81
:10592300850882850983A3126957EE2403FCEF12CD
:105933005D5E1264801271FCAA08AB09120AEB794E
:1059430001900330126EBFE50A2401F50AE50B341A
:1059530000F50B125C3AE50A9AE50B9B409002674F
:105963001074F5120367EAFEEBFF740B120AA2121E
:105973006485750A01EC4D602BEC127861ED1272AF
:105983008212694F7901120AF7E5084509606F85AC
:105993000882850983A312784F7902AA08AB0912FA
:1059A3000AF7805AE5084509602B127286126B7953
:1059B300126481125DA4700CEEFAEFFB120AFDE98A
:1059C300F50A80CBEE2403FA125CDC70317903EE26
:1059D300FAEFFB80CA8E828F83A3E064FE7003A379
:1059E300E0F4700BEE24030A0A0A125CDC700CEE7E
:1059F300FAEFFB120AFDE9F50A8003750A00A90A0A
:105A03007F030205C774F71203679003301265E141
:105A1300EA4B602FEA75F00BA4FAA8F075F00BEBD4
:105A2300A428FBEAFEEBFF1213F19003321265E1A7
:105A3300900332126EAB6012EEFCEFFD790012138D
:105A43003D8007900332E4F0A3F00265DC9003305D
:105A5300126E2FC3EE98EF9922C082C083EC4D6083
:105A630005121B2980097C087D00790012133D0271
:105A730062A974F61203677900EA4B60187800880C
:105A830008127408EB12744D60047901780808E871
:105A9300C3940840EA0265F474F712036774F312BF
:105AA30008E3ECFEEDFF851882851983E4F0041208
:105AB3000AA2EAF0A3EB126F8C7403120AA2AC825F
:105AC300AD83EEFAEFFB120B0FEEFAEFFB120B15A1
:105AD3000265D774F712036774F31208E3ECFEED63
:105AE300FF851882851983E4F0EAFCEBFD74031249
:105AF3000AA2125E747401120AA21265ED8E828FDD
:105B03008312695774FE68700374FF696004790136
:105B1300800279000265D774F7120367EAFEEBFF90
:105B2300125B787014125B838E828F83E0F4F88AA1
