:020000040000FA
:06000000020A3C0201C0EF
:03002B0002079A2F
:0300330002066A58
:030043000207347D
:030053000200FFA9
:03006B000206503A
:1000830002015C0101FF01010503010F10FEFFF0F6
:1000930012F012F012F012A611A011F0124725006F
:1000A300000000A925000000000C0000000C000166
:1000B30004FFFF414C442042726F616463617374B7
:1000C30000010101006A05000000DF05E803640088
:1000D3006400B801020200080000050207051E02C1
:1000E300051E020A0A03B80B02803E0102F1FF015A
:1000F300141F00E00796511800020206C0E074F2D4
:100103001203D9A2AFE433FED2AFE5A7FFE5A1F511
:10011300085F54106006121A8E75A1EFE5085F544C
:10012300086008121A9475A1F78024E508A2E092EA
:10013300F0EFA2E082F05017906198E0F8900ABACD
:10014300E0C398A2D265D0335002E8F075A1FEEE69
:10015300A2E092AF7F01020438C0E074F21203D927
:10016300A2AFE433FED2AF9061A4E0F8759B00E543
:100173009158540860087591F7121ADC8023E591B1
:1001830058541060087591EF121AE28014E591A299
:10019300E092F0E8A2E082F05007E0C2E0F0121C27
:1001A300269061A3E0F8E5E9585404600E121BFCA5
:1001B30075E9FB906193E0A2E640F28092C0E0749F
:1001C300F21203D9A2AFE433FED2AF9061A5E0F8F7
:1001D300E5BF585404600675BFFB121C3E02015272
:1001E300C3E498F8E499F91202248026C3E49AFA46
:1001F300E49BFBE920E7E9120224E498F8E499F987
:1002030022C3E498F8E499F9120224E498F8E499F3
:10021300F9C3E49AFAE49BFB22EB20E7CFE920E75A
:10022300E0B90010BB0008E88AF084F8AAF022E4E1
:10023300FBC8FA22EB70227B10C833C8C933C93319
:100243005007C39AC3DBF280069A50012ADBEAC83F
:1002530033F4C8C933F4C9FA2275F008E4C833C8C3
:10026300C933C933C99AC99B5004C92AC93BD5F0BC
:10027300ECFBC833F4C8E4C9FA22080808EAC0E072
:10028300EBC0E086F0E7A4FA180986F0E7A42AFA9F
:10029300180986F0E7A42AFA180986F0E7A42AFACF
:1002A3001986F0E7A4FBE5F02AFA190886F0E7A41B
:1002B3002BFBE5F03AFA190886F0E7A42BFBE5F0EF
:1002C3003AFA18180986F0E7A4C5F02BFBE43AFACA
:1002D3001908E7C5F0C6A426F6E5F03BFBE43AFAB5
:1002E3001886F0E7A4F6E5F00826F6E43B08F6E402
:1002F3003A08F6D0E0FBD0E0FA22E4CFC0E0E4CE47
:10030300C0E0E4CDC0E0E4CCC0E075F020C3E63348
:10031300F608E633F608E633F608E633F618181857
:10032300EC33FCED33FDEE33FEEF33FFC3EC970903
:10033300ED9709EE9709EF97191919400FFFEC97FD
:10034300FC09ED97FD09EE97FE191906D5F0BEECF1
:10035300F709EDF709EEF709EFF7191919D0E0FCE2
:10036300D0E0FDD0E0FED0E0FF222518C582C0E03A
:10037300E51934FFC583C0E0E518C3958224F8105E
:10038300AF088583198582188008858319858218AB
:10039300D2AFCEF0A3E520F0A37808E608F0A3DE01
:1003A300FAEFF0A3E58124FAF8E608F0A3E608F0F3
:1003B300A3E608F0A30808E608F0A3E608F0A315EF
:1003C300811581D0E0FED0E0F8158115811581E813
:1003D300C0E0EEC0E022C0D02518C582C0E0E51918
:1003E30034FFC583C0E0E518C3958224F310AF083A
:1003F3008583198582188008858319858218D2AF71
:10040300C8F0A3E9F0A3EAF0A3EBF0A37908E709A6
:10041300F0A3D8FAECF0A3EDF0A3EEF0A3EFF0A372
:10042300D0E0F0A3D0E0F0A3D0E0F0A3E520F0A368
:10043300E5F0F0A322851983851882E0C0E0A3E0EC
:10044300F9A3E0FAA3E0FBA37808E0F608A3DFFA38
:10045300E0FCA3E0FDA3E0FEA3E0FFA3E0C0E0A374
:10046300E0C0E0A3E0F5D0A3E0F520A3E0A3F5F01E
:1004730010AF0885831985821880088583198582C2
:1004830018D2AFD082D083D0E0F8D0E032120A9EE7
:10049300B900030204D2E49003017881790E80024B
:1004A300F0A3D8FCD9FA901081AA82AB839000867E
:1004B300787A79018015E493A3AC82AD838A828B29
:1004C30083F0A3AA82AB838C828D83D8E9D9E775A5
:1004D30082F37583E074031208187582E475831E32
:1004E300740012081875F0108E1A8F1B85821F85F1
:1004F300831E851882851983E0CEA3E0CF851F82F2
:10050300851E83EBC9EAC8EDCBECCAC3E833C8E95F
:1005130033C9EA33CAEB33CBC3EA9EF51DEB9FF530
:100523001CB35004AB1CAA1DEC33CCED33CDD5F07A
:10053300DAAE1AAF1B22D083D082ECC0E0EDC0E06C
:10054300E493A3FCE493A3FDED4C600D120611ECC0
:1005530024FFFCED34FFFD80EFE493A3FCE493A3BD
:10056300FDED4C600D1206DFEC24FFFCED34FFFDC6
:1005730080EFD0E0FDD0E0FCE493A3C0E0E493C0BF
:10058300E022D083D082E9C0E0E493A3C386F0C520
:10059300F095F0F908E493A386F0C5F095F0700B9D
:1005A300E493A3C3994005E9048002A3E475F00230
:1005B300A42582F582E5F03583F583D0E0F9E49351
:1005C300A3C0E0E493C0E022851983851882E0A3E9
:1005D300FEE0A3F5207808E0A3F608DFFAE0A3FF26
:1005E300E0A3C0E0E0A3C0E0E0A3C0E0E0A3C0E07C
:1005F300E0A3C0E010AF08858218858319800885C1
:100603008218858319D2AFD083D08202081EC0E03E
:10061300C3E49396087401939618400FE4936670AD
:100623000808740193661870007019A3A3C3E493B8
:1006330096087401939618A3A3400DD0E0D0E0D0A0
:10064300E0020575A3A3A3A3A3A3D0E022C0E07493
:10065300F21203D9E589A2E1500312193E7589000C
:10066300C2C57F01020438C0E074F21203D9E58BDE
:10067300A2E0500312193E758B00C2E880E47404B3
:10068300800474028000CCC0E0EDC0E0E518C39C98
:10069300CCAD1950011D10AF068C188D1980068C36
:1006A300188D19D2AF120779D0E0FDD0E0FC227487
:1006B300028000CCC0E0EDC0E0E518C39CCCAD19CE
:1006C30050011D10AF068C188D1980068C188D19DA
:1006D300D2AF120757D0E0FDD0E0FC22C0E0C0F05B
:1006E30088F0E4936670080874019366187000A894
:1006F300F0A3A3700BD0F0D0E0D0E0D0E0020575FA
:10070300A3A3D0F0D0E022D083D082CCC0E0E49386
:10071300A360061207F91470FAE493A360061208A3
:10072300D11470FAD0E0FCE493A3C0E0E493C0E0FA
:1007330022C0E074F21203D9A2AFE433FED2AFC2F7
:10074300C0E5D1A2E45003121A04EEA2E092AF7FF7
:1007530001020438CAC0E0E493A3C582CCC582C5B4
:1007630083CDC583F0A3C582CCC582C583CDC583A4
:10077300DAE5D0E0CA22CAC0E0E0A3C582CCC582D4
:10078300C583CDC583F0A3C582CCC582C583CDC542
:1007930083DAE6D0E0CA22C0E0C0D0E8C0E0E9C016
:1007A300E0E5A8D2AFC2C7A2E7A2E792AFD0E0F9D3
:1007B300D0E0F8D0D0D0E0327009080808226016E3
:1007C300181818C6C333C608C633C608C633C608C6
:1007D300C633C6D5E0EA22C008C3E096F50808A3ED
:1007E300E096420808A3E096420808A3E09645086D
:1007F3007001D3D00822C0E0E493A3D39C5010E44B
:1008030093A3C39C400AD0E0D0E0D0E0020727A323
:10081300A3A3D0E022C09FF59FE473D09F22D0838F
:10082300D082C09FE493C0E0740193C0E07402934C
:10083300F59F222518F58210AF08F5184002151907
:100843008008F51840021519D2AF85198322740464
:10085300800A74038006740280027401C0E0F40409
:10086300120836D0E0120A7922C0D0251810AF083A
:10087300F518500205198008F51850020519D2AF72
:10088300D0D022BB0102E722C082C08389828A833F
:10089300BB0003E08002E493D083D0822260160879
:1008A3000808C6C313C618C613C618C613C618C687
:1008B30013C6D5E0EA22C3E0C696F608A3E0C696BF
:1008C300F608A3E0C696F608A3E0C696F622C0E0B3
:1008D300E493A36C7009D0E0D0E0D0E0020727A333
:1008E300A3D0E022251810AF08F51840021519808F
:1008F30008F51840021519D2AF22E76670100809EF
:10090300E766700A0809E76670040809E76622C308
:10091300E09608A3E09608A3E09608A3E096A2D287
:1009230065D03322E066701008A3E066700A08A35E
:10093300E066700408A3E06622C3E096F008A3E033
:1009430096F008A3E096F008A3E096F022E026F0E4
:1009530008A3E036F008A3E036F008A3E036F0225F
:10096300C0E0E8C0E0E58124FCF8E6A2E7D0E0F8C7
:10097300D0E022E647F60809E647F60809E647F617
:100983000809E647F622E026F608A3E036F608A3B0
:10099300E036F608A3E036F622E627F60809E6373E
:1009A300F60809E637F60809E637F622E657F608A9
:1009B30009E657F60809E657F60809E657F622E06E
:1009C30056F608A3E056F608A3E056F608A3E05649
:1009D300F622E056F008A3E056F008A3E056F0082C
:1009E300A3E056F022700422600D18C6C333C60874
:1009F300C633C6D5E0F41822E4C396F608E496F6A7
:100A030008E496F608E496F622C6F4C608C6F4C6C9
:100A130008C6F4C608C6F4C622C3E7960809E796D3
:100A23000809E7960809E79622C3E09608A3E0962B
:100A330008A3E09608A3E0962275D000758140755F
:100A4300180175190300020490E0F608A3E0F60804
:100A5300A3E0F608A3E0F622600C08C6C313C61889
:100A6300C613C6D5E0F422E6F008A3E6F008A3E631
:100A7300F008A3E6F022CAC0E0E6F0A308DAFAD051
:100A8300E0FA22E0FAA3E0FBA3E0FCA3E0FD22EA04
:100A9300F0A3EBF0A3ECF0A3EDF022E5C754F84488
:100AA30001F5C77901222518F582E43519F583226A
:100AB300C2AF75D69F02000022120821A2E00212E3
:100AC3000821F7E20212082144E402120821E7E4B4
:100AD300021208212EE6021208214CE60212082116
:100AE3004B28001208215D2800120821AF280012AC
:100AF30008211029001208219A29001208213E2AF0
:100B030000120821922A00120821AB2A00120821A0
:100B1300D12A001208210C2B00120821502B00129D
:100B23000821772B00120821C82B00120821782CEA
:100B330000120821302D00120821F82D001208217F
:100B4300B82E00120821FC2E00120821212F0012BA
:100B53000821642F00120821B12F00120821093146
:100B6300001208218F3100120821AD310012082133
:100B7300D73100120821F13100120821003200128E
:100B830008210B3200120821CB3200120821243332
:100B930000120821E63300120821EE330012082167
:100BA300B234001208211E35001208214936001202
:100BB30008215A3600120821D03600120821623764
:100BC30000120821BA37001208217A3800120821CE
:100BD300A13800120821B338001208210639001287
:100BE3000821433900120821503900120821D33A51
:100BF30000120821283C001208215A3C0012082147
:100C0300ED3C00120821263D00120821723D00121E
:100C130008218E3E00120821D74000120821E2402D
:100C230000120821ED4000120821F74000120821AC
:100C33000241001208211C41001208212641001222
:100C430008213041001208213B4100120821634171
:100C530000120821BE4100120821E24100120821BE
:100C6300064200120821644200120821A842001221
:100C73000821C442001208213B4300120821734398
:100C830000120821BF43001208211C44001208214E
:100C9300D64400120821BA46001208211347001255
:100CA3000821434800120821694800120821F2492B
:100CB300001208216E4D00120821404F0012082136
:100CC300095100120821B6510012082121530012C4
:100CD3000821C053001208210554001208216F5443
:100CE300001208217E540012082105570012082122
:100CF300B75800120821245900120821035A001280
:100D030008211C5B00120821995C00120821B85CC1
:100D1300001208210D5D00120821125E0012082145
:100D23003A5E00120821925E00120821715F0012E0
:100D33000821B55F001208210060001208216B60D2
:100D430000120821AC610012082110620012082170
:100D53005E6300120821BE6500120821EF650012D0
:100D63000821A76700120821FC6700120821006907
:100D7300001208219D6900120821F669001208215A
:100D8300A96A001208214B6B00120821EB6B0012B9
:100D93000821906C00120821768601120821B5867D
:100DA30001120821FC880112082146890112082139
:100DB300618A01120821D18A01120821068B0112CE
:100DC30008217A8C01120821FD8E01120821269038
:100DD30001120821BC9001120821C49901120821B3
:100DE300599A01120821409D01120821339E0112D4
:100DF3000821949E01120821B09F0112082195A198
:100E030001120821A6A30112082110A4011208212E
:100E1300E2A40112082199A501120821A3A5011238
:100E23000821D1A5011208218EA60112082165A768
:100E3300011208212CA801120821DEA801120821A1
:100E430007A90112082129A9011208217FAB011268
:100E5300082157AC011208219BAC0112082103ADF4
:100E630001120821BBAD01120821EDAD01120821C9
:100E730031AE0112082167AE01120821B3AE01128F
:100E8300082108AF011208210DAF0112082160AF3C
:100E93000112082185AF0112082194B00112082123
:100EA300F8B00112082168B101120821F4B101124E
:100EB3000821C1B401120821A5B50112082128B7E0
:100EC300011208215EB9011208210CBA011208218E
:100ED300BCBA01120821FDBC01120821A0BD0112F8
:100EE3000821E7BD0112082193BF01120821A7BF02
:100EF30001120821B1BF01120821D9BF0112082133
:100F0300E5BF0112082104C001120821E9C1011241
:100F1300082120C2011208212AC20112082160C23D
:100F230001120821AFC301120821F3C301120821E2
:100F33009BC4011208217EC50112082129C6011292
:100F4300082175C70112082173C80112082119C9A4
:100F530001120821A9C901120821C0C901120821DF
:100F6300F7C90112082101CA011208210CCA011292
:100F730008212ACA011208216ECA01120821CBCA0C
:100F830001120821F0CA011208210ACB011208211B
:100F930096CB01120821B3CC0112082120CD0112F6
:100FA300082107CE011208212ECE01120821A2CE5C
:100FB300011208211DCF0112082121D0011208219D
:100FC30017D101120821C6D101120821D9D2011269
:100FD300082175D30112082102D401120821E0D49B
:100FE3000112082118D50112082170D50112082118
:100FF30039D6011208215AD601120821E1D601126D
:10100300082105D70112082127D70112082170D71B
:101013000112082186D9011208216DDA0112082173
:101023001EDB0112082154DD01120821A4DD011287
:101033000821E4DD0112082126DE0112082182DEE7
:1010430001120821B0DE01120821D4DE01120821A9
:1010530027DF0112082155DF011208218EDF01125B
:101063000821E3DF0112082149E0011208219DE173
:1010730001120821C0E3011208212DE40112082105
:1010830056E401120821E1E40112082148E50112A6
:10109300082193E501120821B7E501120821DBE5D8
:1010A3000112082136E60112082151E60112082136
:1010B3000AE701120821B28504120821F1850412FE
:1010C3000821788002120821BE80021208219E8125
:1010D30002120821A08202120821A383021208210E
:1010E3002F85021208218D85021208214A860212D9
:1010F3000821688702120821D9870212082115885E
:10110300021208216388021208216D880212082145
:10111300B188021208210D8902120821A88902123E
:101123000821258A02120821F48A021208218D8BD4
:1011330002120821AD8B02120821E38B021208214F
:10114300148C02120821D58C02120821E58C02129C
:101153000821398D02120821548D02120821668D4F
:10116300021208216F8D02120821C98D0212082173
:10117300258E02120821718E021208218C8E021212
:101183000821BD8E02120821DA8E02120821E68E92
:10119300021208215A9002120821739002120821A8
:1011A300DA9002120821ED9002120821FB9002123C
:1011B3000821AF91021208219392021208219993F8
:1011C300021208212394021208212D9402120821ED
:1011D3009A9402120821B19402120821E394021294
:1011E30008211C9502120821469502120821A79591
:1011F30002120821C79502120821E595021208215F
:101203002B96021208215197021208219E9702126F
:101213000821CD97021208214398021208216B98E6
:1012230002120821A49802120821B298021208217E
:101233000A99021208215999021208219899021257
:101243000821C89902120821F49902120821FF9972
:10125300021208211D9A02120821DF9A02120821A4
:10126300E99A02120821249B021208213A9B0212D6
:1012730008218F9B02120821A39B02120821B19C13
:1012830002120821C49C02120821D99C02120821CF
:101293007B9D02120821FE9D02120821BC9E0212B0
:1012A3000821C79E02120821F39F021208210FA0F2
:1012B3000212082161A002120821A0A00212082133
:1012C300B5A00212082117A102120821A6A1021239
:1012D3000821F1A10212082142A402120821C0A48C
:1012E3000212082135A50212082157A7021208216C
:1012F3006FA70212082172A7021208217EA7021209
:10130300082192A7021208219AA702120821CDA749
:10131300021208217DA802120821F3A80212082153
:1013230066A9021208211AAA02120821CFAA0212E0
:101333000821EEAA021208218EAB021208219AABF1
:1013430002120821C5AB02120821C8AB0212082100
:1013530032AC021208215AAD0212082132AE021237
:101363000821BDAE02120821D6AF0212082193B0A4
:1013730002120821CCB002120821FDB0021208218A
:10138300BBB102120821EBB102120821C6B202124C
:1013930008215FB302120821EAB3021208219BB4A9
:1013A300021208211EB50212082150B502120821AB
:1013B30091B50212082115A60312082176A603127D
:1013C3000821B3A60312082106A7031208212FA997
:1013D30003120821FFAA031208216CAE031208218D
:1013E300A3AE03120821C1AE0312082137AF0312C3
:1013F30008215FAF0312082190AF03120821C0AF89
:10140300031208211CB0031208213A9A031208217F
:10141300B89A03120821EE9A031208215A9B031269
:101423000821A6D702120821E99C031208212E9D48
:1014330003120821BB9D03120821149E03120821E5
:10144300409F031208214EA003120821ABA00312F0
:10145300082117A10312082178A103120821B9A1B9
:101463000312082166A20312082178A3031208219C
:10147300BBA30312082109A403120821C0DF02122F
:101483000821E3A4031208219EA503120821C7F82B
:1014930003120821F7F80312082154F90312082153
:1014A300E2E7031208215DE80312082168E803124A
:1014B300082189E80312082168B00312082172B0D9
:1014C30003120821BEB0031208212CB10312082114
:1014D3004DB103120821FDB103120821BAB403125E
:1014E3000821C3B40312082116B5031208213FB51E
:1014F300031208219DB5031208212EB603120821F9
:101503006AB603120821B6B6031208211DB70312E7
:10151300082156B703120821DCB7031208211BB8B0
:10152300031208215CB80312082193B8031208219F
:10153300A5B803120821B7B803120821D6B80312BD
:101543000821DFB80312082197B903120821D7B97C
:10155300031208215D8304120821A5F40312082154
:10156300DBF40312082126F50312082174F6031293
:10157300082144E7011208218FE801120821CBE872
:101583000112082182EA01120821ABEA01120821A3
:1015930043ED0112082183ED0112082124EF01120A
:1015A3000821BEEF0112082126F001120821B3F031
:1015B30001120821EBF0011208212BF1011208217D
:1015C300BEF2011208215DF401120821ACF60112EA
:1015D3000821DAF60112082106F7011208210FF794
:1015E300011208218DF701120821B6FA0112082110
:1015F3006C8704120821828704120821678504126C
:10160300082173E40312082188E40312082125E565
:101613000312082161E50312082178E5031208216A
:101623009FE503120821E4E50312082115E60312DE
:1016330008214DE603120821D5E70312082192FD84
:1016430003120821C8FD03120821E4FD0312082137
:1016530026FE0312082136FE03120821CBFE0312D5
:101663000821D5FE03120821EDFE031208219CD1A7
:101673000312082157D2031208210CD303120821A5
:101683004AD30312082101D503120821AAD5031254
:101693000821DC6C00120821316D001208211D6E37
:1016A30000120821BF6E00120821096F00120821E1
:1016B3006F6F00120821836F001208217E710012E0
:1016C3000821F971001208213072001208211674E2
:1016D300001208212D7400120821787400120821C9
:1016E3008E74001208219B7400120821CF7400121B
:1016F3000821EF74001208218A7500120821E4758D
:10170300001208213776001208214A7700120821B7
:10171300AE7900120821DF7900120821787A0012CD
:101723000821E27A00120821E77A00120821237BBC
:10173300001208217C7B00120821627C0012082120
:101743008C7C00120821967C00120821997C0012DF
:101753000821097D00120821327D00120821457DF0
:1017630000120821717D00120821AC7D00120821AE
:10177300AF7D00120821EB7D0012082119850412A8
:1017830008213185041208219CF702120821EBF786
:10179300021208219AF90212082161FB02120821A0
:1017A300A5FB02120821CCFC02120821FDFD021246
:1017B30008211FFE021208217BFE02120821FDFEF2
:1017C3000212082173E6021208219EE60212082182
:1017D30088E7021208210EE80212082177E80212B4
:1017E3000821BFE80212082150E902120821E5E9A5
:1017F3000212082176EA02120821B7EA021208212E
:1018030042EF02120821D0F00212082170F10212F5
:10181300082191F102120821FBF302120821A1F41D
:1018230002120821BEF50212082189F602120821CC
:101833000CF702120821008003120821BC80031256
:101843000821398103120821FB81031208216782D1
:1018530003120821348503120821D58503120821B8
:10186300398603120821CF870312082187880312C0
:101873000821B18903120821C18A03120821668B4A
:1018830003120821378C031208215CED031208218F
:10189300ACED0312082108EE0312082153EE0312E4
:1018A3000821AEEE0312082156EF03120821BFEF01
:1018B30003120821CCEF03120821247E0012082111
:1018C300557E001208210F7F00120821757F001238
:1018D30008217EE1031208210AE303120821F78697
:1018E3000412082108870412082178FA0312082138
:1018F30086FA03120821AA870412082132840412EB
:1019030008214284041208215D8404120821BE8444
:1019130004120821F0FE0312082175FF03120821A7
:10192300DBFF031208214B82041208216D8204128B
:101933000821D78204120821E28204120821268397
:10194300041208219D8D03120821AB8D0312082177
:10195300EE8D031208210F8E03120821958E0312B8
:101963000821928F03120821B48F031208212090BB
:10197300031208213B9003120821569003120821F9
:101983006090031208216A90031208217D900312CC
:1019930008219690031208214191031208217A929B
:1019A300031208214B9503120821D1950312082134
:1019B3001D9603120821D39603120821AE97031232
:1019C3000821E2D903120821F0D9031208216ADAA7
:1019D300031208214EDB0312082107DD031208213D
:1019E3004A870412082157C303120821C3C30312F1
:1019F300082182C4031208218EC503120821E7C6F9
:101A03000312082142C70312082197C703120821B2
:101A1300A0C703120821B2C7031208211CC803126E
:101A2300082130C8031208213AC8031208213BFBDE
:101A33000112082190FB011208218CFD01120821DB
:101A4300BEFD01120821E0FD01120821F9FD01127A
:101A5300082112FE011208211CFF01120821B7FF01
:101A63000112082127FC031208214BFC0312082151
:101A730064FC03120821A3FC03120821D6FC031201
:101A8300082106FD031208216EFD0312082171FDD2
:101A9300031208217BFD0312082188FD031208218C
:101AA300B5EA03120821DDEA031208211EEB031233
:101AB300082130EB031208214BEB03120821B3EB8F
:101AC30003120821BFEB031208211EEC03120821A5
:101AD30042EC0312082103ED0312082110ED031257
:101AE300082121ED03120821858604120821A2860C
:101AF3000412082192C803120821F2C90312082113
:101B0300F8C9031208210FCA0312082130CA0312AD
:101B1300082146CA031208215ACA03120821D9CA46
:101B2300031208213ECB03120821D4CB0312082150
:101B3300ADCC03120821BDCC03120821CCCC031277
:101B4300082134FF0212082158FF0212082180FFE6
:101B530002120821A8FF02120821DBEF0312082159
:101B630002F00312082123F00312082195F0031257
:101B7300082147F20312082160F20312082177F2C9
:101B83000312082180F2031208219EF20312082196
:101B9300A8F203120821B2F203120821C5F20312BC
:101BA30008211AF30312082153F30312082181F3C6
:101BB30003120821D2F3031208211EF40312082191
:101BC30039F40312082143F40312082154F40312D5
:101BD30008219AF403120821C8840412082100BAC8
:101BE300031208212CBA031208214ABA031208214E
:101BF3005DBA0312082178BA03120821D7BA031277
:101C0300082105BB0312082114BF0312082159C080
:101C1300031208218BC003120821F7C00312082105
:101C230040C20312082168C2031208217DC20312B5
:101C330008218DC203120821CDC20312082119C342
:101C43000312082129C3031208210080041208216A
:101C53001080041208212E800412082149800412E6
:101C63000821708004120821918004120821AB809E
:101C730004120821E38004120821068104120821BA
:101C83004186041208216CDD0312082173DD03125F
:101C9300082190DE03120821C0DE03120821E6DECC
:101CA3000312082119DF031208212BDF0312082175
:101CB30067DF03120821CDDF0312082109E00312B5
:101CC300082150E0031208217DE0031208219EE061
:101CD30003120821D7F603120821EFF60312082195
:101CE300DDF703120821BDF803120821388104121D
:101CF3000821AA8104120821E881041208212982FB
:101D03000412082115D60312082134D60312082120
:101D130083D6031208219FD603120821D0D60312BB
:101D23000821E0D603120821EDD603120821FAD6C2
:101D330003120821E2D70312082120D80312082135
:101D43002AD8031208213DD90312082148D90312C6
:101D530008215AD90312082163D9031208216DD926
:101D630003120821FDCC0312082124D103120821F8
:101D730032D103120821FB8504120821CDFF021280
:101D83000821C186041208212287041208218C87A6
:101D9300041208216FD602120821C3D502120821AA
:101DA30009D402120821B9D10212082140D102122A
:101DB3000821E7D00212082177D0021208214ED061
:101DC300021208212ECE02120821FACD0212082196
:101DD300C7CD02120821ABCD02120821C4CC0212D6
:101DE30008217CCC02120821C7CA0212082147CA63
:101DF3000212082144CA0212082141C90212082111
:101E03000FC9021208214CC80212082177C6021218
:101E1300082108C602120821A4DF0212082128DFC4
:101E230002120821DFDE0212082197DE02120821C6
:101E3300E5DD02120821DAC502120821D7C5021214
:101E43000821C4C50212082157DD021208216FC5FB
:101E5300021208215EC50212082150C40212082191
:101E63001AC4021208214ADD0212082140A40312F7
:101E73000821C8C30212082169C30212082138C30A
:101E83000212082100C002120821C0BF0212082159
:101E9300B4BF0212082114BF0212082154BE021259
:101EA3000821D6BB0212082167B90212082125B9FD
:101EB30002120821F9B702120821AEB70212082153
:101EC300EDB60212082130B602120821C6B502127D
:101ED300082100B60212082144DA02120821CD9C1F
:101EE3000300000080FBE47300000000000000001A
:101EF300000000000000000010101010101000007F
:101F030030300000001428500000000000000000E2
:101F130000000000002828FC284850FC5050000016
:101F23000000103854543018145454381000000072
:101F33000044A8A8B0541A2A2A4400000000002034
:101F4300505060ACA898927C000000606020C000F4
:101F5300000000000000000000040808101010102A
:101F63001010080804000000402010080408102086
:101F7300400000000000001010D63838D6101000C2
:101F83000000000000101010FE10101000000000F0
:101F930000000000000000000000606020C000009E
:101FA30000000000FC000000000000000000000032
:101FB3000000000000006060000000020404040848
:101FC3000810102020204000000000304884848442
:101FD30084844830000000000010701010101010AE
:101FE300107C000000000038444404081020447CA6
:101FF300000000000038444418040444443800003E
:102003000000080818284848887C081C00000000C5
:10201300007C404078440444443800000000003C05
:102023004480B8C48484847800000000007C444861
:102033000810101010100000000000788484487805
:10204300848484780000000000788484848C740481
:1020530088F0000000000000003030000000303045
:10206300000000000000000010000000001010201D
:1020730000000408102040201008040000000000A5
:10208300000000FC0000FC000000000000004020F5
:1020930010080408102040000000000078848484A5
:1020A300081010003030000000000038449AAAAA3B
:1020B300AAB4423C0000000000101028282838442D
:1020C30044EE0000000000F844447844444444F8DB
:1020D30000000000003C448480808080443800007D
:1020E300000000F048444444444448F00000000029
:1020F30000FC44404878484044FC0000000000FCD9
:1021030042404878484040E000000000003C4484DE
:1021130080808E8444380000000000EE4444447CF8
:10212300444444EE00000000007C10101010101016
:10213300107C00000000007C101010101010101014
:1021430090E0000000EE44485070484844EE000020
:10215300000000E040404040404044FC00000000DC
:1021630000EE6C6C6C54545454D60000000000EE26
:1021730064645454544C4CE4000000000030488420
:102183008484848448300000000000F84444447888
:10219300404040E00000000000304884848484B460
:1021A30048380C00000000F844447850484844E69E
:1021B30000000000003C4440201804044478000060
:1021C300000000FE921010101010103800000000E4
:1021D30000EE44444444444444380000000000EE0C
:1021E30044442828282810100000000000D6545426
:1021F30054546C2828280000000000EE44282810BE
:10220300282844EE0000000000EE44282810101097
:10221300103800000000007C88081020204044FC97
:102223000000001C101010101010101010101C00D3
:1022330000701010101010101010101070000070AB
:102243001010101010101010101070000010280043
:10225300000000000000000000000000000000007B
:1022630000000000000000FE00606020C0000000CD
:1022730000000000000000000000000038441C249F
:10228300443E0000000000C0404078444444447889
:1022930000000000000000003C44404044380000BF
:1022A3000000000C04043C444444443E000000008D
:1022B3000000000038447C40443800000000001C4B
:1022C3002420F820202020780000000000000000D7
:1022D3003C48483040784438000000C040405864CF
:1022E300444444EE00000000001000007010101081
:1022F300107C0000000000080000380808080808E7
:102303000870000000C040405C48507048EC00007A
:1023130000000070101010101010107C000000005E
:1023230000000000F854545454D60000000000008C
:102333000000D864444444EE0000000000000000A4
:102343003844444444380000000000000000F844CE
:102353004444447840E00000000000003C4444440E
:10236300443C040E000000000000EC30202020F864
:1023730000000000000000003C44300844780000E6
:102383000000000010107C101010100C0000000062
:1023930000000000CC444444443E00000000000020
:1023A3000000EE4428282810000000000000000070
:1023B300D654545428280000000000000000DC48D4
:1023C300303048EC0000000000000000EE442828F4
:1023D300101020E00000000000007C481010247C56
:1023E300000010101010101010101010101010100A
:1023F3000001363601010001020100010301000161
:102403000401060605020000070100340801000F5D
:10241300090401010D0100FF0E080000170200006E
:10242300190100FF1A0100011B0100FE1C01000835
:102433001D0200001F010001200100012102000014
:102443002301000F240200002601000127010008D8
:10245300280200FF2A0100072B0102402C01000083
:102463002D0100012E0100012F0100FF30010B1C83
:10247300310800003A0100083B01000F2F01000062
:102483000101710101010101110101013101010189
:1024930001018001100161013B001400630173011C
:1024A3007201620143010001130106013D01350080
:1024B30004011201000100010001000104010401F3
:1024C300330133013C0144013201360000010001B4
:1024D30065010001350081010001050182018301CD
:1024E3000001030271023001600211027002010255
:1024F300020202028002100261023A0041006302FA
:1025030073027202620243020002130238000002E5
:10251300000204021202000200020002000204028E
:102523000402370037003C02440200023900000273
:1025330000026502000235028102000205028202E6
:10254300830200020300710030016000110070007B
:1025530031022003500480001000610000001400C9
:102563006300730072006200430000001300060062
:102573000000000004001200000000000000000042
:1025830004000400370037003C0244000000000050
:102593000000000065000000350081000000050018
:1025A3000000830000000103710301030103010321
:1025B30001030103220302030103100300030003C9
:1025C300000300030003000300034203000324038A
:1025D3000603000300030403120325032303250357
:1025E3002303040304030003000300034403000361
:1025F3000003230300036503210035038103000364
:1026030005030003000300030304710402046004D0
:10261300110470040204020401040204100461049E
:102623000004140463047304720462044304000486
:102633001304060400040004040412040004000448
:102643000004000451046400000400040004440472
:10265300000400040004000465040004350481043C
:1026630064000504000483040004C9EEDBDACAD065
:10267300B0B2C1AAB5C2BFC6BCBCD3C3BBA7B5C7A2
:10268300C2BCD5CABAC5C3DCC2EBC8B7B6A8C8A119
:10269300CFFBD7A8D2B5D7A8D7A2CEDECFDFCDA8A0
:1026A300D1B6B3CFD0C5C1A2D7E3B4B4D0C2D6C2DA
:1026B300D4B6C7BFB4F3D4ADA3BA00360001000645
:1026C3000000000F000000000000000000000000F8
:1026D3000003FFFF00000403FFFF0000FFFF0FF4F0
:1026E300010005C4040320000100030B00000000E7
:1026F3000000000003010F00004E18130012180120
:10270300004E180200DC170300E2170400E8170567
:1027130000EE170600FA17FFFF000001E00D060A9E
:102723000E08040E0B220E105C0D02E60D05F80DCB
:1027330007EC0D0CC20D0DD40DFF000003EAF5E507
:10274300D5D5C5B5A59595858575756565555545E6
:1027530045353525251515050012301206120C12C4
:102763002A121E12181236123C1242124E12121262
:10277300FA11F41100160F00000B150B02000222D0
:102783000F32000006F01202130813CA110E13C40D
:1027930011D01150136E137413561362135C130488
:1027A30011FE103A1140113411EC100C0E020B04FF
:1027B3000B0A0708000F00383C3E363B3B352B43E2
:1027C3002C00011916181616152303000003494897
:1027D300424D1817250502303017181921301B1DDB
:1027E3001F30303016181920231A1C1E30441314BE
:1027F300131A132613201324124812681354125A5F
:1028030012020402010101010902101116110A1139
:1028130046110000000000001C112E1100BE040A26
:1028230015000E0004007F00E8030C0028000000E0
:102833000000090308100C0A03080900040001FF43
:102843001E1E0C050408100FC082C0838A828B836E
:10285300E0D2E7F01217460238FFC082C083790046
:10286300122D17125C68C082C0839003341249EEA4
:10287300D083D082C3E09CA3E09D500C12633CFA4A
:10288300A3E012288E6001090238FFFBEA75F00B02
:10289300A4FAA8F075F00BEBA428FB900336E02A0A
:1028A300F8A3E03B8882F583E0540F2274F7120308
:1028B3006D8908122D17122DBDACF075F00BE9A42C
:1028C3002CF9900336E028FEA3E039FF7401650874
:1028D30060067402650870208A828B83122DA91208
:1028E3003CDF74026508701B122C68122DF0701304
:1028F3008E828F83E4F0800BEA2403FCEB122D8B92
:10290300122D97EEFAEFFB120AE0023C3C74F4122C
:10291300036D126C6379008E828F83E06076890A7F
:10292300890B8065E50A75F00BA4FAA8F075F00B26
:10293300E50B12289B7046E50A75F00BA4F8AAF084
:1029430075F00BE50B122DCF8E828F83E085088205
:10295300850983122EB1850882850983A3123CDF82
:10296300EE2403FCEF122D94123ABD1256E2AA088C
:10297300AB09120AE079019003341250F7E50A24F7
:1029830001F50AE50B3400F50B122C70E50A9AE504
:102993000B9B4090023E8974F512036DEAFEEBFF38
:1029A300740B120AA9123AC2750A01EC4D602BECA2
:1029B300126C7FED125C68123CD77901120AECE5C8
:1029C300084509606F850882850983A3126C6D79B8
:1029D30002AA08AB09120AEC805AE5084509602BE4
:1029E300125C6C124336123ABE122DDA700CEEFAF8
:1029F300EFFB120AF2E9F50A80CBEE2403FA122D5B
:102A03001270317903EEFAEFFB80CA8E828F83A3B3
:102A1300E064FE7003A3E0F4700BEE24030A0A0AD9
:102A2300122D12700CEEFAEFFB120AF2E9F50A808E
:102A330003750A00A90A7F030205CB74F712036D1D
:102A4300900334123C4CEA4B602FEA75F00BA4FA66
:102A5300A8F075F00BEBA428FBEAFEEBFF1215665A
:102A6300900336123C4C900336124F3C6012EEFC3E
:102A7300EFFD79001214CA8007900336E4F0A3F047
:102A8300023C3C9003341246A6C3EE98EF9922C051
:102A930082C083EC4D6005121CFE80097C087D001A
:102AA30079001214CA0238FF74F612036D7900EA32
:102AB3004B601878008808125FAFEB12633860042C
:102AC3007901780808E8C3940840EA023CE874F7FF
:102AD30012036D74F31208E7ECFEEDFF851882858F
:102AE3001983E4F004120AA9EAF0A3EB1254687400
:102AF30003120AA9AC82AD83EEFAEFFB120B04EECC
:102B0300FAEFFB120B0A023C3774F712036D74F3EE
:102B13001208E7ECFEEDFF851882851983E4F0EADD
:102B2300FCEBFD7403120AA9122EAA7401120AA95E
:102B3300123CD38E828F83123CDF74FE6870037461
:102B4300FF696004790180027900023C3774F7124F
:102B5300036DEAFEEBFF122BAE7014122BB98E82BB
:102B63008F83E0F4F88A828B83E058F0120AE0A99D
:102B730008023C3C74F712036DEAFEEBFF75080094
:102B83008E828F83E06022122BAE701D122BB98AC6
:102B9300828B83E08F838E82F8E058700CE0F88A92
:102BA300828B83E048F0120AE080C4120AE6E9F55A
:102BB300087401650822126C78122DC1122D03FAD4
:102BC300A3E039FB2274F412036D8A088B097C009D
:102BD3007D00122C68122D97122D28126C6A790031
:102BE300850882850983A3E064FE7003A3E0F46093
:102BF300717E007F008062EEFAEF12288E6057EE3E
:102C0300FAEFFBEA75F00BA4FAA8F075F00BEBA44E
:102C130028FB900336E02AF50AA3E03BF50B850871
:102C230082850983A31253B6850A82850B83A3E0A9
:102C33006A7003A3E06B701EE50A2403FAE50B1226
:102C43002D13700AE50A2403FCE50B122D94122DB3
:102C53001C7901125C7E123607122C70EE9AEF9BE0
:102C63004095023E89EA24030A0A0AEB22900334C0
:102C7300125855C32274F312036D8A088B098A8292
:102C83008B83A3126C6D122D17126C6A750C0012D4
:102C93002C68122D1370547E007F008049122CF58E
:102CA300FAA3E0398A82F583E0540F6036122CF5DB
:102CB300F50AA3E039F50BE50A2403FCE50B122D15
:102CC3009E3400FB121CF8E964017017850A8285A3
:102CD3000B83A3125916A3123CDF122D1C750C0192
:102CE300125C7E123607122A8640B2A90C7F0502B7
:102CF30005CBEEF8EFF9E875F00BA4F8122D0322DB
:102D0300AAF075F00BE9A42AF9900336E02822EF24
:102D1300122DEA22126C7EEB22122D28125C79EE20
:102D2300F0A3EFF022E508126C7FE5092274F51297
:102D3300036DEAFEEBFF8E828F83A3126C6D7C0022
:102D43007D00EE24030A0A0AEF122D97EEFAEFFB39
:102D5300120AE6E9F50A7401650A7029126C781201
:102D63002DBDAAF075F00BE9122DCF850882F583EE
:102D7300122DA9122DDA700DE5082403FCE50912C2
:102D83002D8B122D97022A373400FDEE2403FAEF20
:102D930022122D9E3400FB120B04223400FDE508A1
:102DA3002403FAE50922A3122DAE22122DB222E04A
:102DB300F8A3E0F98E828F83A322122DC12234005F
:102DC300F5831246AAE875F00BA4F822122D09F533
:102DD30008A3E039F50922E8F0A3E9F0E5082403A4
:102DE300FAE509122DEA22122DF06401223400FBC8
:102DF300120B0AE92274F312036D74E61208E71248
:102E03006C63750C01750800750900750A00750B74
:102E130000851882851983E4F0EE2403FCEF340067
:102E2300FD7403120AA9122EAAE964017023740B1C
:102E3300120AA9123CD77401120AA91253BA7003D9
:102E4300A3E069605185188285198385820885838B
:102E530009740D120AA9E4122EB1740E120AA912F2
:102E63003CDF740D120AA9AA82AB83120B28E96412
:102E730001700B740D120AA985820A85830B780AE7
:102E8300120859AC08AD09EEFAEFFB120AF8740206
:102E930012086CE9F50CEEFAEFFB120B22A90C7485
:102EA3001A12086C022CF012317D120B2E22123CE6
:102EB300471246A622C082C083780079008003129D
:102EC3002FA8122C70E89AE99B5029E8FAE9FBEA4B
:102ED30075F00BA4FAACF075F00BEBA42CFB90038C
:102EE30036E02AFCA3E03B8C82F583E0540F70CFDD
:102EF3007900800279010238FFC082C083902823C1
:102F03001246FCEC75F012A4FCA8F075F012EDA4C7
:102F130028FD79FF7A297B0B1214CA0238FF74F754
:102F230012036DE9FEEAFF7A007B007800790080E6
:102F330028E8FCE9FDEC75F012A4FC85F00875F0B7
:102F430012EDA425081233BDC39E400AE0FCEFC373
:102F53009C40031234DC122FA81233B140D3023C3D
:102F63003CC082C083780079008003122FA8122FFF
:102F73009C501F1233C1F470F2E875F012A4F8AA42
:102F8300F075F012E9A42AF9742928FA740B39FBB5
:102F930080047A007B000238FF902823123472C326
:102FA300E89AE99B22E8240108E93400F92274F045
:102FB30012036D74F31208E78A0A8B0B8C0C8D0DC8
:102FC3008908EC450D6016AA0CAB0D120B7C8A0E1A
:102FD3008B0FAE0EAF0FEE4F600302306F120B522A
:102FE3008A0E8B0FA80EA90FE8FEE9FFE849607C63
:102FF3009028331230D1602274036508600674048C
:10300300650870167A047903120B4C90283312303A
:10301300E840077A007B000230CE9028311230D18D
:10302300601B74016508600674026508700F7A02FC
:103033007901120B4C9028311230E850D685188252
:103043008519837401F0120AA91256E2AC0CAD0D76
:103053007403120AA9123176740B120AA9123ACA1E
:103063001240BFE41256CA1210448004EE4F604A65
:10307300780074FF2508C39404500278048E828F6D
:10308300831256E28E828F83A3A3A3A3E508F0E8FD
:103093008E828F83A3A3A3A3A31256EA12021C1248
:1030A30034898E828F83A3A3A3A3A3A3A3F0123493
:1030B30080120A86125C62120A921230D640059080
:1030C3001085E4F0120F1EEEFAEFFB0246B0125821
:1030D3000449227A047900120B4C90282312631EB0
:1030E300EA98EB9922123101758328758223E493C0
:1030F300C398F8A3E49399F9C3EA98EB9922E4936C
:10310300F8740193F92274F212036D74F31208E751
:103113008A088B09ECFEEDFF750A00EEFAEFFB124D
:103123000B7C8A0C8B0DA80CA90DE849603E8882A4
:103133008983E065087004A3E06509602F888289AC
:1031430083A3A3A3A3E0C394055021125B108518A6
:10315300828519837401F0120AA9125B14EEFCEF45
:10316300FD7403120AA9123176750A01A90A740DB6
:103173000251AE12317D120B3A22AA82AB83120B9B
:1031830004851882851983AA82AB832274F61203FD
:103193006D1231CB600FA3A3A3A3E014C394045017
:1031A30004790180027900023CE874F612036D127F
:1031B30031CB600FA3A3A3A3E014C39402500479FB
:1031C3000180027900023CE8120B768A828B83E548
:1031D3008245832274F612036D1231CB600BA3A3D5
:1031E300A3A3E07004790180027900023CE8C08265
:1031F300C083EAFCEBFD7A007B000238FCC082C08E
:10320300837C007D000238FC74F412036D74F312A6
:1032130008E7EAFEEBFF8C0A8D0BC3EC94F8ED9400
:10322300FF4007EE4F70030232C4750800750900B2
:10323300802E8518828519837401F012362F120AA5
:10324300A912363D60137403120AA9AC82AD83EE52
:10325300FAEFFB121CF8E97049E508240112345D0A
:10326300902823E412580CE50898E509995052E593
:103273000875F012A4F8AAF075F012E509A42AF96A
:1032830012635160D4EE4F70A974FF650A70047421
:10329300FF650B60C412361F650A7004A3E0650B5B
:1032A30070B7E50875F012A4F508A8F075F012E5FB
:1032B30009A428F50974292508FA740B3509FB803C
:1032C300047A007B00023E8474F412036D74F312DB
:1032D30008E7750800120B7C8A0A8B0BAE0AAF0B4A
:1032E300EE4F602A8518828519837401123C41F8D8
:1032F300A3E0F9740B120AA9123D62120B1C7C1293
:103303007D0079FFEEFAEFFB1214CA750801123043
:10331300D650099010857401F0120F1EA908023EC1
:103323008474F712036DE9FE74FE6A700374FF6B15
:103333007800790070058052122FA81233B1504AD9
:10334300E8FCE9FDEC75F012A4FCAFF075F012EDAA
:10335300A42F1233BDF460E0E8FCE9FDEC75F01234
:10336300A4FC75F012EDA42FFD74292CF582740BC7
:103373003DF583E06A7003A3E06B70BC80091233F0
:10338300C114C394044017122FA8122F9C5018EE97
:1033930070EC1233C164016005E0640370E9123616
:1033A30010FAA3E0FB80047AFE7BFF023C3C9028EA
:1033B30023124700C3E89CE99D2212351122E8FA43
:1033C300E9FBEA75F012A4FAACF075F012EBA42C49
:1033D300FB742D2AF582740B3BF583E022120B8ECE
:1033E3000238FFC082C083790180F274F012036D4A
:1033F3008A0A8B0B7A047901120B4C8A0C8B0DEA27
:10340300450D603EEAC333FAEB33FB1215668A08B7
:103413008B09AE08AF09EE4F60237AFE7BFF120BD8
:103423009474FE6A700374FF6B601B8508828509C0
:1034330083123C4CE508240212345D80E1750C00D4
:1034430080047E007F00850A82850B83E50CF0EE05
:10345300FAEFFB0246B5E5082407F508E509340051
:10346300F50922902823124700C3EA9CEB9D22E42E
:1034730093FA740193FB221214BE740322125C7339
:10348300E4F090865422E88E828F83A3A3A3A3A3A0
:10349300A3A3A31234AB74011234ABA3F0EE241034
:1034A300125C76E4F0A3F0221240CBA3A3A322C0C4
:1034B30082C0837A007B008004191234DC123466E4
:1034C30050101234FBC3940550F0E970EC1234E54C
:1034D30080047A007B000238FFEA24010AEB3400FF
:1034E300FB22EA75F012A4FA75F012EBA428FB7420
:1034F300292AFA740B3BFB22EAFCEBFDEC75F01274
:10350300A4FCA8F075F012EDA42812351122FD7465
:103513002D2CF582740B3DF583E02274F712036DB5
:1035230074F31208E77E007F000235C3E50875F0E7
:1035330017A4F8A9F01265B2FAA3E0FBEEF8EFF9CD
:10354300E875F012A4F8ACF075F012E9A42C123669
:103553001E6A7003A3E06B603FE50875F017A4F8DB
:10356300AAF0EA1265B1F8A3E0F97401120AA9E01E
:10357300687003A3E0696020E50875F017A4F8EA12
:10358300F974A528FC740C39FD7403120AA9AA82E4
:10359300AB83121CF8E96014E50875F017A4F8A9C9
:1035A300F074A328FA740C39FB1210500508902804
:1035B30038E493F8E508C398500302352F12360711
:1035C3009028231268F85039EEF8EFF9123610F408
:1035D3007003A3E0F460E68518828519837401F013
:1035E300EEF8EFF9E875F012A4F875F012E9A42AE1
:1035F300F912362F120AA912363D60C175080080F0
:10360300AD023C37EE24010EEF3400FF22E875F0E3
:1036130012A4F8AAF075F012E9A42AF912362322AB
:10362300742928F582740B39F583E022742B28F56D
:1036330082740B391246A4740B22E8F0A3E9123DFD
:103643006A120B34E922C082C08390034174F2F002
:10365300A3740DF00238FF74F712036DEAFEEBFF5B
:10366300900377E06408601BE0640460168E828F29
:1036730083E0540364017048123ABD1241B5E0641B
:1036830006703D8E828F83A3A3E064FE7003A3E0E4
:10369300F4602D8E828F83A3A3123CD3900368E042
:1036A300687003A3E069700BEE2415F582EF1263D3
:1036B300386008120EACE9F5088008120EB280F6E5
:1036C3007508C2EEFAEFFB12156C022B7274F4123A
:1036D300036D8A088B098A828B83E0F8A3E0FAE8FA
:1036E3002AFAE43400FB1215668A0A8B0BAE0AAF82
:1036F3000BEE4F6063850882850983E0FC7D0079CA
:10370300001214CA8E828F83A3A3126C6D120EEE65
:103713008E828F83A3A3A3A3123C4C8508828509C1
:1037230083E0F8EE28F8EF3400123CDB850882854D
:103733000983A3E0C0E0EE240D125C65D0E0F01233
:103743000F00EE240E125C65E9125317E0C0E0EEA1
:103753002411125C65D0E0F0EEFAEFFB023E8974AF
:10376300F412036D74EB1208E78A088B098C0A8D37
:103773000BE9FE900377E064046005E064087004DD
:1037830079C2802EA37808120A6AEE90037E12395A
:103793003D120A6A7405120AA9E9F07404120AA90F
:1037A3007401F07407120AA9E4F09003777402120B
:1037B300389A7415023E8674F612036D74EB120880
:1037C300E7EAFEEBFF124F39600302385E7A077BAC
:1037D30000121566900339123C4C124F3960788EF3
:1037E300828F83120A8690033A1241B8120A921208
:1037F3006B31C0E012386AD0E0F0EE2405FAEF3402
:1038030000FB8A088B098A82F583E0C0E0123865E1
:10381300D0E0123E80E0C0E0123865A3D0E0123C55
:10382300C0120A86851882851983120A92888289B2
:1038330083E0C0E07405120AA9D0E0F08508828510
:103843000983E0C0E07404120AA9D0E0F0740712FF
:103853000AA9123899800679108002790174150239
:103863003CE512386AA322900339E0FAA3E0F5831A
:103873008A82A3A3A3A322C082C083124F39600DFF
:10388300900339125843900339E4F0A3F0120E1C4D
:10389300120FF00238FFE4123D6A121D2E22C0827D
:1038A300C083900338E0700312180C120BD6804CBF
:1038B300C082C083900338E09010847004E4F080E9
:1038C3002D7401F0900338E0F460237C41E0C3944D
:1038D300415002E0FCECF8E0C398F0EC75F0E8A48A
:1038E300CCA8F075F003A428FD7A801247087A84E7
:1038F3007B107941121D168003120B82D083D08274
:1039030002081E74F412036D74EB1208E78A088B25
:10391300098C0A8D0B900377740112393D120A6AE0
:103923007405120AA9E9F07404120AA97403F07465
:1039330007120AA91238990237B5123CCB7808222C
:1039430074F712036D7C01120BE8023C3C74F21213
:10395300036D74FC1208E7E9851882851983F0EA80
:10396300FEEBFF8C0A9003751249EE120E108A08C3
:103973008B09EA4509700579CA023AB88A828B83B2
:10398300A3A3A3A3A3A3A3E064FE7003A3E0F47023
:103993000579C3023AB89003751253B612105685CF
:1039A3000882850983A3A3A3A3A3A3A3A3A3A3E03B
:1039B30004900388123C1B7402120AA97402F014C7
:1039C300120AA9AA82AB83120F5A8A0C8B0DAE0C72
:1039D300AF0DEE4F7003023AAF123ABD12432A7491
:1039E30006F0A3A882A9839003621258801246832B
:1039F300F0EE2413125C6574011256C27440F0A3F6
:103A0300E4125310A3A3123ACA123CDFEE2411129C
:103A13005C65E50AF0EEFAEFFB120BB2E9FE600318
:103A2300023AB19003777409F0123459AA08FB796A
:103A33004B121D16850882850983123C0D123CDF4B
:103A430090036AE0F8851882851983E068600CE0CA
:103A530090036A123D6679E1121D169010CE123C56
:103A6300D39010D0E0687003A3E069601A90033B21
:103A7300123CDF9010D01253B6120F189010D012D0
:103A830049EE7A011247087A007B049003C2E0F9F9
:103A93001216269010D0123AC2740278081209E85E
:103AA300AC08AD09FA7B0412470A80027E10900528
:103AB30053E4F0EEF974040251AEEE125C7422E0AA
:103AC300F508A3E0F50922123ACE22122DB2A32261
:103AD30074F512036D74E21208E785188285198361
:103AE300ECF0A3EDF0EAFEEBFF89087429120AA9B2
:103AF300E0F509742C120AA9E0F50A900377E06453
:103B0300046005E06408700579C2023C05742A125A
:103B13000AA9E064FE7003A3E0F4700579C3023CD4
:103B2300059003777403123D667950121D16742AAB
:103B3300120AA9AA82AB83794B121D1685188285B6
:103B43001983123C14123CDFE50890036AF0742ACF
:103B5300120AA9123C0D123CDFE509900362123CE4
:103B63001B74CE55094480C0E07412120AA9D0E038
:103B7300F07401250A900388F0740F120AA97402E5
:103B8300F0742A120AA9123CD37407120AA9E8F0A6
:103B9300A3E9123C527410120AA9123CDF740512F5
:103BA3000AA9E508F0741B120AA9E4F090037D74D6
:103BB3000FF07A7D7B037954121D1690037C740FEA
:103BC300F07A7C7B037947121D1690037CE0C39443
:103BD3000F50237405120AA9E0C0E07402120AA967
:103BE300D0E0F07404120AA97401F004120AA9AA1D
:103BF30082AB83121D3A7405120AA9AA82AB8312FF
:103C03001D1C741E12086C022A391246A690036BFF
:103C1300221246A690037522F0EEFCEFFD7A897B13
:103C230003121CFE2274F712036DEB90037FF01254
:103C33000DFE8005740D12086C7F010205CB123C4A
:103C430047A3E022123CC0A322EAF0A3EBF0221226
:103C53003CC6F8A3E0F92274F712036D74F8120856
:103C6300E7EAFEEBFF7900900377E0640870448590
:103C7300188285198374FDF0A374FFF0120EE874A3
:103C830002120AA9123C4C7405120AA9E4123C4719
:103C9300E0C0E07404120AA9D0E0123CBBC0E07497
:103CA30006120AA9D0E0F07407120AA9E4123D66CD
:103CB300120F3C7408023C39123CC0E022F08E82A1
:103CC3008F8322123CCBE022F08518828519832250
:103CD3001246A622E0F8A3E0F9125C73E8F0A3E928
:103CE300F02212086C7F020205CBC082C0839003CE
:103CF3004974A2F0A3740CF09003EF7496F0A374CC
:103D03000FF090034D74D8F0A3740CF090034F742C
:103D1300A2F0A3740CF090035174DEF0A3740CF0C2
:103D23000238FF74F412036D74F91208E78A088BE2
:103D3300098C0A8D0B8518828519837808120A6A03
:103D43007404120AA9E9F07405120AA9E4F07406CE
:103D5300120AA9E4123D66120BC47407023E86E8F8
:103D6300F0A3E9123D6A22123CCBAA82AB832274F0
:103D7300F412036D8A088B098A828B83125C81EEAD
:103D83004F7003023E7E900312124F3C60158A82ED
:103D93008B83A3A3E0F9EEFAEFFB9003131241B870
:103DA300121EE98E828F83A3A3A3A3A3A3A3A3A31A
:103DB300E0640270748E828F83A3A3A3A3A3A3E002
:103DC30054027003023E50850882850983A3A3E051
:103DD30064E960798E828F83A3A3A3A3A3A3A3A380
:103DE300A3A3E070149010E3E0048E828F83A3A357
:103DF300A3A3A3A3A3A3A3A3F08E828F83A3A3A3AD
:103E0300A3A3A3A3A3A3A3E014123E80A3A3A37419
:103E130004F09010E41256BCE8F0A3E91267958B06
:103E23000BEA450B70031261738E828F83A3A3A3E6
:103E3300A3A3A3A3A3A3E0640260128E828F83A330
:103E4300A3A3A3A3A3A3A3A3E06406702E8E828FD0
:103E530083A3A3A3A3A3A3E0A2E0501F85088285A5
:103E63000983A3A3E0F9EEFAEFFB121DD08E828F34
:103E730083A3A3A3A3A3A3E054FEF080091240C726
:103E830022740D12086C7F040205CB74EC12036DCF
:103E930074DD1208E7EAFEEBFF8C088D0974371214
:103EA3000AA9780C120A4C750A007405120AA9AC07
:103EB30082AD83120ABC7412120AA9E07008741549
:103EC300120AA9E060207405120AA9E0A2E6501EB6
:103ED3008E828F83A3A3A3A3A3A3A3A3A31253B6E7
:103EE300120F72E960087903121CE60240AD7405F3
:103EF300120AA9E0540C64047005750B0180037564
:103F03000B00E0A2E55035750A01E50BA2E0402C59
:103F1300120EEE8A108B11A810A911123ABDE06897
:103F23007003A3E06960157405120AA9126C741278
:103F330053B2121DDCE96004790480AC7405120AE3
:103F4300A9E0A2E650227406120AA9E054037018ED
:103F53007405120AA9E0540C640C600CE0540C6460
:103F630008600575100180037510007405120AA915
:103F7300E05403F8740268700C126C741253B2129A
:103F83000ACE0240AD740168703AE510A2E0500316
:103F93001240B57405120AA9A882A9837403120AF0
:103FA300A9E8F0A3E912469A85188285198312407D
:103FB300BFE0C0E07402120AA9D0E0123D66121EEF
:103FC300C00240ADE860030240AD90035FE06401CE
:103FD30070108E828F83A3A3A3A3A3A3E070030215
:103FE3003F3B7422120AA9740212469A741A120AE7
:103FF300A9123CDFE510A2E050087405120AA912C9
:1040030040B5E50BA2E0506AEE240FF582EF126390
:1040130038C0E07417120AA9D0E0F0900314124FCD
:104023003C70030240AD120EEE8A128B13A812A944
:1040330013741A120AA9E0687003A3E069706B781D
:104043000C120851780A12085D7808120859A91051
:10405300740C120AA9AC82AD837421120AA9AA8234
:10406300AB839003141241B5121EE9740712086C56
:104073008038780C120851780A12085D7808120803
:1040830059900375120685EE2412F582EF126066CD
:104093007423120AA9AC82AD83740E120AA9AA82F0
:1040A300AB83121DC4740912086C742312086C02CA
:1040B3006760126C74125851120AC222E8F0A3E925
:1040C3001240C7221240CB22F08E828F83A3A3A378
:1040D300A3A3A32274F712036D1216FE023C3C74D1
:1040E300F712036D121710023C3CC082C0831217F3
:1040F3000A0238FF74F712036D121716023C3C7460
:10410300F712036D7409120AA9E0F508780812087A
:104113005D1217227401023C39C082C08312172E2C
:104123000238FFC082C0831217340238FF74F712BB
:10413300036D12173A023C3C74F712036DEAFEEB6F
:10414300FF89087401650870147900120D1A90280C
:1041530043E493FC7900EEFAEFFB120C90023C3C33
:1041630074F412036D74F91208E7E9FE8A088B09E7
:104173008C0A8D0B7413120AA91253B690059F1261
:104183004F3C6027EE851882851983F07401120A6B
:10419300A97808120A6AEAF8EBF97405120AA91257
:1041A3003D6290059F1241B5121EE9023D5DFB90F1
:1041B300034BE0F8A3E0F58388822274F712036DC2
:1041C300901087E0F97E00800B126324540D640184
:1041D3007001190E1243B85003E970ED023C3C74B0
:1041E300F712036D901088E0F97E00800B126324B0
:1041F300548D64817001190E1243B85003E970EDB8
:10420300023C3C74F212036D890BE975F006A42499
:104213000CF508E5F01234618A0CE508250CFAE583
:10422300093400FB1215668A0C8B0DAE0CAF0DEE34
:104233004F6027AC08AD0979001214CA123ABDE5E4
:104243000BF0EE2508F8EF3509F98E828F83A3A3CF
:10425300A3A3A3A3A3A3A3123CDFEEFAEFFB025194
:10426300B174F612036DEAFEEBFF120C6C9010862C
:10427300E0F8E9C39840099003451253B6120C7253
:10428300EE2402F8EF1259C69003471258809003A8
:1042930047E004F0EEFAEFFB120C788508828509FB
:1042A30083E0025E7CC082C0837900900345800175
:1042B300091253B68A828B83E582458370F20238F2
:1042C300FF74F712036DEAFEEBFFEE4F60569003A7
:1042D30045124F3C604E888289837A007B00EE65ED
:1042E300827003EF6583600FAA82AB8312432AE5D2
:1042F300824583602F80E79003451243366870023E
:10430300EF698E828F837008123CD390034580033C
:10431300126772123CDFEEFAEFFB121E90EEFAEF19
:10432300FB12156C023C3C12432E221246AA8882D1
:104333008983221246A6EE22C082C0839003458061
:104343000488828983124F3C600B888289831249D7
:10435300EEEC4D70EC8A828B83E4F0A3F0E84960C5
:1043630006888289838003900345123C4C0238FF00
:1043730074F712036D90034580048A828B83124382
:10438300B34B60257E0080010E1243B850ECEE75EE
:10439300F006A4FCADF0EA2CFCEB3DFDEC2410F59B
:1043A30082ED12440870E180047A007B00023C3CF9
:1043B300125855EA22124411EEC3982274F71203DD
:1043C3006D7D0080010D12440DEDC3985034ED75E1
:1043D300F006A4FEA8F0E8FFEA2EFEEB3FFFEE2472
:1043E30010F582EF12440870DCED75F006A4FEE8C8
:1043F300FFEA2EFAEB3FFBEA2411F582EB12633856
:104403004CF0023C3C126344692212441122126CA8
:104413007EEB3400F583E0F82274F612036D120D7F
:10442300927A007B008025EAF8EBF9E875F006A4A0
:10443300F8ACF075F006E9A42C12582A126B3FA3CE
:10444300E4125920F0A3126B45126CBC90282D1274
:1044530030E040D37A007B00801C8A088B09740308
:1044630078081209E81252DEA374FEF0A30412576F
:1044730000A3E4126CBC9028371244BB40DC7A00E2
:104483007B00801D8A088B09740378081209E8747D
:10449300CB125FB0740F1267F774FEF0A304126CB3
:1044A300BC90283D1244BB40DB902841E493900329
:1044B30053F01244C5023CE8E493F8C3EA98EB9442
:1044C30000227CE87D037A107B009003C2E0F9129E
:1044D30016202274F012036D74F51208E78A088B14
:1044E30009890A8C0BE9A2E050147508FC7509FFD1
:1044F300A2E15005D2E4024598D2E3024598125155
:104503009D7003A3E06970057900024665AC0A79E2
:1045130002AA08AB09120D6EE960EDE50AF50C7805
:104523000C12085D79027CFE7DFFAA08AB09124FCD
:104533001812086CE96003024663E50AC2E5F50A4E
:104543009003B5E07051E50AA2E6404B7403120AEA
:10455300A9AC82AD83AA08AB09120B10E970321221
:1045630048398A0C8B0DA80CA90DE8FEE9FFE84930
:104573006025EE24020A0AEF122DF0601AEE2402DF
:10458300FCEF3400FD7403120AA9AA82AB83121C48
:10459300FEE50AD2E5F50A900348E0F50C900368BE
:1045A300E0F50EA3E0F50F780E1208597D017C00AB
:1045B300900348E0F9AA0EAB0F120D2674021208FD
:1045C3006CE9F8900348E004F0E86003024663E511
:1045D3000AA2E55004740E80027406C0E07401124E
:1045E3000AA9D0E0125C928A0E8B0FAE0EAF0FEECB
:1045F3004F606912468312469A888289837401F058
:104603007478550AA3126C84E50C126C84A3E50834
:10461300F0E509124672E4F0E50AA2E5500F7403CF
:10462300120AA9AC82AD83E824061246698E828FF2
:1046330083A3A374FDF0A374FFF0E50B601590282A
:1046430044E493F8E50BC3985009EE2413125C6518
:10465300E50BF0EEFAEFFB120BB280067910800245
:1046630079C7740B8049FAE93400FB121CFE2288D7
:10467300828983A3A3A3A312467E221259F9A322FC
:10468300EE2417125C767401F0120EE8EE241A126F
:104693005C76EAF0A3EB22F0126C7834001246A4A5
:1046A30022F5831246AA22E0F8A3E0F922740D1240
:1046B300086C7F080205CB74F612036D7A007B1039
:1046C30012618060089003D47401F0802990063E43
:1046D300E064019010E17006E0FC79018004E0FCE5
:1046E30079037A007B00120C9090282B1246FC7AF7
:1046F300007B1012470A023CE812470022E493FCB5
:10470300740193FD227B009003C2E0F912161A2272
:1047130074EC12036D8A088B098C0C8D0D890E7451
:1047230014120AA91250F77416120AA9E0F510A37D
:10473300E0F511120F72E960077AFF7BFF0248363A
:104743009010E0E0640260030248297900AA08ABF4
:1047530009120D74A90E120D688A128B13AE12AFD3
:1047630013EE4F70030248118E828F83A3A3A3A37A
:10477300A3E064018E828F83A3A370691253B68E64
:10478300828F83A3A3A3A3A3A3E054186043902819
:1047930042E4938E828F83A3A3A3A3F0EA650C70F4
:1047A30003EB650D6014EA650A7003EB650B600AA1
:1047B300EA65107003EB6511701F7810120859AC8D
:1047C3000AAD0BAA0CAB0D12106E740212086C80AA
:1047D3000890036712616AA3F074FE6A700374FFA2
:1047E3006B601D804EA3A3A3E0640360298E828FB8
:1047F30083A3A3A3A3A3E0640470057AFE02473E48
:104803008E828F83A3A3A3A3A3E064027008900303
:10481300B4E0640270101248398B0BEA450B600652
:10482300AA08AB09800DAA08AB099003491241B548
:10483300121EE9026760900375124F1E1210322296
:1048430074F712036DEAFEEBFF120B64E9700AEED4
:10485300FAEFFB120B70E96006EEFAEFFB80047AC5
:10486300FE7BFF023C3C74F012036D8A0A8B0B8CB7
:104873000E8D0F8909750800120F72E97900600324
:104883000249E0AA0AAB0B120D74A909120D688A3A
:104893000C8B0DAE0CAF0DEE4F60198E828F83A380
:1048A300A3A3A3A3E0640270559003B4E064027071
:1048B300030249DEAA0AAB0B90034F1241B5121E45
:1048C300E9120B768A0C8B0DA80CA90DE84970032D
:1048D3000249DE88828983A3A3A3A3A3E0A2E040C5
:1048E300030249DE750C01A2E150687901AC0AADFF
:1048F3000BAA0EAB0F120CC0E970640249DE8E8264
:104903008F83A3A3A3A3A3E064037005750C0280A4
:10491300528E828F83A3A3A3A3A3E0640160030247
:1049230049DE9003751249EE8E828F83124D438ABE
:104933000C8B0DA80CA90DE84960D190283BE4939A
:10494300FA88828983E0C39A50C2A3E060030249D4
:10495300DE80B988828983A3A3A3A3A3D2E1F0EE67
:104963004F603A8E828F83A3A3A3A3A3A3E054181B
:10497300602B7508018E828F83A3A3120685750CA5
:10498300FE750DFF780C1208597900AC0AAD0BAA1D
:104993000EAB0F120D86740412086C803E900368F0
:1049A300E0650E7004A3E0650F7014902843E49350
:1049B300FCA909AA0AAB0B120C90750801801CA96B
:1049C3000CAC0AAD0BAA0EAB0F120CC0E9700C7540
:1049D3000801A909AA0AAB0B120D1AA9080246B5C8
:1049E300E50C2415F582E50D125C791256D6227476
:1049F300EA12036D74F01208E78A0C8B0D8C088D94
:104A0300097426120AA9E0F514A3E0F51575120638
:104A13009003F5124F3C60239003751249EEAA08E8
:104A2300AB0912105C8A108B11EA4511600D8A8262
:104A33008B83A3E070057900024D2BE50C241DF553
:104A43000EE50D3400F50F850E82124F28F51388FD
:104A5300828983A3A3A3E0FA88828983A3A3A3A360
:104A6300E0F9EA2400FEE439FFAA08AB09120D209D
:104A7300850E82850F83124D66E029F50BE50AA2A8
:104A8300E5500375120E7487550A70177418550A8A
:104A93006418600FE50C2417F582E50D1263386581
:104AA3001260077901121CE6808C530A78C3EE94D6
:104AB300F8EF94FF501D7900EEFAEFFB124D3560CD
:104AC3001288828983A3A3A3A3A3A3E0541860033A
:104AD300024A3978081208597D00124D5912086CA0
:104AE300E9F87403687003024A39E86003024BA4CF
:104AF3007418550A7003024C59E50AD2E0F50AA26C
:104B0300E45004D2E1F50AA90A1253AF124D3560FD
:104B13005388828983A3A3A3A3A3A3E05418604467
:104B230088828983A3A3A3A3A3E064017036E5105D
:104B3300451160309003751249EE88828983124DC6
:104B4300438A0E8B0FA80EA90FE849601788828944
:104B530083A3E0600F851082851183A3125E8750C3
:104B630003024A39E50AF50E780E12085D124D4C20
:104B730012086CE9702B7C007D00851482851583F7
:104B830074FFF0A3F0850C82850D83A3A3A3A3A3D5
:104B9300A3A3A3E060031249E3A90B1253AF1217B7
:104BA30028851482851583E0F47003A3E0F460394B
:104BB3009003B4E064027003024A391250E8E0FA49
:104BC300A3E01241B1121EE9EA65087003EB65091F
:104BD3006003024A39EEFAEF1241B1121EE985145D
:104BE30082851583EAF0A3EBF078081208597D015A
:104BF300124D5912086CA90AEEFAEFFB120D748AD2
:104C0300088B09A808A909900368E0687003A3E06A
:104C1300696003024D1CEEFAEFFB120B768A088BD8
:104C230009A808A909E849606E88828983A3A3A318
:104C3300A3E06401600D88828983A3A3A3A3E06436
:104C4300027054851882851983AC82AD83EEFAEF26
:104C5300FB120B108055900361E0600FE50AF50E1F
:104C6300780E12085D124D4C12086CE50AF50E78A9
:104C73000E12085D79027CFE7DFFEEFAEFFB124F08
:104C83001812086CE96003024BA48514828515830E
:104C930074FFF0A3024BEB120EE8EAFCEBFD851860
:104CA30082851983AA82AB83121CFE850C82850D33
:104CB30083A3A3A3A3A3A3A3A3E06401700F124937
:104CC300E37408120AA9AA82AB83121CFE124EF2E5
:104CD300125AFE4430F508780812085D7401120A6E
:104CE300A98582088583097808120859740B120A6A
:104CF300A98582088583097808120859E513F50800
:104D0300780812085D7900EEFCEFFD1253AF120C28
:104D1300BA740612086C024A39124EF2125C681217
:104D23004D66E50BF0120F00741012086C7F0E0233
:104D330005CB120D688A0E8B0FA80EA90FE8492226
:104D4300A3A312585512105C227901AC08AD0912C5
:104D5300584A124F1822AC0BA91312584A120D26A7
:104D6300740222125B06A3A3A3A32274F012036DA1
:104D730074F01208E78A0C8B0DECFAEDFB750F0843
:104D83009003F5124F3C6014125E808A828B83E598
:104D93008245836007A3E07003024EED124EF234A6
:104DA30000124F28F50B88828983124EFBE0FBEC3F
:104DB3002400FEE43BFF88828983A3A3124EFBA356
:104DC300A3E0FBECF508E43BF50988828983A3A300
:104DD300A3A3A3A3A3E0F50EE50AA2E45003750F72
:104DE30010A2E550067408250FF50F748F550A704D
:104DF3000FE50C2417F582E50D126338650F600883
:104E03007901121CE6024EED530A707800E50AA2FE
:104E1300E45022124EF21263382408FCA3E034005B
:104E2300FD7408120AA9AA82AB83121CFE7808E556
:104E33000AC2E4F50AE50AA2E55028124EF212630B
:104E43003828F8A3E03400F9E82408FCE93400FD2D
:104E5300851882851983AA82AB83121CFEE50AC2D8
:104E6300E5F50AAC0EA90BEEFAEFFB120D2CE9F8EF
:104E73007403686075900368E06E7003A3E06F606D
:104E83005EE87054E50AF50F780F12085D124F09BA
:104E930012086CE97054780A12085D7401120AA9A9
:104EA30085820C85830D780C120859740B120AA99C
:104EB30085820C85830D780C120859E50BF50A7869
:104EC3000A12085DA90EAC08AD09EEFAEFFB120C4D
:104ED300BA740612086C8012740468700D80B77877
:104EE3000A12085D124F0912086C74100246B2E5EB
:104EF3000C241DF582E50D22A3A3A3E0FC8882897F
:104F030083A3A3A3A32279011250EF125C79124F5A
:104F13001E124F1822120CE4740122E0FCA3E0FDE0
:104F2300AA08AB0922F58312432EA3E0F50A88826F
:104F33008983A3A3E0229003391258B12274E812A3
:104F4300036D74F51208E7EAFEEBFF8C088D0989FF
:104F5300147423120AA9E0F50F7424120AA9E0F5C8
:104F630012A3E0F5137426120AA9E0F516A3E0F5DF
:104F7300177428120AA9E0F50EA90F120D328A1030
:104F83008B117401120AA97408F0E50EA2E4500310
:104F93007410F0E50EA2E55004E02408F0851882B1
:104FA300851983AA82AB83120F5A8A0C8B0DEA45AB
:104FB3000D70030250CFEA2417F582EB1250E11271
:104FC3000EE8E50C241AF582E50D125C68123C4CE0
:104FD3007403120AA9AC82AD83AA10AB11120B1091
:104FE300E9601D1250D97403120AA9A882A983E5A6
:104FF3000C2418F582E50D125C68E8F0A3E980241F
:10500300E50EA2E4501FE5106E7003E5116F7015F5
:105013001250D9E50C2418F582E50D125C68E512EF
:10502300F0A3E513F01250E81250F7850A82F583D6
:105033007402F0A3E50E1250FFE50FF0EE850A822D
:10504300850B83A3A3A3F0EF850A82850B83A3A318
:10505300A3A31250FFA3A3A3E508F0E509850A82E1
:10506300850B83A3A3A3A3A3A3F0AA10AB11120DD3
:1050730020E92514850A82850B83A3A3A3A3A3A3F5
:10508300A3F0750800E50EA2E45011AC12AD13E5D0
:105093000A2408FAE50B12466B750808E50EA2E52B
:1050A3005014AC16AD17E50A2508F8E50B3400F9E2
:1050B300E82408124669850C82850D83A3A3E510B5
:1050C300F0A3E511F0AA0CAB0D120BB2740B12088E
:1050D3006C7F100205CBE50C2416F582E50D125CFE
:1050E300797401F0221250EF125C7922E50C126CF4
:1050F3007FE50D22E0F50AA3E0F50B22F0850A8295
:10510300850B83A3A32274F212036D8A088B09EC27
:10511300FEEDFF890A790012519D7003A3E06970C7
:105123000479018073750B01900368E065087004CE
:10513300A3E06509601F750B00780B12085DA90ACF
:10514300EEFCEFFDAA08AB09120FAE740112086C56
:10515300E9F50B80417900EEFAEFFB120D68EA4B9B
:10516300602B8A828B83A3A3A3A3A3A3E054186019
:105173001C7508FE7509FF78081208598A828B830B
:10518300A3A3120685126A9412086C80097901EEB2
:10519300FAEFFB120C48A90B8014120D748A0C8BC6
:1051A3000DA80CA90D900368E0682212086C7F0615
:1051B3000205CB74F412036D75081375090E7A108A
:1051C30012679C8B0BEA450B70031244C590035383
:1051D300E014F0700C902841E493900353F0120D07
:1051E300807E007F00806C850882850983A3A3A34A
:1051F300A3E06059F46056E5082404F582E509123A
:1052030061647049850882850983A3A3A3A3A3E0EE
:105213006403701979028508828509831249EE8532
:105223000882850983A3A31253B6120CC085088292
:10523300850983A3A3A3A3A3E06401601085088267
:1052430085098374FEF0A304125310E4F0123607A9
:1052530012345990282F1268F8408C7E007F00800A
:1052630039120E8E8E088F09740378081209E874B8
:105273008B2508FC740F3509FD7ACC7B0C120E7C50
:10528300EA4B70DD8E088F09740378081209E8125F
:1052930052DE126B3FE4F0123607902837E493F89E
:1052A300C3EE98EF9400501B8E088F09740378089F
:1052B3001209E81252E6E82407F582E912616470E4
:1052C300D680A17E007F00800A1252F1600214F0A2
:1052D3001236071268F540F1023E891252E68882BF
:1052E300898322748B2508F8740F3509F922EEF8A7
:1052F300EFF9E875F006A4F8AAF075F006E9A42A18
:10530300F9742B28F582740F39F583E022125317B1
:10531300A3A3A322F0850882850983A3A32274F79C
:1053230012036D74E11208E7ECFEEDFF750800EE61
:105333004F60728A828B83E0241C126195124F3C6A
:1053430060638A828B831253B6851882851983AC76
:1053530082AD83EA241BF582EB126066EA241CF516
:1053630082EB1253B2120ED0740B120AA91253BA63
:105373007003A3E069702E7402120AA9E06401703D
:1053830024741D120AA91241B5E064017017741D3B
:10539300120AA91241B7A3A3E0F88E828F83E068B3
:1053A3007003750801A908741F023C391250EF34C9
:1053B30000F58312585522122DAEE0682274F412C0
:1053C300036DE97024790090034D1241B5121EE973
:1053D3008A0A8B0BAE0AAF0B74FE6E700374FF6FF9
:1053E300701A90283EE4936013790190034D1241A3
:1053F300B5121EE98A0A8B0BAE0AAF0B120F1E02FF
:10540300375B74F612036D74F31208E71214DC8A27
:10541300088B09AE08AF09900368E06E7003A3E040
:105423006F60E9120EF4EA6E7002EB6F60DEEEFA63
:10543300EFFB120F72E970D4EE4F60D085188285AE
:105443001983E4F004120AA9EEF0A3EF125468E9F9
:1054530070BA74FE6E700374FF6F60B0EEFAEFFB08
:10546300740D023CE5123D6A120B2822C082C083F0
:10547300120F1E0238FF7F0A0205CB74F212036D6E
:10548300EAFEEBFF8C0A8D0B8908740E120AA9E061
:10549300F50974FC6E700374FF6F70057900025197
:1054A300B17900120D748A0C8B0DAE0CAF0D900305
:1054B30068E06E7003A3E06F7006E509A2E650DCB6
:1054C300A909126982706179007AFE7BFF126982F1
:1054D30070567418550970030255B5780079008029
:1054E30003122FA890282F122F9F40030255B5E8CF
:1054F300FAE9FBEA75F007A4FAACF075F007EBA440
:105503002CFB74192AF582740E3BF583E054187052
:10551300D0E875F007A4F8AAF075F007E9A42AF912
:10552300741328F8740E39F988828983A3A3A3A37B
:10553300A3A3E05418600974185509700302549F1B
:1055430088828983EEF0A3EFF074FE650A70047419
:10555300FF650B60031256DC88828983A3A3A3A390
:10556300A3A3E509F0A2E0500D88828983A3A3A336
:10557300A3A3A3D2E2F07401650888828983A3A35D
:10558300A3A3A370387401125700E0541860289045
:105593002842E49388828983A3A3A3A31256CA1241
:1055A300105C8B0DEA450D600302549F780079006F
:1055B300803979020254A1900367E080D7E0640147
:1055C300700302549F88828983A3A3A3A3A3A3E0A8
:1055D30054186007902842E4938004900366E01215
:1055E3004672E508F002549F122FA8902838E493DE
:1055F300FAC3E89AE99400400302549F7A007B00BF
:10560300804BEAFCEBFDEC75F007A4FCAEF075F003
:1056130007EDA42EFD74152CF582740E3DF583124F
:105623005C81E8FCE9FDEC75F017A4FC85F00975D5
:10563300F017EDA42509FD74A32CF582740C3DF538
:1056430083E06E7003A3E06F609E1234DC90282F1A
:1056530012346940AD1246FCEC6A7002ED6B70883F
:10566300E875F017A4F8AAF075F017E9A42AF974FD
:10567300A328FE740C39FF7C177D007900EEFAEF46
:10568300FB1214CA8E828F831256E2900375125650
:10569300BCA3A3A3A3A3A3E8F0A3E91256C2740176
:1056A300F0EE240E125C6574011256EA12021CEE2F
:1056B300240D125C65E80255E7123ACEA3A322F04B
:1056C300EE240F125C7622F01256D3AA0AAB0B22F9
:1056D300900375E0FCA3E0FD2288828983A3A3E500
:1056E3000AF0A3E50BF022F01256EF2290283BE4D8
:1056F300932401F8E43400F97A027B002212467EF7
:10570300A32274ED12036D8A088B09890E12583394
:1057130040057905025801121770AA08AB091259FE
:105723000590282D125804650A7003E9650B70076C
:105733007AFE7BFF12590590282DE412580CE50AD6
:1057430098E50B9940030257FF1258106012E50ABF
:1057530075F006A4F875F006E50B12585B12156C8C
:10576300E50E6018E50A75F006A4F8AAF075F006D0
:10577300E50B125887701A7901025801E50A75F092
:1057830006A4F8AAF075F006E50B125868E4F0A336
:10579300F0E50A75F006A4F8AAF075F006E50B1219
:1057A3005828A3125B1488828983A3AA82AB83122D
:1057B30058768A828B83E0603F125810603A8E10CD
:1057C3008F117512007810120855E50EC333FCE4EF
:1057D30033FDE50A75F006A4F50AA8F075F006E5B1
:1057E3000BA428F50B742F250AF582740F350B12C1
:1057F30053B412347A12086C790080027907026973
:1058030098123101E82290282312631F22E50A75BA
:10581300F006A4F8AAF075F006E50B125863F8A396
:10582300E0F9E84922A42A1259BC88828983A32279
:10583300ECFEEDFF902839E493F8E9C39822F58351
:1058430012585512156C22E50C126C7FE50D3400CD
:10585300F583E0FAA3E0FB22125863FAA3E0FB22EC
:10586300125868E022A42AF9742F28F582740F399C
:10587300F58322E50EF09010E212588022E0888230
:105883008983F0221259E0F50CE93400F50DE50E99
:10589300C333FAE433FB121566850C82850D83EA64
:1058A300F0A3EBF0850C82850D831258B1221246CA
:1058B300AAE8492274F412036DECFEEDFF740C1296
:1058C3000AA9123CD388088909125905AC0AAD0B01
:1058D300ECF8EDF990282D12590D5021E875F006DA
:1058E300A4F8AAF075F006E9125828E08E828F8397
:1058F300125920125916123CDF79008002790402F2
:105903003E89120CF68A0A8B0B22123472C3EC9A6C
:10591300ED9B221246A6850882850983221259F53A
:105923002274F612036D7E007F008028EEF8EFF9F3
:10593300E875F006A4F8ACF075F006E9A42CF97448
:105943002D28F582740F1265A36A7003A3E06B60C0
:10595300571236071268F540D31268F07002E96FE8
:10596300704674FE6A700374FF6B703C7E007F00A8
:1059730080031236071268F5502E1252F170F3EEBF
:10598300F8EFF9E875F006A4F81259B21259E76076
:10599300171259CEF8E91259C68882125841850860
:1059A30082850983E4F0A3F0EEFAEFFB023CE8758D
:1059B300F006E91259BA22A42AF9742B28F8740FB5
:1059C30039F9223400F98808890922EEF8EFF9E859
:1059D30075F006A4F875F006E91259E0221259BAD7
:1059E300E8240422A3A374FE1259F21258B122F040
:1059F300A3041259F922F088828983A3A3A3A322C3
:105A030074F612036DEA241DF582EB125AFEF96057
:105A13004BEA241DF582EB1263382402FCA3E03425
:105A230000FD1258374003025AF1780080298C8216
:105A33008D83E0F508A3E0FFE5082400E43FF509C2
:105A4300E833FEE433FF74732EF582740F3FF5835E
:105A5300125B14125AF408E8C39940D28A828B83EA
:105A6300A3A3A3A3A3A3A3A3A31249EE900368E054
:105A73006C7003A3E06D700F7C737D0F122D1712F2
:105A830053B2120CEA8067EA2411F582EB126338F1
:105A9300605CFC74FF2CF0750801780812085D75D2
:105AA300087375090F7808120859E9F50878081280
:105AB300085DEA2412F582EB126338F508780812C0
:105AC300085DEA2415F582EB125C68120685ECF991
:105AD300122D171249EB8A828B83A3A3A3A3A3A33B
:105AE300A3A3A31253B6120D02740712086C023C4F
:105AF300E8EC24020C0CED3400FD22125C79125BFD
:105B030006E022E0F8A3E0F5838882A32288828955
:105B130083E508F0A3E509F02274EA12036D74FD2E
:105B23001208E78A148B158C0E8D0F890D741912C8
